{
  "contracts/SquidChain.sol": {
    "SquidChain": {
      "abi": [
        {
          "inputs": [],
          "stateMutability": "nonpayable",
          "type": "constructor"
        },
        {
          "inputs": [
            {
              "internalType": "uint8",
              "name": "agentId",
              "type": "uint8"
            },
            {
              "internalType": "string",
              "name": "name",
              "type": "string"
            },
            {
              "internalType": "string",
              "name": "description",
              "type": "string"
            },
            {
              "internalType": "string",
              "name": "image",
              "type": "string"
            },
            {
              "internalType": "string[]",
              "name": "traits",
              "type": "string[]"
            }
          ],
          "name": "addAgent",
          "outputs": [],
          "stateMutability": "nonpayable",
          "type": "function"
        },
        {
          "inputs": [
            {
              "internalType": "uint8",
              "name": "",
              "type": "uint8"
            }
          ],
          "name": "agents",
          "outputs": [
            {
              "internalType": "uint8",
              "name": "agentId",
              "type": "uint8"
            },
            {
              "internalType": "string",
              "name": "name",
              "type": "string"
            },
            {
              "internalType": "string",
              "name": "description",
              "type": "string"
            },
            {
              "internalType": "string",
              "name": "image",
              "type": "string"
            },
            {
              "internalType": "bool",
              "name": "eliminated",
              "type": "bool"
            }
          ],
          "stateMutability": "view",
          "type": "function"
        },
        {
          "inputs": [
            {
              "internalType": "string",
              "name": "",
              "type": "string"
            },
            {
              "internalType": "uint256",
              "name": "",
              "type": "uint256"
            }
          ],
          "name": "agentsByGame",
          "outputs": [
            {
              "internalType": "uint8",
              "name": "agentId",
              "type": "uint8"
            },
            {
              "internalType": "string",
              "name": "name",
              "type": "string"
            },
            {
              "internalType": "string",
              "name": "description",
              "type": "string"
            },
            {
              "internalType": "string",
              "name": "image",
              "type": "string"
            },
            {
              "internalType": "bool",
              "name": "eliminated",
              "type": "bool"
            }
          ],
          "stateMutability": "view",
          "type": "function"
        },
        {
          "inputs": [
            {
              "internalType": "uint8[]",
              "name": "agentIds",
              "type": "uint8[]"
            },
            {
              "internalType": "string",
              "name": "uuid",
              "type": "string"
            }
          ],
          "name": "createGameRoom",
          "outputs": [],
          "stateMutability": "nonpayable",
          "type": "function"
        },
        {
          "inputs": [
            {
              "internalType": "uint8",
              "name": "eliminateAgentId",
              "type": "uint8"
            },
            {
              "internalType": "string",
              "name": "gameId",
              "type": "string"
            }
          ],
          "name": "eliminatePlayer",
          "outputs": [],
          "stateMutability": "nonpayable",
          "type": "function"
        },
        {
          "inputs": [
            {
              "internalType": "string",
              "name": "",
              "type": "string"
            },
            {
              "internalType": "uint8",
              "name": "",
              "type": "uint8"
            }
          ],
          "name": "eliminatedInGame",
          "outputs": [
            {
              "internalType": "bool",
              "name": "",
              "type": "bool"
            }
          ],
          "stateMutability": "view",
          "type": "function"
        },
        {
          "inputs": [],
          "name": "gameCount",
          "outputs": [
            {
              "internalType": "uint8",
              "name": "",
              "type": "uint8"
            }
          ],
          "stateMutability": "view",
          "type": "function"
        },
        {
          "inputs": [
            {
              "internalType": "string",
              "name": "",
              "type": "string"
            }
          ],
          "name": "gameRooms",
          "outputs": [
            {
              "internalType": "string",
              "name": "gameId",
              "type": "string"
            },
            {
              "internalType": "bool",
              "name": "gameStarted",
              "type": "bool"
            },
            {
              "internalType": "bool",
              "name": "gameEnded",
              "type": "bool"
            },
            {
              "internalType": "uint8",
              "name": "currentRound",
              "type": "uint8"
            }
          ],
          "stateMutability": "view",
          "type": "function"
        },
        {
          "inputs": [
            {
              "internalType": "address",
              "name": "",
              "type": "address"
            },
            {
              "internalType": "uint256",
              "name": "",
              "type": "uint256"
            }
          ],
          "name": "gamesByUser",
          "outputs": [
            {
              "internalType": "string",
              "name": "gameId",
              "type": "string"
            },
            {
              "internalType": "bool",
              "name": "gameStarted",
              "type": "bool"
            },
            {
              "internalType": "bool",
              "name": "gameEnded",
              "type": "bool"
            },
            {
              "internalType": "uint8",
              "name": "currentRound",
              "type": "uint8"
            }
          ],
          "stateMutability": "view",
          "type": "function"
        },
        {
          "inputs": [
            {
              "internalType": "string",
              "name": "gameId",
              "type": "string"
            }
          ],
          "name": "getActiveAgents",
          "outputs": [
            {
              "components": [
                {
                  "internalType": "uint8",
                  "name": "agentId",
                  "type": "uint8"
                },
                {
                  "internalType": "string",
                  "name": "name",
                  "type": "string"
                },
                {
                  "internalType": "string",
                  "name": "description",
                  "type": "string"
                },
                {
                  "internalType": "string",
                  "name": "image",
                  "type": "string"
                },
                {
                  "internalType": "string[]",
                  "name": "traits",
                  "type": "string[]"
                },
                {
                  "internalType": "bool",
                  "name": "eliminated",
                  "type": "bool"
                }
              ],
              "internalType": "struct SquidChain.Agent[]",
              "name": "",
              "type": "tuple[]"
            }
          ],
          "stateMutability": "view",
          "type": "function"
        },
        {
          "inputs": [
            {
              "internalType": "string",
              "name": "gameId",
              "type": "string"
            }
          ],
          "name": "getAllAgentsByGameId",
          "outputs": [
            {
              "components": [
                {
                  "internalType": "uint8",
                  "name": "agentId",
                  "type": "uint8"
                },
                {
                  "internalType": "string",
                  "name": "name",
                  "type": "string"
                },
                {
                  "internalType": "string",
                  "name": "description",
                  "type": "string"
                },
                {
                  "internalType": "string",
                  "name": "image",
                  "type": "string"
                },
                {
                  "internalType": "string[]",
                  "name": "traits",
                  "type": "string[]"
                },
                {
                  "internalType": "bool",
                  "name": "eliminated",
                  "type": "bool"
                }
              ],
              "internalType": "struct SquidChain.Agent[]",
              "name": "",
              "type": "tuple[]"
            }
          ],
          "stateMutability": "view",
          "type": "function"
        },
        {
          "inputs": [
            {
              "internalType": "string",
              "name": "gameId",
              "type": "string"
            }
          ],
          "name": "getEliminatedAgents",
          "outputs": [
            {
              "components": [
                {
                  "internalType": "uint8",
                  "name": "agentId",
                  "type": "uint8"
                },
                {
                  "internalType": "string",
                  "name": "name",
                  "type": "string"
                },
                {
                  "internalType": "string",
                  "name": "description",
                  "type": "string"
                },
                {
                  "internalType": "string",
                  "name": "image",
                  "type": "string"
                },
                {
                  "internalType": "string[]",
                  "name": "traits",
                  "type": "string[]"
                },
                {
                  "internalType": "bool",
                  "name": "eliminated",
                  "type": "bool"
                }
              ],
              "internalType": "struct SquidChain.Agent[]",
              "name": "",
              "type": "tuple[]"
            }
          ],
          "stateMutability": "view",
          "type": "function"
        },
        {
          "inputs": [],
          "name": "getGameCount",
          "outputs": [
            {
              "internalType": "uint8",
              "name": "",
              "type": "uint8"
            }
          ],
          "stateMutability": "view",
          "type": "function"
        },
        {
          "inputs": [
            {
              "internalType": "string",
              "name": "gameId",
              "type": "string"
            }
          ],
          "name": "getGameRoomById",
          "outputs": [
            {
              "components": [
                {
                  "internalType": "string",
                  "name": "gameId",
                  "type": "string"
                },
                {
                  "internalType": "bool",
                  "name": "gameStarted",
                  "type": "bool"
                },
                {
                  "internalType": "bool",
                  "name": "gameEnded",
                  "type": "bool"
                },
                {
                  "internalType": "uint8",
                  "name": "currentRound",
                  "type": "uint8"
                }
              ],
              "internalType": "struct SquidChain.GameRoom",
              "name": "",
              "type": "tuple"
            }
          ],
          "stateMutability": "view",
          "type": "function"
        },
        {
          "inputs": [
            {
              "internalType": "address",
              "name": "userAddress",
              "type": "address"
            }
          ],
          "name": "getGameRoomsByUser",
          "outputs": [
            {
              "components": [
                {
                  "internalType": "string",
                  "name": "gameId",
                  "type": "string"
                },
                {
                  "internalType": "bool",
                  "name": "gameStarted",
                  "type": "bool"
                },
                {
                  "internalType": "bool",
                  "name": "gameEnded",
                  "type": "bool"
                },
                {
                  "internalType": "uint8",
                  "name": "currentRound",
                  "type": "uint8"
                }
              ],
              "internalType": "struct SquidChain.GameRoom[]",
              "name": "",
              "type": "tuple[]"
            }
          ],
          "stateMutability": "view",
          "type": "function"
        }
      ],
      "evm": {
        "bytecode": {
          "linkReferences": {},
          "object": "60806040523480156200001157600080fd5b50620000fe60016040518060400160405280600a81526020017f506c61796572203030310000000000000000000000000000000000000000000081525060405180606001604052806037815260200162004e91603791396040518060400160405280601e81526020017f2f696d616765732f636972636c652d7265642d707265766965772e706e670000815250600367ffffffffffffffff811115620000bc57620000bb620010eb565b5b604051908082528060200260200182016040528015620000f157816020015b6060815260200190600190039081620000db5790505b5062000ea060201b60201c565b620001ea60026040518060400160405280600a81526020017f506c61796572203036370000000000000000000000000000000000000000000081525060405180606001604052806038815260200162004de7603891396040518060400160405280602081526020017f2f696d616765732f747269616e676c652d7265642d707265766965772e706e67815250600367ffffffffffffffff811115620001a857620001a7620010eb565b5b604051908082528060200260200182016040528015620001dd57816020015b6060815260200190600190039081620001c75790505b5062000ea060201b60201c565b620002d660036040518060400160405280600a81526020017f506c61796572203435360000000000000000000000000000000000000000000081525060405180608001604052806041815260200162004da6604191396040518060400160405280601e81526020017f2f696d616765732f636972636c652d7265642d707265766965772e706e670000815250600367ffffffffffffffff811115620002945762000293620010eb565b5b604051908082528060200260200182016040528015620002c957816020015b6060815260200190600190039081620002b35790505b5062000ea060201b60201c565b620003c260046040518060400160405280600a81526020017f506c6179657220323138000000000000000000000000000000000000000000008152506040518060800160405280604d815260200162004d15604d91396040518060400160405280601e81526020017f2f696d616765732f7371756172652d7265642d707265766965772e706e670000815250600367ffffffffffffffff81111562000380576200037f620010eb565b5b604051908082528060200260200182016040528015620003b557816020015b60608152602001906001900390816200039f5790505b5062000ea060201b60201c565b620004ae60056040518060400160405280600a81526020017f506c61796572203139390000000000000000000000000000000000000000000081525060405180608001604052806044815260200162004d62604491396040518060400160405280601e81526020017f2f696d616765732f636972636c652d7265642d707265766965772e706e670000815250600367ffffffffffffffff8111156200046c576200046b620010eb565b5b604051908082528060200260200182016040528015620004a157816020015b60608152602001906001900390816200048b5790505b5062000ea060201b60201c565b6200059a60066040518060400160405280600a81526020017f506c6179657220313031000000000000000000000000000000000000000000008152506040518060600160405280603d815260200162004e54603d91396040518060400160405280602081526020017f2f696d616765732f747269616e676c652d7265642d707265766965772e706e67815250600367ffffffffffffffff811115620005585762000557620010eb565b5b6040519080825280602002602001820160405280156200058d57816020015b6060815260200190600190039081620005775790505b5062000ea060201b60201c565b6200068660076040518060400160405280600a81526020017f506c61796572203231320000000000000000000000000000000000000000000081525060405180606001604052806037815260200162004cde603791396040518060400160405280601e81526020017f2f696d616765732f7371756172652d7265642d707265766965772e706e670000815250600367ffffffffffffffff811115620006445762000643620010eb565b5b6040519080825280602002602001820160405280156200067957816020015b6060815260200190600190039081620006635790505b5062000ea060201b60201c565b6200077260086040518060400160405280600a81526020017f506c61796572203234300000000000000000000000000000000000000000000081525060405180606001604052806035815260200162004e1f603591396040518060400160405280601e81526020017f2f696d616765732f636972636c652d7265642d707265766965772e706e670000815250600367ffffffffffffffff81111562000730576200072f620010eb565b5b6040519080825280602002602001820160405280156200076557816020015b60608152602001906001900390816200074f5790505b5062000ea060201b60201c565b60405180606001604052806040518060400160405280600a81526020017f4d61737465726d696e640000000000000000000000000000000000000000000081525081526020016040518060400160405280601081526020017f4465636570746976656c79205765616b0000000000000000000000000000000081525081526020016040518060400160405280600781526020017f43756e6e696e670000000000000000000000000000000000000000000000000081525081525060036000600160ff1681526020019081526020016000206004019060036200085692919062000f9e565b5060405180606001604052806040518060400160405280600b81526020017f5265736f7572636566756c00000000000000000000000000000000000000000081525081526020016040518060400160405280600581526020017f427261766500000000000000000000000000000000000000000000000000000081525081526020016040518060400160405280600781526020017f456c75736976650000000000000000000000000000000000000000000000000081525081525060036000600260ff1681526020019081526020016000206004019060036200093b92919062000f9e565b5060405180606001604052806040518060400160405280600581526020017f4c75636b7900000000000000000000000000000000000000000000000000000081525081526020016040518060400160405280600a81526020017f456d70617468657469630000000000000000000000000000000000000000000081525081526020016040518060400160405280600d81526020017f556e7072656469637461626c650000000000000000000000000000000000000081525081525060036000600360ff16815260200190815260200160002060040190600362000a2092919062000f9e565b5060405180606001604052806040518060400160405280600b81526020017f43616c63756c6174696e6700000000000000000000000000000000000000000081525081526020016040518060400160405280600c81526020017f4d616e6970756c6174697665000000000000000000000000000000000000000081525081526020016040518060400160405280600a81526020017f44657465726d696e65640000000000000000000000000000000000000000000081525081525060036000600460ff16815260200190815260200160002060040190600362000b0592919062000f9e565b5060405180606001604052806040518060400160405280600681526020017f5374726f6e67000000000000000000000000000000000000000000000000000081525081526020016040518060400160405280600b81526020017f5472757374776f7274687900000000000000000000000000000000000000000081525081526020016040518060400160405280600581526020017f4e6169766500000000000000000000000000000000000000000000000000000081525081525060036000600560ff16815260200190815260200160002060040190600362000bea92919062000f9e565b5060405180606001604052806040518060400160405280600a81526020017f416767726573736976650000000000000000000000000000000000000000000081525081526020016040518060400160405280600d81526020017f556e7072656469637461626c650000000000000000000000000000000000000081525081526020016040518060400160405280600881526020017f527574686c65737300000000000000000000000000000000000000000000000081525081525060036000600660ff16815260200190815260200160002060040190600362000ccf92919062000f9e565b5060405180606001604052806040518060400160405280600c81526020017f4d616e6970756c6174697665000000000000000000000000000000000000000081525081526020016040518060400160405280600a81526020017f466c616d626f79616e740000000000000000000000000000000000000000000081525081526020016040518060400160405280600881526020017f5375727669766f7200000000000000000000000000000000000000000000000081525081525060036000600760ff16815260200190815260200160002060040190600362000db492919062000f9e565b5060405180606001604052806040518060400160405280600881526020017f53656c666c65737300000000000000000000000000000000000000000000000081525081526020016040518060400160405280600a81526020017f436f75726167656f75730000000000000000000000000000000000000000000081525081526020016040518060400160405280600581526020017f4c6f79616c00000000000000000000000000000000000000000000000000000081525081525060036000600860ff16815260200190815260200160002060040190600362000e9992919062000f9e565b506200144c565b6040518060c001604052808660ff16815260200185815260200184815260200183815260200182815260200160001515815250600360008760ff1660ff16815260200190815260200160002060008201518160000160006101000a81548160ff021916908360ff160217905550602082015181600101908162000f24919062001365565b50604082015181600201908162000f3c919062001365565b50606082015181600301908162000f54919062001365565b50608082015181600401908051906020019062000f7392919062000ffe565b5060a08201518160050160006101000a81548160ff0219169083151502179055509050505050505050565b82805482825590600052602060002090810192821562000feb579160200282015b8281111562000fea57825182908162000fd9919062001365565b509160200191906001019062000fbf565b5b50905062000ffa91906200105e565b5090565b8280548282559060005260206000209081019282156200104b579160200282015b828111156200104a57825182908162001039919062001365565b50916020019190600101906200101f565b5b5090506200105a91906200105e565b5090565b5b8082111562001082576000818162001078919062001086565b506001016200105f565b5090565b508054620010949062001154565b6000825580601f10620010a85750620010c9565b601f016020900490600052602060002090810190620010c89190620010cc565b5b50565b5b80821115620010e7576000816000905550600101620010cd565b5090565b7f4e487b7100000000000000000000000000000000000000000000000000000000600052604160045260246000fd5b600081519050919050565b7f4e487b7100000000000000000000000000000000000000000000000000000000600052602260045260246000fd5b600060028204905060018216806200116d57607f821691505b60208210810362001183576200118262001125565b5b50919050565b60008190508160005260206000209050919050565b60006020601f8301049050919050565b600082821b905092915050565b600060088302620011ed7fffffffffffffffffffffffffffffffffffffffffffffffffffffffffffffffff82620011ae565b620011f98683620011ae565b95508019841693508086168417925050509392505050565b6000819050919050565b6000819050919050565b600062001246620012406200123a8462001211565b6200121b565b62001211565b9050919050565b6000819050919050565b620012628362001225565b6200127a62001271826200124d565b848454620011bb565b825550505050565b600090565b6200129162001282565b6200129e81848462001257565b505050565b5b81811015620012c657620012ba60008262001287565b600181019050620012a4565b5050565b601f8211156200131557620012df8162001189565b620012ea846200119e565b81016020851015620012fa578190505b6200131262001309856200119e565b830182620012a3565b50505b505050565b600082821c905092915050565b60006200133a600019846008026200131a565b1980831691505092915050565b600062001355838362001327565b9150826002028217905092915050565b62001370826200111a565b67ffffffffffffffff8111156200138c576200138b620010eb565b5b62001398825462001154565b620013a5828285620012ca565b600060209050601f831160018114620013dd5760008415620013c8578287015190505b620013d4858262001347565b86555062001444565b601f198416620013ed8662001189565b60005b828110156200141757848901518255600182019150602085019450602081019050620013f0565b8683101562001437578489015162001433601f89168262001327565b8355505b6001600288020188555050505b505050505050565b613882806200145c6000396000f3fe608060405234801561001057600080fd5b50600436106100f55760003560e01c806351159abb11610097578063973022be11610066578063973022be146102c3578063e87c0ee6146102f7578063f1018f5414610315578063fa0cb95b14610348576100f5565b806351159abb1461021757806358275bff146102475780635b875aca146102635780636ae0770f14610293576100f5565b80633953da4c116100d35780633953da4c1461017d5780633cb96450146101ad5780634d1975b4146101c95780634eaf436b146101e7576100f5565b806304ed4fc9146100fa5780630b66bcaf1461012d5780631bc6409214610149575b600080fd5b610114600480360381019061010f91906125db565b610378565b60405161012494939291906126da565b60405180910390f35b61014760048036038101906101429190612838565b61046d565b005b610163600480360381019061015e9190612959565b610563565b6040516101749594939291906129b5565b60405180910390f35b610197600480360381019061019291906125db565b61077e565b6040516101a49190612ca7565b60405180910390f35b6101c760048036038101906101c29190612d8c565b610c63565b005b6101d1611322565b6040516101de9190612e04565b60405180910390f35b61020160048036038101906101fc91906125db565b611333565b60405161020e9190612e82565b60405180910390f35b610231600480360381019061022c91906125db565b611450565b60405161023e9190612ca7565b60405180910390f35b610261600480360381019061025c9190612ea4565b611933565b005b61027d60048036038101906102789190612f5e565b611b37565b60405161028a91906130b0565b60405180910390f35b6102ad60048036038101906102a891906130d2565b611cba565b6040516102ba919061312e565b60405180910390f35b6102dd60048036038101906102d89190613149565b611cff565b6040516102ee9594939291906129b5565b60405180910390f35b6102ff611ee7565b60405161030c9190612e04565b60405180910390f35b61032f600480360381019061032a9190613176565b611efd565b60405161033f94939291906126da565b60405180910390f35b610362600480360381019061035d91906125db565b611ff9565b60405161036f9190612ca7565b60405180910390f35b6002818051602081018201805184825260208301602085012081835280955050505050506000915090508060000180546103b1906131e5565b80601f01602080910402602001604051908101604052809291908181526020018280546103dd906131e5565b801561042a5780601f106103ff5761010080835404028352916020019161042a565b820191906000526020600020905b81548152906001019060200180831161040d57829003601f168201915b5050505050908060010160009054906101000a900460ff16908060010160019054906101000a900460ff16908060010160029054906101000a900460ff16905084565b6040518060c001604052808660ff16815260200185815260200184815260200183815260200182815260200160001515815250600360008760ff1660ff16815260200190815260200160002060008201518160000160006101000a81548160ff021916908360ff16021790555060208201518160010190816104ef91906133c2565b50604082015181600201908161050591906133c2565b50606082015181600301908161051b91906133c2565b50608082015181600401908051906020019061053892919061233d565b5060a08201518160050160006101000a81548160ff0219169083151502179055509050505050505050565b600582805160208101820180518482526020830160208501208183528095505050505050818154811061059557600080fd5b9060005260206000209060060201600091509150508060000160009054906101000a900460ff16908060010180546105cc906131e5565b80601f01602080910402602001604051908101604052809291908181526020018280546105f8906131e5565b80156106455780601f1061061a57610100808354040283529160200191610645565b820191906000526020600020905b81548152906001019060200180831161062857829003601f168201915b50505050509080600201805461065a906131e5565b80601f0160208091040260200160405190810160405280929190818152602001828054610686906131e5565b80156106d35780601f106106a8576101008083540402835291602001916106d3565b820191906000526020600020905b8154815290600101906020018083116106b657829003601f168201915b5050505050908060030180546106e8906131e5565b80601f0160208091040260200160405190810160405280929190818152602001828054610714906131e5565b80156107615780601f1061073657610100808354040283529160200191610761565b820191906000526020600020905b81548152906001019060200180831161074457829003601f168201915b5050505050908060050160009054906101000a900460ff16905085565b6060600060058360405161079291906134d0565b908152602001604051809103902090506000805b8280549050811015610847576004856040516107c291906134d0565b908152602001604051809103902060008483815481106107e5576107e46134e7565b5b906000526020600020906006020160000160009054906101000a900460ff1660ff1660ff16815260200190815260200160002060009054906101000a900460ff161561083a57818061083690613545565b9250505b80806001019150506107a6565b5060008167ffffffffffffffff811115610864576108636124b0565b5b60405190808252806020026020018201604052801561089d57816020015b61088a612396565b8152602001906001900390816108825790505b5090506000805b8480549050811015610c56576004876040516108c091906134d0565b908152602001604051809103902060008683815481106108e3576108e26134e7565b5b906000526020600020906006020160000160009054906101000a900460ff1660ff1660ff16815260200190815260200160002060009054906101000a900460ff1615610c495784818154811061093c5761093b6134e7565b5b90600052602060002090600602016040518060c00160405290816000820160009054906101000a900460ff1660ff1660ff168152602001600182018054610982906131e5565b80601f01602080910402602001604051908101604052809291908181526020018280546109ae906131e5565b80156109fb5780601f106109d0576101008083540402835291602001916109fb565b820191906000526020600020905b8154815290600101906020018083116109de57829003601f168201915b50505050508152602001600282018054610a14906131e5565b80601f0160208091040260200160405190810160405280929190818152602001828054610a40906131e5565b8015610a8d5780601f10610a6257610100808354040283529160200191610a8d565b820191906000526020600020905b815481529060010190602001808311610a7057829003601f168201915b50505050508152602001600382018054610aa6906131e5565b80601f0160208091040260200160405190810160405280929190818152602001828054610ad2906131e5565b8015610b1f5780601f10610af457610100808354040283529160200191610b1f565b820191906000526020600020905b815481529060010190602001808311610b0257829003601f168201915b5050505050815260200160048201805480602002602001604051908101604052809291908181526020016000905b82821015610bf9578382906000526020600020018054610b6c906131e5565b80601f0160208091040260200160405190810160405280929190818152602001828054610b98906131e5565b8015610be55780601f10610bba57610100808354040283529160200191610be5565b820191906000526020600020905b815481529060010190602001808311610bc857829003601f168201915b505050505081526020019060010190610b4d565b5050505081526020016005820160009054906101000a900460ff161515151581525050838381518110610c2f57610c2e6134e7565b5b60200260200101819052508180610c4590613545565b9250505b80806001019150506108a4565b5081945050505050919050565b60008081819054906101000a900460ff1680929190610c819061358d565b91906101000a81548160ff021916908360ff160217905550506000600282604051610cac91906134d0565b9081526020016040518091039020905081816000019081610ccd91906133c2565b5060008160010160006101000a81548160ff02191690831515021790555060008160010160016101000a81548160ff02191690831515021790555060008160010160026101000a81548160ff021916908360ff16021790555060005b835181101561121457600060036000868481518110610d4b57610d4a6134e7565b5b602002602001015160ff1660ff16815260200190815260200160002060000160009054906101000a900460ff1660ff1603610dbb576040517f08c379a0000000000000000000000000000000000000000000000000000000008152600401610db290613602565b60405180910390fd5b600060036000868481518110610dd457610dd36134e7565b5b602002602001015160ff1660ff1681526020019081526020016000206040518060c00160405290816000820160009054906101000a900460ff1660ff1660ff168152602001600182018054610e28906131e5565b80601f0160208091040260200160405190810160405280929190818152602001828054610e54906131e5565b8015610ea15780601f10610e7657610100808354040283529160200191610ea1565b820191906000526020600020905b815481529060010190602001808311610e8457829003601f168201915b50505050508152602001600282018054610eba906131e5565b80601f0160208091040260200160405190810160405280929190818152602001828054610ee6906131e5565b8015610f335780601f10610f0857610100808354040283529160200191610f33565b820191906000526020600020905b815481529060010190602001808311610f1657829003601f168201915b50505050508152602001600382018054610f4c906131e5565b80601f0160208091040260200160405190810160405280929190818152602001828054610f78906131e5565b8015610fc55780601f10610f9a57610100808354040283529160200191610fc5565b820191906000526020600020905b815481529060010190602001808311610fa857829003601f168201915b5050505050815260200160048201805480602002602001604051908101604052809291908181526020016000905b8282101561109f578382906000526020600020018054611012906131e5565b80601f016020809104026020016040519081016040528092919081815260200182805461103e906131e5565b801561108b5780601f106110605761010080835404028352916020019161108b565b820191906000526020600020905b81548152906001019060200180831161106e57829003601f168201915b505050505081526020019060010190610ff3565b5050505081526020016005820160009054906101000a900460ff16151515158152505090506005836000016040516110d791906136a5565b908152602001604051809103902081908060018154018082558091505060019003906000526020600020906006020160009091909190915060008201518160000160006101000a81548160ff021916908360ff160217905550602082015181600101908161114591906133c2565b50604082015181600201908161115b91906133c2565b50606082015181600301908161117191906133c2565b50608082015181600401908051906020019061118e92919061233d565b5060a08201518160050160006101000a81548160ff021916908315150217905550505060006004846000016040516111c691906136a5565b90815260200160405180910390206000836000015160ff1660ff16815260200190815260200160002060006101000a81548160ff021916908315150217905550508080600101915050610d29565b50600160003373ffffffffffffffffffffffffffffffffffffffff1673ffffffffffffffffffffffffffffffffffffffff1681526020019081526020016000208190806001815401808255809150506001900390600052602060002090600202016000909190919091506000820181600001908161129291906136d2565b506001820160009054906101000a900460ff168160010160006101000a81548160ff0219169083151502179055506001820160019054906101000a900460ff168160010160016101000a81548160ff0219169083151502179055506001820160029054906101000a900460ff168160010160026101000a81548160ff021916908360ff1602179055505050505050565b60008054906101000a900460ff1681565b61133b6123d1565b60028260405161134b91906134d0565b9081526020016040518091039020604051806080016040529081600082018054611374906131e5565b80601f01602080910402602001604051908101604052809291908181526020018280546113a0906131e5565b80156113ed5780601f106113c2576101008083540402835291602001916113ed565b820191906000526020600020905b8154815290600101906020018083116113d057829003601f168201915b505050505081526020016001820160009054906101000a900460ff161515151581526020016001820160019054906101000a900460ff161515151581526020016001820160029054906101000a900460ff1660ff1660ff16815250509050919050565b6060600060058360405161146491906134d0565b908152602001604051809103902090506000805b82805490508110156115185760048560405161149491906134d0565b908152602001604051809103902060008483815481106114b7576114b66134e7565b5b906000526020600020906006020160000160009054906101000a900460ff1660ff1660ff16815260200190815260200160002060009054906101000a900460ff1661150b57818061150790613545565b9250505b8080600101915050611478565b5060008167ffffffffffffffff811115611535576115346124b0565b5b60405190808252806020026020018201604052801561156e57816020015b61155b612396565b8152602001906001900390816115535790505b5090506000805b84805490508110156119265760048760405161159191906134d0565b908152602001604051809103902060008683815481106115b4576115b36134e7565b5b906000526020600020906006020160000160009054906101000a900460ff1660ff1660ff16815260200190815260200160002060009054906101000a900460ff166119195784818154811061160c5761160b6134e7565b5b90600052602060002090600602016040518060c00160405290816000820160009054906101000a900460ff1660ff1660ff168152602001600182018054611652906131e5565b80601f016020809104026020016040519081016040528092919081815260200182805461167e906131e5565b80156116cb5780601f106116a0576101008083540402835291602001916116cb565b820191906000526020600020905b8154815290600101906020018083116116ae57829003601f168201915b505050505081526020016002820180546116e4906131e5565b80601f0160208091040260200160405190810160405280929190818152602001828054611710906131e5565b801561175d5780601f106117325761010080835404028352916020019161175d565b820191906000526020600020905b81548152906001019060200180831161174057829003601f168201915b50505050508152602001600382018054611776906131e5565b80601f01602080910402602001604051908101604052809291908181526020018280546117a2906131e5565b80156117ef5780601f106117c4576101008083540402835291602001916117ef565b820191906000526020600020905b8154815290600101906020018083116117d257829003601f168201915b5050505050815260200160048201805480602002602001604051908101604052809291908181526020016000905b828210156118c957838290600052602060002001805461183c906131e5565b80601f0160208091040260200160405190810160405280929190818152602001828054611868906131e5565b80156118b55780601f1061188a576101008083540402835291602001916118b5565b820191906000526020600020905b81548152906001019060200180831161189857829003601f168201915b50505050508152602001906001019061181d565b5050505081526020016005820160009054906101000a900460ff1615151515815250508383815181106118ff576118fe6134e7565b5b6020026020010181905250818061191590613545565b9250505b8080600101915050611575565b5081945050505050919050565b6000600360008460ff1660ff16815260200190815260200160002060000160009054906101000a900460ff1660ff16036119a2576040517f08c379a000000000000000000000000000000000000000000000000000000000815260040161199990613602565b60405180910390fd5b6004816040516119b291906134d0565b908152602001604051809103902060008360ff1660ff16815260200190815260200160002060009054906101000a900460ff1615611a25576040517f08c379a0000000000000000000000000000000000000000000000000000000008152600401611a1c9061382c565b60405180910390fd5b6000600582604051611a3791906134d0565b9081526020016040518091039020905060005b8180549050811015611b31578360ff16828281548110611a6d57611a6c6134e7565b5b906000526020600020906006020160000160009054906101000a900460ff1660ff1603611b24576001828281548110611aa957611aa86134e7565b5b906000526020600020906006020160050160006101000a81548160ff0219169083151502179055506001600484604051611ae391906134d0565b908152602001604051809103902060008660ff1660ff16815260200190815260200160002060006101000a81548160ff021916908315150217905550611b31565b8080600101915050611a4a565b50505050565b6060600160008373ffffffffffffffffffffffffffffffffffffffff1673ffffffffffffffffffffffffffffffffffffffff168152602001908152602001600020805480602002602001604051908101604052809291908181526020016000905b82821015611caf5783829060005260206000209060020201604051806080016040529081600082018054611bcb906131e5565b80601f0160208091040260200160405190810160405280929190818152602001828054611bf7906131e5565b8015611c445780601f10611c1957610100808354040283529160200191611c44565b820191906000526020600020905b815481529060010190602001808311611c2757829003601f168201915b505050505081526020016001820160009054906101000a900460ff161515151581526020016001820160019054906101000a900460ff161515151581526020016001820160029054906101000a900460ff1660ff1660ff168152505081526020019060010190611b98565b505050509050919050565b6004828051602081018201805184825260208301602085012081835280955050505050506020528060005260406000206000915091509054906101000a900460ff1681565b60036020528060005260406000206000915090508060000160009054906101000a900460ff1690806001018054611d35906131e5565b80601f0160208091040260200160405190810160405280929190818152602001828054611d61906131e5565b8015611dae5780601f10611d8357610100808354040283529160200191611dae565b820191906000526020600020905b815481529060010190602001808311611d9157829003601f168201915b505050505090806002018054611dc3906131e5565b80601f0160208091040260200160405190810160405280929190818152602001828054611def906131e5565b8015611e3c5780601f10611e1157610100808354040283529160200191611e3c565b820191906000526020600020905b815481529060010190602001808311611e1f57829003601f168201915b505050505090806003018054611e51906131e5565b80601f0160208091040260200160405190810160405280929190818152602001828054611e7d906131e5565b8015611eca5780601f10611e9f57610100808354040283529160200191611eca565b820191906000526020600020905b815481529060010190602001808311611ead57829003601f168201915b5050505050908060050160009054906101000a900460ff16905085565b60008060009054906101000a900460ff16905090565b60016020528160005260406000208181548110611f1957600080fd5b906000526020600020906002020160009150915050806000018054611f3d906131e5565b80601f0160208091040260200160405190810160405280929190818152602001828054611f69906131e5565b8015611fb65780601f10611f8b57610100808354040283529160200191611fb6565b820191906000526020600020905b815481529060010190602001808311611f9957829003601f168201915b5050505050908060010160009054906101000a900460ff16908060010160019054906101000a900460ff16908060010160029054906101000a900460ff16905084565b606060058260405161200b91906134d0565b9081526020016040518091039020805480602002602001604051908101604052809291908181526020016000905b8282101561233257838290600052602060002090600602016040518060c00160405290816000820160009054906101000a900460ff1660ff1660ff168152602001600182018054612089906131e5565b80601f01602080910402602001604051908101604052809291908181526020018280546120b5906131e5565b80156121025780601f106120d757610100808354040283529160200191612102565b820191906000526020600020905b8154815290600101906020018083116120e557829003601f168201915b5050505050815260200160028201805461211b906131e5565b80601f0160208091040260200160405190810160405280929190818152602001828054612147906131e5565b80156121945780601f1061216957610100808354040283529160200191612194565b820191906000526020600020905b81548152906001019060200180831161217757829003601f168201915b505050505081526020016003820180546121ad906131e5565b80601f01602080910402602001604051908101604052809291908181526020018280546121d9906131e5565b80156122265780601f106121fb57610100808354040283529160200191612226565b820191906000526020600020905b81548152906001019060200180831161220957829003601f168201915b5050505050815260200160048201805480602002602001604051908101604052809291908181526020016000905b82821015612300578382906000526020600020018054612273906131e5565b80601f016020809104026020016040519081016040528092919081815260200182805461229f906131e5565b80156122ec5780601f106122c1576101008083540402835291602001916122ec565b820191906000526020600020905b8154815290600101906020018083116122cf57829003601f168201915b505050505081526020019060010190612254565b5050505081526020016005820160009054906101000a900460ff16151515158152505081526020019060010190612039565b505050509050919050565b828054828255906000526020600020908101928215612385579160200282015b8281111561238457825182908161237491906133c2565b509160200191906001019061235d565b5b5090506123929190612400565b5090565b6040518060c00160405280600060ff168152602001606081526020016060815260200160608152602001606081526020016000151581525090565b604051806080016040528060608152602001600015158152602001600015158152602001600060ff1681525090565b5b8082111561242057600081816124179190612424565b50600101612401565b5090565b508054612430906131e5565b6000825580601f106124425750612461565b601f0160209004906000526020600020908101906124609190612464565b5b50565b5b8082111561247d576000816000905550600101612465565b5090565b6000604051905090565b600080fd5b600080fd5b600080fd5b600080fd5b6000601f19601f8301169050919050565b7f4e487b7100000000000000000000000000000000000000000000000000000000600052604160045260246000fd5b6124e88261249f565b810181811067ffffffffffffffff82111715612507576125066124b0565b5b80604052505050565b600061251a612481565b905061252682826124df565b919050565b600067ffffffffffffffff821115612546576125456124b0565b5b61254f8261249f565b9050602081019050919050565b82818337600083830152505050565b600061257e6125798461252b565b612510565b90508281526020810184848401111561259a5761259961249a565b5b6125a584828561255c565b509392505050565b600082601f8301126125c2576125c1612495565b5b81356125d284826020860161256b565b91505092915050565b6000602082840312156125f1576125f061248b565b5b600082013567ffffffffffffffff81111561260f5761260e612490565b5b61261b848285016125ad565b91505092915050565b600081519050919050565b600082825260208201905092915050565b60005b8381101561265e578082015181840152602081019050612643565b60008484015250505050565b600061267582612624565b61267f818561262f565b935061268f818560208601612640565b6126988161249f565b840191505092915050565b60008115159050919050565b6126b8816126a3565b82525050565b600060ff82169050919050565b6126d4816126be565b82525050565b600060808201905081810360008301526126f4818761266a565b905061270360208301866126af565b61271060408301856126af565b61271d60608301846126cb565b95945050505050565b61272f816126be565b811461273a57600080fd5b50565b60008135905061274c81612726565b92915050565b600067ffffffffffffffff82111561276d5761276c6124b0565b5b602082029050602081019050919050565b600080fd5b600061279661279184612752565b612510565b905080838252602082019050602084028301858111156127b9576127b861277e565b5b835b8181101561280057803567ffffffffffffffff8111156127de576127dd612495565b5b8086016127eb89826125ad565b855260208501945050506020810190506127bb565b5050509392505050565b600082601f83011261281f5761281e612495565b5b813561282f848260208601612783565b91505092915050565b600080600080600060a086880312156128545761285361248b565b5b60006128628882890161273d565b955050602086013567ffffffffffffffff81111561288357612882612490565b5b61288f888289016125ad565b945050604086013567ffffffffffffffff8111156128b0576128af612490565b5b6128bc888289016125ad565b935050606086013567ffffffffffffffff8111156128dd576128dc612490565b5b6128e9888289016125ad565b925050608086013567ffffffffffffffff81111561290a57612909612490565b5b6129168882890161280a565b9150509295509295909350565b6000819050919050565b61293681612923565b811461294157600080fd5b50565b6000813590506129538161292d565b92915050565b600080604083850312156129705761296f61248b565b5b600083013567ffffffffffffffff81111561298e5761298d612490565b5b61299a858286016125ad565b92505060206129ab85828601612944565b9150509250929050565b600060a0820190506129ca60008301886126cb565b81810360208301526129dc818761266a565b905081810360408301526129f0818661266a565b90508181036060830152612a04818561266a565b9050612a1360808301846126af565b9695505050505050565b600081519050919050565b600082825260208201905092915050565b6000819050602082019050919050565b612a52816126be565b82525050565b600082825260208201905092915050565b6000612a7482612624565b612a7e8185612a58565b9350612a8e818560208601612640565b612a978161249f565b840191505092915050565b600081519050919050565b600082825260208201905092915050565b6000819050602082019050919050565b6000612ada8383612a69565b905092915050565b6000602082019050919050565b6000612afa82612aa2565b612b048185612aad565b935083602082028501612b1685612abe565b8060005b85811015612b525784840389528151612b338582612ace565b9450612b3e83612ae2565b925060208a01995050600181019050612b1a565b50829750879550505050505092915050565b612b6d816126a3565b82525050565b600060c083016000830151612b8b6000860182612a49565b5060208301518482036020860152612ba38282612a69565b91505060408301518482036040860152612bbd8282612a69565b91505060608301518482036060860152612bd78282612a69565b91505060808301518482036080860152612bf18282612aef565b91505060a0830151612c0660a0860182612b64565b508091505092915050565b6000612c1d8383612b73565b905092915050565b6000602082019050919050565b6000612c3d82612a1d565b612c478185612a28565b935083602082028501612c5985612a39565b8060005b85811015612c955784840389528151612c768582612c11565b9450612c8183612c25565b925060208a01995050600181019050612c5d565b50829750879550505050505092915050565b60006020820190508181036000830152612cc18184612c32565b905092915050565b600067ffffffffffffffff821115612ce457612ce36124b0565b5b602082029050602081019050919050565b6000612d08612d0384612cc9565b612510565b90508083825260208201905060208402830185811115612d2b57612d2a61277e565b5b835b81811015612d545780612d40888261273d565b845260208401935050602081019050612d2d565b5050509392505050565b600082601f830112612d7357612d72612495565b5b8135612d83848260208601612cf5565b91505092915050565b60008060408385031215612da357612da261248b565b5b600083013567ffffffffffffffff811115612dc157612dc0612490565b5b612dcd85828601612d5e565b925050602083013567ffffffffffffffff811115612dee57612ded612490565b5b612dfa858286016125ad565b9150509250929050565b6000602082019050612e1960008301846126cb565b92915050565b60006080830160008301518482036000860152612e3c8282612a69565b9150506020830151612e516020860182612b64565b506040830151612e646040860182612b64565b506060830151612e776060860182612a49565b508091505092915050565b60006020820190508181036000830152612e9c8184612e1f565b905092915050565b60008060408385031215612ebb57612eba61248b565b5b6000612ec98582860161273d565b925050602083013567ffffffffffffffff811115612eea57612ee9612490565b5b612ef6858286016125ad565b9150509250929050565b600073ffffffffffffffffffffffffffffffffffffffff82169050919050565b6000612f2b82612f00565b9050919050565b612f3b81612f20565b8114612f4657600080fd5b50565b600081359050612f5881612f32565b92915050565b600060208284031215612f7457612f7361248b565b5b6000612f8284828501612f49565b91505092915050565b600081519050919050565b600082825260208201905092915050565b6000819050602082019050919050565b60006080830160008301518482036000860152612fd48282612a69565b9150506020830151612fe96020860182612b64565b506040830151612ffc6040860182612b64565b50606083015161300f6060860182612a49565b508091505092915050565b60006130268383612fb7565b905092915050565b6000602082019050919050565b600061304682612f8b565b6130508185612f96565b93508360208202850161306285612fa7565b8060005b8581101561309e578484038952815161307f858261301a565b945061308a8361302e565b925060208a01995050600181019050613066565b50829750879550505050505092915050565b600060208201905081810360008301526130ca818461303b565b905092915050565b600080604083850312156130e9576130e861248b565b5b600083013567ffffffffffffffff81111561310757613106612490565b5b613113858286016125ad565b92505060206131248582860161273d565b9150509250929050565b600060208201905061314360008301846126af565b92915050565b60006020828403121561315f5761315e61248b565b5b600061316d8482850161273d565b91505092915050565b6000806040838503121561318d5761318c61248b565b5b600061319b85828601612f49565b92505060206131ac85828601612944565b9150509250929050565b7f4e487b7100000000000000000000000000000000000000000000000000000000600052602260045260246000fd5b600060028204905060018216806131fd57607f821691505b6020821081036132105761320f6131b6565b5b50919050565b60008190508160005260206000209050919050565b60006020601f8301049050919050565b600082821b905092915050565b6000600883026132787fffffffffffffffffffffffffffffffffffffffffffffffffffffffffffffffff8261323b565b613282868361323b565b95508019841693508086168417925050509392505050565b6000819050919050565b60006132bf6132ba6132b584612923565b61329a565b612923565b9050919050565b6000819050919050565b6132d9836132a4565b6132ed6132e5826132c6565b848454613248565b825550505050565b600090565b6133026132f5565b61330d8184846132d0565b505050565b5b81811015613331576133266000826132fa565b600181019050613313565b5050565b601f8211156133765761334781613216565b6133508461322b565b8101602085101561335f578190505b61337361336b8561322b565b830182613312565b50505b505050565b600082821c905092915050565b60006133996000198460080261337b565b1980831691505092915050565b60006133b28383613388565b9150826002028217905092915050565b6133cb82612624565b67ffffffffffffffff8111156133e4576133e36124b0565b5b6133ee82546131e5565b6133f9828285613335565b600060209050601f83116001811461342c576000841561341a578287015190505b61342485826133a6565b86555061348c565b601f19841661343a86613216565b60005b828110156134625784890151825560018201915060208501945060208101905061343d565b8683101561347f578489015161347b601f891682613388565b8355505b6001600288020188555050505b505050505050565b600081905092915050565b60006134aa82612624565b6134b48185613494565b93506134c4818560208601612640565b80840191505092915050565b60006134dc828461349f565b915081905092915050565b7f4e487b7100000000000000000000000000000000000000000000000000000000600052603260045260246000fd5b7f4e487b7100000000000000000000000000000000000000000000000000000000600052601160045260246000fd5b600061355082612923565b91507fffffffffffffffffffffffffffffffffffffffffffffffffffffffffffffffff820361358257613581613516565b5b600182019050919050565b6000613598826126be565b915060ff82036135ab576135aa613516565b5b600182019050919050565b7f4167656e7420646f6573206e6f74206578697374000000000000000000000000600082015250565b60006135ec60148361262f565b91506135f7826135b6565b602082019050919050565b6000602082019050818103600083015261361b816135df565b9050919050565b6000815461362f816131e5565b6136398186613494565b9450600182166000811461365457600181146136695761369c565b60ff198316865281151582028601935061369c565b61367285613216565b60005b8381101561369457815481890152600182019150602081019050613675565b838801955050505b50505092915050565b60006136b18284613622565b915081905092915050565b6000815490506136cb816131e5565b9050919050565b8181036136e05750506137b8565b6136e9826136bc565b67ffffffffffffffff811115613702576137016124b0565b5b61370c82546131e5565b613717828285613335565b6000601f8311600181146137465760008415613734578287015490505b61373e85826133a6565b8655506137b1565b601f19841661375487613216565b965061375f86613216565b60005b8281101561378757848901548255600182019150600185019450602081019050613762565b868310156137a457848901546137a0601f891682613388565b8355505b6001600288020188555050505b5050505050505b565b7f4167656e7420697320616c726561647920656c696d696e6174656420696e207460008201527f6869732067616d65000000000000000000000000000000000000000000000000602082015250565b600061381660288361262f565b9150613821826137ba565b604082019050919050565b6000602082019050818103600083015261384581613809565b905091905056fea264697066735822122062c52c314c956db89948456f54fe857b41e59ef941e16fd2583a5f082627af9164736f6c6343000818003341206c6f756420616e6420756e7072656469637461626c652077696c64636172642077686f20706c617973206d696e642067616d65732e41206272696c6c69616e7420627574206d6f72616c6c7920636f6e666c696374656420737472617465676973742c2077696c6c696e6720746f20646f20616e797468696e6720746f2077696e2e41206b696e642d68656172746564206d696772616e7420776f726b6572207769746820657863657074696f6e616c20737472656e67746820616e64206c6f79616c74792e5468652064657370657261746520627574206b696e642d686561727465642070726f7461676f6e697374207769746820612067616d626c65722773206c75636b2e412064657465726d696e6564204e6f727468204b6f7265616e206465666563746f722c20736b696c6c656420696e20737572766976616c2e412071756965742062757420627261766520636f6e74657374616e742077697468206120747261676963206261636b73746f72792e412076696f6c656e742067616e6773746572207769746820612073686f72742074656d70657220616e64206120746173746520666f72206368616f732e546865206d7973746572696f757320656c6465726c7920636f6e74657374616e74207769746820612068696464656e206167656e64612e",
          "opcodes": "PUSH1 0x80 PUSH1 0x40 MSTORE CALLVALUE DUP1 ISZERO PUSH3 0x11 JUMPI PUSH1 0x0 DUP1 REVERT JUMPDEST POP PUSH3 0xFE PUSH1 0x1 PUSH1 0x40 MLOAD DUP1 PUSH1 0x40 ADD PUSH1 0x40 MSTORE DUP1 PUSH1 0xA DUP2 MSTORE PUSH1 0x20 ADD PUSH32 0x506C617965722030303100000000000000000000000000000000000000000000 DUP2 MSTORE POP PUSH1 0x40 MLOAD DUP1 PUSH1 0x60 ADD PUSH1 0x40 MSTORE DUP1 PUSH1 0x37 DUP2 MSTORE PUSH1 0x20 ADD PUSH3 0x4E91 PUSH1 0x37 SWAP2 CODECOPY PUSH1 0x40 MLOAD DUP1 PUSH1 0x40 ADD PUSH1 0x40 MSTORE DUP1 PUSH1 0x1E DUP2 MSTORE PUSH1 0x20 ADD PUSH32 0x2F696D616765732F636972636C652D7265642D707265766965772E706E670000 DUP2 MSTORE POP PUSH1 0x3 PUSH8 0xFFFFFFFFFFFFFFFF DUP2 GT ISZERO PUSH3 0xBC JUMPI PUSH3 0xBB PUSH3 0x10EB JUMP JUMPDEST JUMPDEST PUSH1 0x40 MLOAD SWAP1 DUP1 DUP3 MSTORE DUP1 PUSH1 0x20 MUL PUSH1 0x20 ADD DUP3 ADD PUSH1 0x40 MSTORE DUP1 ISZERO PUSH3 0xF1 JUMPI DUP2 PUSH1 0x20 ADD JUMPDEST PUSH1 0x60 DUP2 MSTORE PUSH1 0x20 ADD SWAP1 PUSH1 0x1 SWAP1 SUB SWAP1 DUP2 PUSH3 0xDB JUMPI SWAP1 POP JUMPDEST POP PUSH3 0xEA0 PUSH1 0x20 SHL PUSH1 0x20 SHR JUMP JUMPDEST PUSH3 0x1EA PUSH1 0x2 PUSH1 0x40 MLOAD DUP1 PUSH1 0x40 ADD PUSH1 0x40 MSTORE DUP1 PUSH1 0xA DUP2 MSTORE PUSH1 0x20 ADD PUSH32 0x506C617965722030363700000000000000000000000000000000000000000000 DUP2 MSTORE POP PUSH1 0x40 MLOAD DUP1 PUSH1 0x60 ADD PUSH1 0x40 MSTORE DUP1 PUSH1 0x38 DUP2 MSTORE PUSH1 0x20 ADD PUSH3 0x4DE7 PUSH1 0x38 SWAP2 CODECOPY PUSH1 0x40 MLOAD DUP1 PUSH1 0x40 ADD PUSH1 0x40 MSTORE DUP1 PUSH1 0x20 DUP2 MSTORE PUSH1 0x20 ADD PUSH32 0x2F696D616765732F747269616E676C652D7265642D707265766965772E706E67 DUP2 MSTORE POP PUSH1 0x3 PUSH8 0xFFFFFFFFFFFFFFFF DUP2 GT ISZERO PUSH3 0x1A8 JUMPI PUSH3 0x1A7 PUSH3 0x10EB JUMP JUMPDEST JUMPDEST PUSH1 0x40 MLOAD SWAP1 DUP1 DUP3 MSTORE DUP1 PUSH1 0x20 MUL PUSH1 0x20 ADD DUP3 ADD PUSH1 0x40 MSTORE DUP1 ISZERO PUSH3 0x1DD JUMPI DUP2 PUSH1 0x20 ADD JUMPDEST PUSH1 0x60 DUP2 MSTORE PUSH1 0x20 ADD SWAP1 PUSH1 0x1 SWAP1 SUB SWAP1 DUP2 PUSH3 0x1C7 JUMPI SWAP1 POP JUMPDEST POP PUSH3 0xEA0 PUSH1 0x20 SHL PUSH1 0x20 SHR JUMP JUMPDEST PUSH3 0x2D6 PUSH1 0x3 PUSH1 0x40 MLOAD DUP1 PUSH1 0x40 ADD PUSH1 0x40 MSTORE DUP1 PUSH1 0xA DUP2 MSTORE PUSH1 0x20 ADD PUSH32 0x506C617965722034353600000000000000000000000000000000000000000000 DUP2 MSTORE POP PUSH1 0x40 MLOAD DUP1 PUSH1 0x80 ADD PUSH1 0x40 MSTORE DUP1 PUSH1 0x41 DUP2 MSTORE PUSH1 0x20 ADD PUSH3 0x4DA6 PUSH1 0x41 SWAP2 CODECOPY PUSH1 0x40 MLOAD DUP1 PUSH1 0x40 ADD PUSH1 0x40 MSTORE DUP1 PUSH1 0x1E DUP2 MSTORE PUSH1 0x20 ADD PUSH32 0x2F696D616765732F636972636C652D7265642D707265766965772E706E670000 DUP2 MSTORE POP PUSH1 0x3 PUSH8 0xFFFFFFFFFFFFFFFF DUP2 GT ISZERO PUSH3 0x294 JUMPI PUSH3 0x293 PUSH3 0x10EB JUMP JUMPDEST JUMPDEST PUSH1 0x40 MLOAD SWAP1 DUP1 DUP3 MSTORE DUP1 PUSH1 0x20 MUL PUSH1 0x20 ADD DUP3 ADD PUSH1 0x40 MSTORE DUP1 ISZERO PUSH3 0x2C9 JUMPI DUP2 PUSH1 0x20 ADD JUMPDEST PUSH1 0x60 DUP2 MSTORE PUSH1 0x20 ADD SWAP1 PUSH1 0x1 SWAP1 SUB SWAP1 DUP2 PUSH3 0x2B3 JUMPI SWAP1 POP JUMPDEST POP PUSH3 0xEA0 PUSH1 0x20 SHL PUSH1 0x20 SHR JUMP JUMPDEST PUSH3 0x3C2 PUSH1 0x4 PUSH1 0x40 MLOAD DUP1 PUSH1 0x40 ADD PUSH1 0x40 MSTORE DUP1 PUSH1 0xA DUP2 MSTORE PUSH1 0x20 ADD PUSH32 0x506C617965722032313800000000000000000000000000000000000000000000 DUP2 MSTORE POP PUSH1 0x40 MLOAD DUP1 PUSH1 0x80 ADD PUSH1 0x40 MSTORE DUP1 PUSH1 0x4D DUP2 MSTORE PUSH1 0x20 ADD PUSH3 0x4D15 PUSH1 0x4D SWAP2 CODECOPY PUSH1 0x40 MLOAD DUP1 PUSH1 0x40 ADD PUSH1 0x40 MSTORE DUP1 PUSH1 0x1E DUP2 MSTORE PUSH1 0x20 ADD PUSH32 0x2F696D616765732F7371756172652D7265642D707265766965772E706E670000 DUP2 MSTORE POP PUSH1 0x3 PUSH8 0xFFFFFFFFFFFFFFFF DUP2 GT ISZERO PUSH3 0x380 JUMPI PUSH3 0x37F PUSH3 0x10EB JUMP JUMPDEST JUMPDEST PUSH1 0x40 MLOAD SWAP1 DUP1 DUP3 MSTORE DUP1 PUSH1 0x20 MUL PUSH1 0x20 ADD DUP3 ADD PUSH1 0x40 MSTORE DUP1 ISZERO PUSH3 0x3B5 JUMPI DUP2 PUSH1 0x20 ADD JUMPDEST PUSH1 0x60 DUP2 MSTORE PUSH1 0x20 ADD SWAP1 PUSH1 0x1 SWAP1 SUB SWAP1 DUP2 PUSH3 0x39F JUMPI SWAP1 POP JUMPDEST POP PUSH3 0xEA0 PUSH1 0x20 SHL PUSH1 0x20 SHR JUMP JUMPDEST PUSH3 0x4AE PUSH1 0x5 PUSH1 0x40 MLOAD DUP1 PUSH1 0x40 ADD PUSH1 0x40 MSTORE DUP1 PUSH1 0xA DUP2 MSTORE PUSH1 0x20 ADD PUSH32 0x506C617965722031393900000000000000000000000000000000000000000000 DUP2 MSTORE POP PUSH1 0x40 MLOAD DUP1 PUSH1 0x80 ADD PUSH1 0x40 MSTORE DUP1 PUSH1 0x44 DUP2 MSTORE PUSH1 0x20 ADD PUSH3 0x4D62 PUSH1 0x44 SWAP2 CODECOPY PUSH1 0x40 MLOAD DUP1 PUSH1 0x40 ADD PUSH1 0x40 MSTORE DUP1 PUSH1 0x1E DUP2 MSTORE PUSH1 0x20 ADD PUSH32 0x2F696D616765732F636972636C652D7265642D707265766965772E706E670000 DUP2 MSTORE POP PUSH1 0x3 PUSH8 0xFFFFFFFFFFFFFFFF DUP2 GT ISZERO PUSH3 0x46C JUMPI PUSH3 0x46B PUSH3 0x10EB JUMP JUMPDEST JUMPDEST PUSH1 0x40 MLOAD SWAP1 DUP1 DUP3 MSTORE DUP1 PUSH1 0x20 MUL PUSH1 0x20 ADD DUP3 ADD PUSH1 0x40 MSTORE DUP1 ISZERO PUSH3 0x4A1 JUMPI DUP2 PUSH1 0x20 ADD JUMPDEST PUSH1 0x60 DUP2 MSTORE PUSH1 0x20 ADD SWAP1 PUSH1 0x1 SWAP1 SUB SWAP1 DUP2 PUSH3 0x48B JUMPI SWAP1 POP JUMPDEST POP PUSH3 0xEA0 PUSH1 0x20 SHL PUSH1 0x20 SHR JUMP JUMPDEST PUSH3 0x59A PUSH1 0x6 PUSH1 0x40 MLOAD DUP1 PUSH1 0x40 ADD PUSH1 0x40 MSTORE DUP1 PUSH1 0xA DUP2 MSTORE PUSH1 0x20 ADD PUSH32 0x506C617965722031303100000000000000000000000000000000000000000000 DUP2 MSTORE POP PUSH1 0x40 MLOAD DUP1 PUSH1 0x60 ADD PUSH1 0x40 MSTORE DUP1 PUSH1 0x3D DUP2 MSTORE PUSH1 0x20 ADD PUSH3 0x4E54 PUSH1 0x3D SWAP2 CODECOPY PUSH1 0x40 MLOAD DUP1 PUSH1 0x40 ADD PUSH1 0x40 MSTORE DUP1 PUSH1 0x20 DUP2 MSTORE PUSH1 0x20 ADD PUSH32 0x2F696D616765732F747269616E676C652D7265642D707265766965772E706E67 DUP2 MSTORE POP PUSH1 0x3 PUSH8 0xFFFFFFFFFFFFFFFF DUP2 GT ISZERO PUSH3 0x558 JUMPI PUSH3 0x557 PUSH3 0x10EB JUMP JUMPDEST JUMPDEST PUSH1 0x40 MLOAD SWAP1 DUP1 DUP3 MSTORE DUP1 PUSH1 0x20 MUL PUSH1 0x20 ADD DUP3 ADD PUSH1 0x40 MSTORE DUP1 ISZERO PUSH3 0x58D JUMPI DUP2 PUSH1 0x20 ADD JUMPDEST PUSH1 0x60 DUP2 MSTORE PUSH1 0x20 ADD SWAP1 PUSH1 0x1 SWAP1 SUB SWAP1 DUP2 PUSH3 0x577 JUMPI SWAP1 POP JUMPDEST POP PUSH3 0xEA0 PUSH1 0x20 SHL PUSH1 0x20 SHR JUMP JUMPDEST PUSH3 0x686 PUSH1 0x7 PUSH1 0x40 MLOAD DUP1 PUSH1 0x40 ADD PUSH1 0x40 MSTORE DUP1 PUSH1 0xA DUP2 MSTORE PUSH1 0x20 ADD PUSH32 0x506C617965722032313200000000000000000000000000000000000000000000 DUP2 MSTORE POP PUSH1 0x40 MLOAD DUP1 PUSH1 0x60 ADD PUSH1 0x40 MSTORE DUP1 PUSH1 0x37 DUP2 MSTORE PUSH1 0x20 ADD PUSH3 0x4CDE PUSH1 0x37 SWAP2 CODECOPY PUSH1 0x40 MLOAD DUP1 PUSH1 0x40 ADD PUSH1 0x40 MSTORE DUP1 PUSH1 0x1E DUP2 MSTORE PUSH1 0x20 ADD PUSH32 0x2F696D616765732F7371756172652D7265642D707265766965772E706E670000 DUP2 MSTORE POP PUSH1 0x3 PUSH8 0xFFFFFFFFFFFFFFFF DUP2 GT ISZERO PUSH3 0x644 JUMPI PUSH3 0x643 PUSH3 0x10EB JUMP JUMPDEST JUMPDEST PUSH1 0x40 MLOAD SWAP1 DUP1 DUP3 MSTORE DUP1 PUSH1 0x20 MUL PUSH1 0x20 ADD DUP3 ADD PUSH1 0x40 MSTORE DUP1 ISZERO PUSH3 0x679 JUMPI DUP2 PUSH1 0x20 ADD JUMPDEST PUSH1 0x60 DUP2 MSTORE PUSH1 0x20 ADD SWAP1 PUSH1 0x1 SWAP1 SUB SWAP1 DUP2 PUSH3 0x663 JUMPI SWAP1 POP JUMPDEST POP PUSH3 0xEA0 PUSH1 0x20 SHL PUSH1 0x20 SHR JUMP JUMPDEST PUSH3 0x772 PUSH1 0x8 PUSH1 0x40 MLOAD DUP1 PUSH1 0x40 ADD PUSH1 0x40 MSTORE DUP1 PUSH1 0xA DUP2 MSTORE PUSH1 0x20 ADD PUSH32 0x506C617965722032343000000000000000000000000000000000000000000000 DUP2 MSTORE POP PUSH1 0x40 MLOAD DUP1 PUSH1 0x60 ADD PUSH1 0x40 MSTORE DUP1 PUSH1 0x35 DUP2 MSTORE PUSH1 0x20 ADD PUSH3 0x4E1F PUSH1 0x35 SWAP2 CODECOPY PUSH1 0x40 MLOAD DUP1 PUSH1 0x40 ADD PUSH1 0x40 MSTORE DUP1 PUSH1 0x1E DUP2 MSTORE PUSH1 0x20 ADD PUSH32 0x2F696D616765732F636972636C652D7265642D707265766965772E706E670000 DUP2 MSTORE POP PUSH1 0x3 PUSH8 0xFFFFFFFFFFFFFFFF DUP2 GT ISZERO PUSH3 0x730 JUMPI PUSH3 0x72F PUSH3 0x10EB JUMP JUMPDEST JUMPDEST PUSH1 0x40 MLOAD SWAP1 DUP1 DUP3 MSTORE DUP1 PUSH1 0x20 MUL PUSH1 0x20 ADD DUP3 ADD PUSH1 0x40 MSTORE DUP1 ISZERO PUSH3 0x765 JUMPI DUP2 PUSH1 0x20 ADD JUMPDEST PUSH1 0x60 DUP2 MSTORE PUSH1 0x20 ADD SWAP1 PUSH1 0x1 SWAP1 SUB SWAP1 DUP2 PUSH3 0x74F JUMPI SWAP1 POP JUMPDEST POP PUSH3 0xEA0 PUSH1 0x20 SHL PUSH1 0x20 SHR JUMP JUMPDEST PUSH1 0x40 MLOAD DUP1 PUSH1 0x60 ADD PUSH1 0x40 MSTORE DUP1 PUSH1 0x40 MLOAD DUP1 PUSH1 0x40 ADD PUSH1 0x40 MSTORE DUP1 PUSH1 0xA DUP2 MSTORE PUSH1 0x20 ADD PUSH32 0x4D61737465726D696E6400000000000000000000000000000000000000000000 DUP2 MSTORE POP DUP2 MSTORE PUSH1 0x20 ADD PUSH1 0x40 MLOAD DUP1 PUSH1 0x40 ADD PUSH1 0x40 MSTORE DUP1 PUSH1 0x10 DUP2 MSTORE PUSH1 0x20 ADD PUSH32 0x4465636570746976656C79205765616B00000000000000000000000000000000 DUP2 MSTORE POP DUP2 MSTORE PUSH1 0x20 ADD PUSH1 0x40 MLOAD DUP1 PUSH1 0x40 ADD PUSH1 0x40 MSTORE DUP1 PUSH1 0x7 DUP2 MSTORE PUSH1 0x20 ADD PUSH32 0x43756E6E696E6700000000000000000000000000000000000000000000000000 DUP2 MSTORE POP DUP2 MSTORE POP PUSH1 0x3 PUSH1 0x0 PUSH1 0x1 PUSH1 0xFF AND DUP2 MSTORE PUSH1 0x20 ADD SWAP1 DUP2 MSTORE PUSH1 0x20 ADD PUSH1 0x0 KECCAK256 PUSH1 0x4 ADD SWAP1 PUSH1 0x3 PUSH3 0x856 SWAP3 SWAP2 SWAP1 PUSH3 0xF9E JUMP JUMPDEST POP PUSH1 0x40 MLOAD DUP1 PUSH1 0x60 ADD PUSH1 0x40 MSTORE DUP1 PUSH1 0x40 MLOAD DUP1 PUSH1 0x40 ADD PUSH1 0x40 MSTORE DUP1 PUSH1 0xB DUP2 MSTORE PUSH1 0x20 ADD PUSH32 0x5265736F7572636566756C000000000000000000000000000000000000000000 DUP2 MSTORE POP DUP2 MSTORE PUSH1 0x20 ADD PUSH1 0x40 MLOAD DUP1 PUSH1 0x40 ADD PUSH1 0x40 MSTORE DUP1 PUSH1 0x5 DUP2 MSTORE PUSH1 0x20 ADD PUSH32 0x4272617665000000000000000000000000000000000000000000000000000000 DUP2 MSTORE POP DUP2 MSTORE PUSH1 0x20 ADD PUSH1 0x40 MLOAD DUP1 PUSH1 0x40 ADD PUSH1 0x40 MSTORE DUP1 PUSH1 0x7 DUP2 MSTORE PUSH1 0x20 ADD PUSH32 0x456C757369766500000000000000000000000000000000000000000000000000 DUP2 MSTORE POP DUP2 MSTORE POP PUSH1 0x3 PUSH1 0x0 PUSH1 0x2 PUSH1 0xFF AND DUP2 MSTORE PUSH1 0x20 ADD SWAP1 DUP2 MSTORE PUSH1 0x20 ADD PUSH1 0x0 KECCAK256 PUSH1 0x4 ADD SWAP1 PUSH1 0x3 PUSH3 0x93B SWAP3 SWAP2 SWAP1 PUSH3 0xF9E JUMP JUMPDEST POP PUSH1 0x40 MLOAD DUP1 PUSH1 0x60 ADD PUSH1 0x40 MSTORE DUP1 PUSH1 0x40 MLOAD DUP1 PUSH1 0x40 ADD PUSH1 0x40 MSTORE DUP1 PUSH1 0x5 DUP2 MSTORE PUSH1 0x20 ADD PUSH32 0x4C75636B79000000000000000000000000000000000000000000000000000000 DUP2 MSTORE POP DUP2 MSTORE PUSH1 0x20 ADD PUSH1 0x40 MLOAD DUP1 PUSH1 0x40 ADD PUSH1 0x40 MSTORE DUP1 PUSH1 0xA DUP2 MSTORE PUSH1 0x20 ADD PUSH32 0x456D706174686574696300000000000000000000000000000000000000000000 DUP2 MSTORE POP DUP2 MSTORE PUSH1 0x20 ADD PUSH1 0x40 MLOAD DUP1 PUSH1 0x40 ADD PUSH1 0x40 MSTORE DUP1 PUSH1 0xD DUP2 MSTORE PUSH1 0x20 ADD PUSH32 0x556E7072656469637461626C6500000000000000000000000000000000000000 DUP2 MSTORE POP DUP2 MSTORE POP PUSH1 0x3 PUSH1 0x0 PUSH1 0x3 PUSH1 0xFF AND DUP2 MSTORE PUSH1 0x20 ADD SWAP1 DUP2 MSTORE PUSH1 0x20 ADD PUSH1 0x0 KECCAK256 PUSH1 0x4 ADD SWAP1 PUSH1 0x3 PUSH3 0xA20 SWAP3 SWAP2 SWAP1 PUSH3 0xF9E JUMP JUMPDEST POP PUSH1 0x40 MLOAD DUP1 PUSH1 0x60 ADD PUSH1 0x40 MSTORE DUP1 PUSH1 0x40 MLOAD DUP1 PUSH1 0x40 ADD PUSH1 0x40 MSTORE DUP1 PUSH1 0xB DUP2 MSTORE PUSH1 0x20 ADD PUSH32 0x43616C63756C6174696E67000000000000000000000000000000000000000000 DUP2 MSTORE POP DUP2 MSTORE PUSH1 0x20 ADD PUSH1 0x40 MLOAD DUP1 PUSH1 0x40 ADD PUSH1 0x40 MSTORE DUP1 PUSH1 0xC DUP2 MSTORE PUSH1 0x20 ADD PUSH32 0x4D616E6970756C61746976650000000000000000000000000000000000000000 DUP2 MSTORE POP DUP2 MSTORE PUSH1 0x20 ADD PUSH1 0x40 MLOAD DUP1 PUSH1 0x40 ADD PUSH1 0x40 MSTORE DUP1 PUSH1 0xA DUP2 MSTORE PUSH1 0x20 ADD PUSH32 0x44657465726D696E656400000000000000000000000000000000000000000000 DUP2 MSTORE POP DUP2 MSTORE POP PUSH1 0x3 PUSH1 0x0 PUSH1 0x4 PUSH1 0xFF AND DUP2 MSTORE PUSH1 0x20 ADD SWAP1 DUP2 MSTORE PUSH1 0x20 ADD PUSH1 0x0 KECCAK256 PUSH1 0x4 ADD SWAP1 PUSH1 0x3 PUSH3 0xB05 SWAP3 SWAP2 SWAP1 PUSH3 0xF9E JUMP JUMPDEST POP PUSH1 0x40 MLOAD DUP1 PUSH1 0x60 ADD PUSH1 0x40 MSTORE DUP1 PUSH1 0x40 MLOAD DUP1 PUSH1 0x40 ADD PUSH1 0x40 MSTORE DUP1 PUSH1 0x6 DUP2 MSTORE PUSH1 0x20 ADD PUSH32 0x5374726F6E670000000000000000000000000000000000000000000000000000 DUP2 MSTORE POP DUP2 MSTORE PUSH1 0x20 ADD PUSH1 0x40 MLOAD DUP1 PUSH1 0x40 ADD PUSH1 0x40 MSTORE DUP1 PUSH1 0xB DUP2 MSTORE PUSH1 0x20 ADD PUSH32 0x5472757374776F72746879000000000000000000000000000000000000000000 DUP2 MSTORE POP DUP2 MSTORE PUSH1 0x20 ADD PUSH1 0x40 MLOAD DUP1 PUSH1 0x40 ADD PUSH1 0x40 MSTORE DUP1 PUSH1 0x5 DUP2 MSTORE PUSH1 0x20 ADD PUSH32 0x4E61697665000000000000000000000000000000000000000000000000000000 DUP2 MSTORE POP DUP2 MSTORE POP PUSH1 0x3 PUSH1 0x0 PUSH1 0x5 PUSH1 0xFF AND DUP2 MSTORE PUSH1 0x20 ADD SWAP1 DUP2 MSTORE PUSH1 0x20 ADD PUSH1 0x0 KECCAK256 PUSH1 0x4 ADD SWAP1 PUSH1 0x3 PUSH3 0xBEA SWAP3 SWAP2 SWAP1 PUSH3 0xF9E JUMP JUMPDEST POP PUSH1 0x40 MLOAD DUP1 PUSH1 0x60 ADD PUSH1 0x40 MSTORE DUP1 PUSH1 0x40 MLOAD DUP1 PUSH1 0x40 ADD PUSH1 0x40 MSTORE DUP1 PUSH1 0xA DUP2 MSTORE PUSH1 0x20 ADD PUSH32 0x4167677265737369766500000000000000000000000000000000000000000000 DUP2 MSTORE POP DUP2 MSTORE PUSH1 0x20 ADD PUSH1 0x40 MLOAD DUP1 PUSH1 0x40 ADD PUSH1 0x40 MSTORE DUP1 PUSH1 0xD DUP2 MSTORE PUSH1 0x20 ADD PUSH32 0x556E7072656469637461626C6500000000000000000000000000000000000000 DUP2 MSTORE POP DUP2 MSTORE PUSH1 0x20 ADD PUSH1 0x40 MLOAD DUP1 PUSH1 0x40 ADD PUSH1 0x40 MSTORE DUP1 PUSH1 0x8 DUP2 MSTORE PUSH1 0x20 ADD PUSH32 0x527574686C657373000000000000000000000000000000000000000000000000 DUP2 MSTORE POP DUP2 MSTORE POP PUSH1 0x3 PUSH1 0x0 PUSH1 0x6 PUSH1 0xFF AND DUP2 MSTORE PUSH1 0x20 ADD SWAP1 DUP2 MSTORE PUSH1 0x20 ADD PUSH1 0x0 KECCAK256 PUSH1 0x4 ADD SWAP1 PUSH1 0x3 PUSH3 0xCCF SWAP3 SWAP2 SWAP1 PUSH3 0xF9E JUMP JUMPDEST POP PUSH1 0x40 MLOAD DUP1 PUSH1 0x60 ADD PUSH1 0x40 MSTORE DUP1 PUSH1 0x40 MLOAD DUP1 PUSH1 0x40 ADD PUSH1 0x40 MSTORE DUP1 PUSH1 0xC DUP2 MSTORE PUSH1 0x20 ADD PUSH32 0x4D616E6970756C61746976650000000000000000000000000000000000000000 DUP2 MSTORE POP DUP2 MSTORE PUSH1 0x20 ADD PUSH1 0x40 MLOAD DUP1 PUSH1 0x40 ADD PUSH1 0x40 MSTORE DUP1 PUSH1 0xA DUP2 MSTORE PUSH1 0x20 ADD PUSH32 0x466C616D626F79616E7400000000000000000000000000000000000000000000 DUP2 MSTORE POP DUP2 MSTORE PUSH1 0x20 ADD PUSH1 0x40 MLOAD DUP1 PUSH1 0x40 ADD PUSH1 0x40 MSTORE DUP1 PUSH1 0x8 DUP2 MSTORE PUSH1 0x20 ADD PUSH32 0x5375727669766F72000000000000000000000000000000000000000000000000 DUP2 MSTORE POP DUP2 MSTORE POP PUSH1 0x3 PUSH1 0x0 PUSH1 0x7 PUSH1 0xFF AND DUP2 MSTORE PUSH1 0x20 ADD SWAP1 DUP2 MSTORE PUSH1 0x20 ADD PUSH1 0x0 KECCAK256 PUSH1 0x4 ADD SWAP1 PUSH1 0x3 PUSH3 0xDB4 SWAP3 SWAP2 SWAP1 PUSH3 0xF9E JUMP JUMPDEST POP PUSH1 0x40 MLOAD DUP1 PUSH1 0x60 ADD PUSH1 0x40 MSTORE DUP1 PUSH1 0x40 MLOAD DUP1 PUSH1 0x40 ADD PUSH1 0x40 MSTORE DUP1 PUSH1 0x8 DUP2 MSTORE PUSH1 0x20 ADD PUSH32 0x53656C666C657373000000000000000000000000000000000000000000000000 DUP2 MSTORE POP DUP2 MSTORE PUSH1 0x20 ADD PUSH1 0x40 MLOAD DUP1 PUSH1 0x40 ADD PUSH1 0x40 MSTORE DUP1 PUSH1 0xA DUP2 MSTORE PUSH1 0x20 ADD PUSH32 0x436F75726167656F757300000000000000000000000000000000000000000000 DUP2 MSTORE POP DUP2 MSTORE PUSH1 0x20 ADD PUSH1 0x40 MLOAD DUP1 PUSH1 0x40 ADD PUSH1 0x40 MSTORE DUP1 PUSH1 0x5 DUP2 MSTORE PUSH1 0x20 ADD PUSH32 0x4C6F79616C000000000000000000000000000000000000000000000000000000 DUP2 MSTORE POP DUP2 MSTORE POP PUSH1 0x3 PUSH1 0x0 PUSH1 0x8 PUSH1 0xFF AND DUP2 MSTORE PUSH1 0x20 ADD SWAP1 DUP2 MSTORE PUSH1 0x20 ADD PUSH1 0x0 KECCAK256 PUSH1 0x4 ADD SWAP1 PUSH1 0x3 PUSH3 0xE99 SWAP3 SWAP2 SWAP1 PUSH3 0xF9E JUMP JUMPDEST POP PUSH3 0x144C JUMP JUMPDEST PUSH1 0x40 MLOAD DUP1 PUSH1 0xC0 ADD PUSH1 0x40 MSTORE DUP1 DUP7 PUSH1 0xFF AND DUP2 MSTORE PUSH1 0x20 ADD DUP6 DUP2 MSTORE PUSH1 0x20 ADD DUP5 DUP2 MSTORE PUSH1 0x20 ADD DUP4 DUP2 MSTORE PUSH1 0x20 ADD DUP3 DUP2 MSTORE PUSH1 0x20 ADD PUSH1 0x0 ISZERO ISZERO DUP2 MSTORE POP PUSH1 0x3 PUSH1 0x0 DUP8 PUSH1 0xFF AND PUSH1 0xFF AND DUP2 MSTORE PUSH1 0x20 ADD SWAP1 DUP2 MSTORE PUSH1 0x20 ADD PUSH1 0x0 KECCAK256 PUSH1 0x0 DUP3 ADD MLOAD DUP2 PUSH1 0x0 ADD PUSH1 0x0 PUSH2 0x100 EXP DUP2 SLOAD DUP2 PUSH1 0xFF MUL NOT AND SWAP1 DUP4 PUSH1 0xFF AND MUL OR SWAP1 SSTORE POP PUSH1 0x20 DUP3 ADD MLOAD DUP2 PUSH1 0x1 ADD SWAP1 DUP2 PUSH3 0xF24 SWAP2 SWAP1 PUSH3 0x1365 JUMP JUMPDEST POP PUSH1 0x40 DUP3 ADD MLOAD DUP2 PUSH1 0x2 ADD SWAP1 DUP2 PUSH3 0xF3C SWAP2 SWAP1 PUSH3 0x1365 JUMP JUMPDEST POP PUSH1 0x60 DUP3 ADD MLOAD DUP2 PUSH1 0x3 ADD SWAP1 DUP2 PUSH3 0xF54 SWAP2 SWAP1 PUSH3 0x1365 JUMP JUMPDEST POP PUSH1 0x80 DUP3 ADD MLOAD DUP2 PUSH1 0x4 ADD SWAP1 DUP1 MLOAD SWAP1 PUSH1 0x20 ADD SWAP1 PUSH3 0xF73 SWAP3 SWAP2 SWAP1 PUSH3 0xFFE JUMP JUMPDEST POP PUSH1 0xA0 DUP3 ADD MLOAD DUP2 PUSH1 0x5 ADD PUSH1 0x0 PUSH2 0x100 EXP DUP2 SLOAD DUP2 PUSH1 0xFF MUL NOT AND SWAP1 DUP4 ISZERO ISZERO MUL OR SWAP1 SSTORE POP SWAP1 POP POP POP POP POP POP POP JUMP JUMPDEST DUP3 DUP1 SLOAD DUP3 DUP3 SSTORE SWAP1 PUSH1 0x0 MSTORE PUSH1 0x20 PUSH1 0x0 KECCAK256 SWAP1 DUP2 ADD SWAP3 DUP3 ISZERO PUSH3 0xFEB JUMPI SWAP2 PUSH1 0x20 MUL DUP3 ADD JUMPDEST DUP3 DUP2 GT ISZERO PUSH3 0xFEA JUMPI DUP3 MLOAD DUP3 SWAP1 DUP2 PUSH3 0xFD9 SWAP2 SWAP1 PUSH3 0x1365 JUMP JUMPDEST POP SWAP2 PUSH1 0x20 ADD SWAP2 SWAP1 PUSH1 0x1 ADD SWAP1 PUSH3 0xFBF JUMP JUMPDEST JUMPDEST POP SWAP1 POP PUSH3 0xFFA SWAP2 SWAP1 PUSH3 0x105E JUMP JUMPDEST POP SWAP1 JUMP JUMPDEST DUP3 DUP1 SLOAD DUP3 DUP3 SSTORE SWAP1 PUSH1 0x0 MSTORE PUSH1 0x20 PUSH1 0x0 KECCAK256 SWAP1 DUP2 ADD SWAP3 DUP3 ISZERO PUSH3 0x104B JUMPI SWAP2 PUSH1 0x20 MUL DUP3 ADD JUMPDEST DUP3 DUP2 GT ISZERO PUSH3 0x104A JUMPI DUP3 MLOAD DUP3 SWAP1 DUP2 PUSH3 0x1039 SWAP2 SWAP1 PUSH3 0x1365 JUMP JUMPDEST POP SWAP2 PUSH1 0x20 ADD SWAP2 SWAP1 PUSH1 0x1 ADD SWAP1 PUSH3 0x101F JUMP JUMPDEST JUMPDEST POP SWAP1 POP PUSH3 0x105A SWAP2 SWAP1 PUSH3 0x105E JUMP JUMPDEST POP SWAP1 JUMP JUMPDEST JUMPDEST DUP1 DUP3 GT ISZERO PUSH3 0x1082 JUMPI PUSH1 0x0 DUP2 DUP2 PUSH3 0x1078 SWAP2 SWAP1 PUSH3 0x1086 JUMP JUMPDEST POP PUSH1 0x1 ADD PUSH3 0x105F JUMP JUMPDEST POP SWAP1 JUMP JUMPDEST POP DUP1 SLOAD PUSH3 0x1094 SWAP1 PUSH3 0x1154 JUMP JUMPDEST PUSH1 0x0 DUP3 SSTORE DUP1 PUSH1 0x1F LT PUSH3 0x10A8 JUMPI POP PUSH3 0x10C9 JUMP JUMPDEST PUSH1 0x1F ADD PUSH1 0x20 SWAP1 DIV SWAP1 PUSH1 0x0 MSTORE PUSH1 0x20 PUSH1 0x0 KECCAK256 SWAP1 DUP2 ADD SWAP1 PUSH3 0x10C8 SWAP2 SWAP1 PUSH3 0x10CC JUMP JUMPDEST JUMPDEST POP JUMP JUMPDEST JUMPDEST DUP1 DUP3 GT ISZERO PUSH3 0x10E7 JUMPI PUSH1 0x0 DUP2 PUSH1 0x0 SWAP1 SSTORE POP PUSH1 0x1 ADD PUSH3 0x10CD JUMP JUMPDEST POP SWAP1 JUMP JUMPDEST PUSH32 0x4E487B7100000000000000000000000000000000000000000000000000000000 PUSH1 0x0 MSTORE PUSH1 0x41 PUSH1 0x4 MSTORE PUSH1 0x24 PUSH1 0x0 REVERT JUMPDEST PUSH1 0x0 DUP2 MLOAD SWAP1 POP SWAP2 SWAP1 POP JUMP JUMPDEST PUSH32 0x4E487B7100000000000000000000000000000000000000000000000000000000 PUSH1 0x0 MSTORE PUSH1 0x22 PUSH1 0x4 MSTORE PUSH1 0x24 PUSH1 0x0 REVERT JUMPDEST PUSH1 0x0 PUSH1 0x2 DUP3 DIV SWAP1 POP PUSH1 0x1 DUP3 AND DUP1 PUSH3 0x116D JUMPI PUSH1 0x7F DUP3 AND SWAP2 POP JUMPDEST PUSH1 0x20 DUP3 LT DUP2 SUB PUSH3 0x1183 JUMPI PUSH3 0x1182 PUSH3 0x1125 JUMP JUMPDEST JUMPDEST POP SWAP2 SWAP1 POP JUMP JUMPDEST PUSH1 0x0 DUP2 SWAP1 POP DUP2 PUSH1 0x0 MSTORE PUSH1 0x20 PUSH1 0x0 KECCAK256 SWAP1 POP SWAP2 SWAP1 POP JUMP JUMPDEST PUSH1 0x0 PUSH1 0x20 PUSH1 0x1F DUP4 ADD DIV SWAP1 POP SWAP2 SWAP1 POP JUMP JUMPDEST PUSH1 0x0 DUP3 DUP3 SHL SWAP1 POP SWAP3 SWAP2 POP POP JUMP JUMPDEST PUSH1 0x0 PUSH1 0x8 DUP4 MUL PUSH3 0x11ED PUSH32 0xFFFFFFFFFFFFFFFFFFFFFFFFFFFFFFFFFFFFFFFFFFFFFFFFFFFFFFFFFFFFFFFF DUP3 PUSH3 0x11AE JUMP JUMPDEST PUSH3 0x11F9 DUP7 DUP4 PUSH3 0x11AE JUMP JUMPDEST SWAP6 POP DUP1 NOT DUP5 AND SWAP4 POP DUP1 DUP7 AND DUP5 OR SWAP3 POP POP POP SWAP4 SWAP3 POP POP POP JUMP JUMPDEST PUSH1 0x0 DUP2 SWAP1 POP SWAP2 SWAP1 POP JUMP JUMPDEST PUSH1 0x0 DUP2 SWAP1 POP SWAP2 SWAP1 POP JUMP JUMPDEST PUSH1 0x0 PUSH3 0x1246 PUSH3 0x1240 PUSH3 0x123A DUP5 PUSH3 0x1211 JUMP JUMPDEST PUSH3 0x121B JUMP JUMPDEST PUSH3 0x1211 JUMP JUMPDEST SWAP1 POP SWAP2 SWAP1 POP JUMP JUMPDEST PUSH1 0x0 DUP2 SWAP1 POP SWAP2 SWAP1 POP JUMP JUMPDEST PUSH3 0x1262 DUP4 PUSH3 0x1225 JUMP JUMPDEST PUSH3 0x127A PUSH3 0x1271 DUP3 PUSH3 0x124D JUMP JUMPDEST DUP5 DUP5 SLOAD PUSH3 0x11BB JUMP JUMPDEST DUP3 SSTORE POP POP POP POP JUMP JUMPDEST PUSH1 0x0 SWAP1 JUMP JUMPDEST PUSH3 0x1291 PUSH3 0x1282 JUMP JUMPDEST PUSH3 0x129E DUP2 DUP5 DUP5 PUSH3 0x1257 JUMP JUMPDEST POP POP POP JUMP JUMPDEST JUMPDEST DUP2 DUP2 LT ISZERO PUSH3 0x12C6 JUMPI PUSH3 0x12BA PUSH1 0x0 DUP3 PUSH3 0x1287 JUMP JUMPDEST PUSH1 0x1 DUP2 ADD SWAP1 POP PUSH3 0x12A4 JUMP JUMPDEST POP POP JUMP JUMPDEST PUSH1 0x1F DUP3 GT ISZERO PUSH3 0x1315 JUMPI PUSH3 0x12DF DUP2 PUSH3 0x1189 JUMP JUMPDEST PUSH3 0x12EA DUP5 PUSH3 0x119E JUMP JUMPDEST DUP2 ADD PUSH1 0x20 DUP6 LT ISZERO PUSH3 0x12FA JUMPI DUP2 SWAP1 POP JUMPDEST PUSH3 0x1312 PUSH3 0x1309 DUP6 PUSH3 0x119E JUMP JUMPDEST DUP4 ADD DUP3 PUSH3 0x12A3 JUMP JUMPDEST POP POP JUMPDEST POP POP POP JUMP JUMPDEST PUSH1 0x0 DUP3 DUP3 SHR SWAP1 POP SWAP3 SWAP2 POP POP JUMP JUMPDEST PUSH1 0x0 PUSH3 0x133A PUSH1 0x0 NOT DUP5 PUSH1 0x8 MUL PUSH3 0x131A JUMP JUMPDEST NOT DUP1 DUP4 AND SWAP2 POP POP SWAP3 SWAP2 POP POP JUMP JUMPDEST PUSH1 0x0 PUSH3 0x1355 DUP4 DUP4 PUSH3 0x1327 JUMP JUMPDEST SWAP2 POP DUP3 PUSH1 0x2 MUL DUP3 OR SWAP1 POP SWAP3 SWAP2 POP POP JUMP JUMPDEST PUSH3 0x1370 DUP3 PUSH3 0x111A JUMP JUMPDEST PUSH8 0xFFFFFFFFFFFFFFFF DUP2 GT ISZERO PUSH3 0x138C JUMPI PUSH3 0x138B PUSH3 0x10EB JUMP JUMPDEST JUMPDEST PUSH3 0x1398 DUP3 SLOAD PUSH3 0x1154 JUMP JUMPDEST PUSH3 0x13A5 DUP3 DUP3 DUP6 PUSH3 0x12CA JUMP JUMPDEST PUSH1 0x0 PUSH1 0x20 SWAP1 POP PUSH1 0x1F DUP4 GT PUSH1 0x1 DUP2 EQ PUSH3 0x13DD JUMPI PUSH1 0x0 DUP5 ISZERO PUSH3 0x13C8 JUMPI DUP3 DUP8 ADD MLOAD SWAP1 POP JUMPDEST PUSH3 0x13D4 DUP6 DUP3 PUSH3 0x1347 JUMP JUMPDEST DUP7 SSTORE POP PUSH3 0x1444 JUMP JUMPDEST PUSH1 0x1F NOT DUP5 AND PUSH3 0x13ED DUP7 PUSH3 0x1189 JUMP JUMPDEST PUSH1 0x0 JUMPDEST DUP3 DUP2 LT ISZERO PUSH3 0x1417 JUMPI DUP5 DUP10 ADD MLOAD DUP3 SSTORE PUSH1 0x1 DUP3 ADD SWAP2 POP PUSH1 0x20 DUP6 ADD SWAP5 POP PUSH1 0x20 DUP2 ADD SWAP1 POP PUSH3 0x13F0 JUMP JUMPDEST DUP7 DUP4 LT ISZERO PUSH3 0x1437 JUMPI DUP5 DUP10 ADD MLOAD PUSH3 0x1433 PUSH1 0x1F DUP10 AND DUP3 PUSH3 0x1327 JUMP JUMPDEST DUP4 SSTORE POP JUMPDEST PUSH1 0x1 PUSH1 0x2 DUP9 MUL ADD DUP9 SSTORE POP POP POP JUMPDEST POP POP POP POP POP POP JUMP JUMPDEST PUSH2 0x3882 DUP1 PUSH3 0x145C PUSH1 0x0 CODECOPY PUSH1 0x0 RETURN INVALID PUSH1 0x80 PUSH1 0x40 MSTORE CALLVALUE DUP1 ISZERO PUSH2 0x10 JUMPI PUSH1 0x0 DUP1 REVERT JUMPDEST POP PUSH1 0x4 CALLDATASIZE LT PUSH2 0xF5 JUMPI PUSH1 0x0 CALLDATALOAD PUSH1 0xE0 SHR DUP1 PUSH4 0x51159ABB GT PUSH2 0x97 JUMPI DUP1 PUSH4 0x973022BE GT PUSH2 0x66 JUMPI DUP1 PUSH4 0x973022BE EQ PUSH2 0x2C3 JUMPI DUP1 PUSH4 0xE87C0EE6 EQ PUSH2 0x2F7 JUMPI DUP1 PUSH4 0xF1018F54 EQ PUSH2 0x315 JUMPI DUP1 PUSH4 0xFA0CB95B EQ PUSH2 0x348 JUMPI PUSH2 0xF5 JUMP JUMPDEST DUP1 PUSH4 0x51159ABB EQ PUSH2 0x217 JUMPI DUP1 PUSH4 0x58275BFF EQ PUSH2 0x247 JUMPI DUP1 PUSH4 0x5B875ACA EQ PUSH2 0x263 JUMPI DUP1 PUSH4 0x6AE0770F EQ PUSH2 0x293 JUMPI PUSH2 0xF5 JUMP JUMPDEST DUP1 PUSH4 0x3953DA4C GT PUSH2 0xD3 JUMPI DUP1 PUSH4 0x3953DA4C EQ PUSH2 0x17D JUMPI DUP1 PUSH4 0x3CB96450 EQ PUSH2 0x1AD JUMPI DUP1 PUSH4 0x4D1975B4 EQ PUSH2 0x1C9 JUMPI DUP1 PUSH4 0x4EAF436B EQ PUSH2 0x1E7 JUMPI PUSH2 0xF5 JUMP JUMPDEST DUP1 PUSH4 0x4ED4FC9 EQ PUSH2 0xFA JUMPI DUP1 PUSH4 0xB66BCAF EQ PUSH2 0x12D JUMPI DUP1 PUSH4 0x1BC64092 EQ PUSH2 0x149 JUMPI JUMPDEST PUSH1 0x0 DUP1 REVERT JUMPDEST PUSH2 0x114 PUSH1 0x4 DUP1 CALLDATASIZE SUB DUP2 ADD SWAP1 PUSH2 0x10F SWAP2 SWAP1 PUSH2 0x25DB JUMP JUMPDEST PUSH2 0x378 JUMP JUMPDEST PUSH1 0x40 MLOAD PUSH2 0x124 SWAP5 SWAP4 SWAP3 SWAP2 SWAP1 PUSH2 0x26DA JUMP JUMPDEST PUSH1 0x40 MLOAD DUP1 SWAP2 SUB SWAP1 RETURN JUMPDEST PUSH2 0x147 PUSH1 0x4 DUP1 CALLDATASIZE SUB DUP2 ADD SWAP1 PUSH2 0x142 SWAP2 SWAP1 PUSH2 0x2838 JUMP JUMPDEST PUSH2 0x46D JUMP JUMPDEST STOP JUMPDEST PUSH2 0x163 PUSH1 0x4 DUP1 CALLDATASIZE SUB DUP2 ADD SWAP1 PUSH2 0x15E SWAP2 SWAP1 PUSH2 0x2959 JUMP JUMPDEST PUSH2 0x563 JUMP JUMPDEST PUSH1 0x40 MLOAD PUSH2 0x174 SWAP6 SWAP5 SWAP4 SWAP3 SWAP2 SWAP1 PUSH2 0x29B5 JUMP JUMPDEST PUSH1 0x40 MLOAD DUP1 SWAP2 SUB SWAP1 RETURN JUMPDEST PUSH2 0x197 PUSH1 0x4 DUP1 CALLDATASIZE SUB DUP2 ADD SWAP1 PUSH2 0x192 SWAP2 SWAP1 PUSH2 0x25DB JUMP JUMPDEST PUSH2 0x77E JUMP JUMPDEST PUSH1 0x40 MLOAD PUSH2 0x1A4 SWAP2 SWAP1 PUSH2 0x2CA7 JUMP JUMPDEST PUSH1 0x40 MLOAD DUP1 SWAP2 SUB SWAP1 RETURN JUMPDEST PUSH2 0x1C7 PUSH1 0x4 DUP1 CALLDATASIZE SUB DUP2 ADD SWAP1 PUSH2 0x1C2 SWAP2 SWAP1 PUSH2 0x2D8C JUMP JUMPDEST PUSH2 0xC63 JUMP JUMPDEST STOP JUMPDEST PUSH2 0x1D1 PUSH2 0x1322 JUMP JUMPDEST PUSH1 0x40 MLOAD PUSH2 0x1DE SWAP2 SWAP1 PUSH2 0x2E04 JUMP JUMPDEST PUSH1 0x40 MLOAD DUP1 SWAP2 SUB SWAP1 RETURN JUMPDEST PUSH2 0x201 PUSH1 0x4 DUP1 CALLDATASIZE SUB DUP2 ADD SWAP1 PUSH2 0x1FC SWAP2 SWAP1 PUSH2 0x25DB JUMP JUMPDEST PUSH2 0x1333 JUMP JUMPDEST PUSH1 0x40 MLOAD PUSH2 0x20E SWAP2 SWAP1 PUSH2 0x2E82 JUMP JUMPDEST PUSH1 0x40 MLOAD DUP1 SWAP2 SUB SWAP1 RETURN JUMPDEST PUSH2 0x231 PUSH1 0x4 DUP1 CALLDATASIZE SUB DUP2 ADD SWAP1 PUSH2 0x22C SWAP2 SWAP1 PUSH2 0x25DB JUMP JUMPDEST PUSH2 0x1450 JUMP JUMPDEST PUSH1 0x40 MLOAD PUSH2 0x23E SWAP2 SWAP1 PUSH2 0x2CA7 JUMP JUMPDEST PUSH1 0x40 MLOAD DUP1 SWAP2 SUB SWAP1 RETURN JUMPDEST PUSH2 0x261 PUSH1 0x4 DUP1 CALLDATASIZE SUB DUP2 ADD SWAP1 PUSH2 0x25C SWAP2 SWAP1 PUSH2 0x2EA4 JUMP JUMPDEST PUSH2 0x1933 JUMP JUMPDEST STOP JUMPDEST PUSH2 0x27D PUSH1 0x4 DUP1 CALLDATASIZE SUB DUP2 ADD SWAP1 PUSH2 0x278 SWAP2 SWAP1 PUSH2 0x2F5E JUMP JUMPDEST PUSH2 0x1B37 JUMP JUMPDEST PUSH1 0x40 MLOAD PUSH2 0x28A SWAP2 SWAP1 PUSH2 0x30B0 JUMP JUMPDEST PUSH1 0x40 MLOAD DUP1 SWAP2 SUB SWAP1 RETURN JUMPDEST PUSH2 0x2AD PUSH1 0x4 DUP1 CALLDATASIZE SUB DUP2 ADD SWAP1 PUSH2 0x2A8 SWAP2 SWAP1 PUSH2 0x30D2 JUMP JUMPDEST PUSH2 0x1CBA JUMP JUMPDEST PUSH1 0x40 MLOAD PUSH2 0x2BA SWAP2 SWAP1 PUSH2 0x312E JUMP JUMPDEST PUSH1 0x40 MLOAD DUP1 SWAP2 SUB SWAP1 RETURN JUMPDEST PUSH2 0x2DD PUSH1 0x4 DUP1 CALLDATASIZE SUB DUP2 ADD SWAP1 PUSH2 0x2D8 SWAP2 SWAP1 PUSH2 0x3149 JUMP JUMPDEST PUSH2 0x1CFF JUMP JUMPDEST PUSH1 0x40 MLOAD PUSH2 0x2EE SWAP6 SWAP5 SWAP4 SWAP3 SWAP2 SWAP1 PUSH2 0x29B5 JUMP JUMPDEST PUSH1 0x40 MLOAD DUP1 SWAP2 SUB SWAP1 RETURN JUMPDEST PUSH2 0x2FF PUSH2 0x1EE7 JUMP JUMPDEST PUSH1 0x40 MLOAD PUSH2 0x30C SWAP2 SWAP1 PUSH2 0x2E04 JUMP JUMPDEST PUSH1 0x40 MLOAD DUP1 SWAP2 SUB SWAP1 RETURN JUMPDEST PUSH2 0x32F PUSH1 0x4 DUP1 CALLDATASIZE SUB DUP2 ADD SWAP1 PUSH2 0x32A SWAP2 SWAP1 PUSH2 0x3176 JUMP JUMPDEST PUSH2 0x1EFD JUMP JUMPDEST PUSH1 0x40 MLOAD PUSH2 0x33F SWAP5 SWAP4 SWAP3 SWAP2 SWAP1 PUSH2 0x26DA JUMP JUMPDEST PUSH1 0x40 MLOAD DUP1 SWAP2 SUB SWAP1 RETURN JUMPDEST PUSH2 0x362 PUSH1 0x4 DUP1 CALLDATASIZE SUB DUP2 ADD SWAP1 PUSH2 0x35D SWAP2 SWAP1 PUSH2 0x25DB JUMP JUMPDEST PUSH2 0x1FF9 JUMP JUMPDEST PUSH1 0x40 MLOAD PUSH2 0x36F SWAP2 SWAP1 PUSH2 0x2CA7 JUMP JUMPDEST PUSH1 0x40 MLOAD DUP1 SWAP2 SUB SWAP1 RETURN JUMPDEST PUSH1 0x2 DUP2 DUP1 MLOAD PUSH1 0x20 DUP2 ADD DUP3 ADD DUP1 MLOAD DUP5 DUP3 MSTORE PUSH1 0x20 DUP4 ADD PUSH1 0x20 DUP6 ADD KECCAK256 DUP2 DUP4 MSTORE DUP1 SWAP6 POP POP POP POP POP POP PUSH1 0x0 SWAP2 POP SWAP1 POP DUP1 PUSH1 0x0 ADD DUP1 SLOAD PUSH2 0x3B1 SWAP1 PUSH2 0x31E5 JUMP JUMPDEST DUP1 PUSH1 0x1F ADD PUSH1 0x20 DUP1 SWAP2 DIV MUL PUSH1 0x20 ADD PUSH1 0x40 MLOAD SWAP1 DUP2 ADD PUSH1 0x40 MSTORE DUP1 SWAP3 SWAP2 SWAP1 DUP2 DUP2 MSTORE PUSH1 0x20 ADD DUP3 DUP1 SLOAD PUSH2 0x3DD SWAP1 PUSH2 0x31E5 JUMP JUMPDEST DUP1 ISZERO PUSH2 0x42A JUMPI DUP1 PUSH1 0x1F LT PUSH2 0x3FF JUMPI PUSH2 0x100 DUP1 DUP4 SLOAD DIV MUL DUP4 MSTORE SWAP2 PUSH1 0x20 ADD SWAP2 PUSH2 0x42A JUMP JUMPDEST DUP3 ADD SWAP2 SWAP1 PUSH1 0x0 MSTORE PUSH1 0x20 PUSH1 0x0 KECCAK256 SWAP1 JUMPDEST DUP2 SLOAD DUP2 MSTORE SWAP1 PUSH1 0x1 ADD SWAP1 PUSH1 0x20 ADD DUP1 DUP4 GT PUSH2 0x40D JUMPI DUP3 SWAP1 SUB PUSH1 0x1F AND DUP3 ADD SWAP2 JUMPDEST POP POP POP POP POP SWAP1 DUP1 PUSH1 0x1 ADD PUSH1 0x0 SWAP1 SLOAD SWAP1 PUSH2 0x100 EXP SWAP1 DIV PUSH1 0xFF AND SWAP1 DUP1 PUSH1 0x1 ADD PUSH1 0x1 SWAP1 SLOAD SWAP1 PUSH2 0x100 EXP SWAP1 DIV PUSH1 0xFF AND SWAP1 DUP1 PUSH1 0x1 ADD PUSH1 0x2 SWAP1 SLOAD SWAP1 PUSH2 0x100 EXP SWAP1 DIV PUSH1 0xFF AND SWAP1 POP DUP5 JUMP JUMPDEST PUSH1 0x40 MLOAD DUP1 PUSH1 0xC0 ADD PUSH1 0x40 MSTORE DUP1 DUP7 PUSH1 0xFF AND DUP2 MSTORE PUSH1 0x20 ADD DUP6 DUP2 MSTORE PUSH1 0x20 ADD DUP5 DUP2 MSTORE PUSH1 0x20 ADD DUP4 DUP2 MSTORE PUSH1 0x20 ADD DUP3 DUP2 MSTORE PUSH1 0x20 ADD PUSH1 0x0 ISZERO ISZERO DUP2 MSTORE POP PUSH1 0x3 PUSH1 0x0 DUP8 PUSH1 0xFF AND PUSH1 0xFF AND DUP2 MSTORE PUSH1 0x20 ADD SWAP1 DUP2 MSTORE PUSH1 0x20 ADD PUSH1 0x0 KECCAK256 PUSH1 0x0 DUP3 ADD MLOAD DUP2 PUSH1 0x0 ADD PUSH1 0x0 PUSH2 0x100 EXP DUP2 SLOAD DUP2 PUSH1 0xFF MUL NOT AND SWAP1 DUP4 PUSH1 0xFF AND MUL OR SWAP1 SSTORE POP PUSH1 0x20 DUP3 ADD MLOAD DUP2 PUSH1 0x1 ADD SWAP1 DUP2 PUSH2 0x4EF SWAP2 SWAP1 PUSH2 0x33C2 JUMP JUMPDEST POP PUSH1 0x40 DUP3 ADD MLOAD DUP2 PUSH1 0x2 ADD SWAP1 DUP2 PUSH2 0x505 SWAP2 SWAP1 PUSH2 0x33C2 JUMP JUMPDEST POP PUSH1 0x60 DUP3 ADD MLOAD DUP2 PUSH1 0x3 ADD SWAP1 DUP2 PUSH2 0x51B SWAP2 SWAP1 PUSH2 0x33C2 JUMP JUMPDEST POP PUSH1 0x80 DUP3 ADD MLOAD DUP2 PUSH1 0x4 ADD SWAP1 DUP1 MLOAD SWAP1 PUSH1 0x20 ADD SWAP1 PUSH2 0x538 SWAP3 SWAP2 SWAP1 PUSH2 0x233D JUMP JUMPDEST POP PUSH1 0xA0 DUP3 ADD MLOAD DUP2 PUSH1 0x5 ADD PUSH1 0x0 PUSH2 0x100 EXP DUP2 SLOAD DUP2 PUSH1 0xFF MUL NOT AND SWAP1 DUP4 ISZERO ISZERO MUL OR SWAP1 SSTORE POP SWAP1 POP POP POP POP POP POP POP JUMP JUMPDEST PUSH1 0x5 DUP3 DUP1 MLOAD PUSH1 0x20 DUP2 ADD DUP3 ADD DUP1 MLOAD DUP5 DUP3 MSTORE PUSH1 0x20 DUP4 ADD PUSH1 0x20 DUP6 ADD KECCAK256 DUP2 DUP4 MSTORE DUP1 SWAP6 POP POP POP POP POP POP DUP2 DUP2 SLOAD DUP2 LT PUSH2 0x595 JUMPI PUSH1 0x0 DUP1 REVERT JUMPDEST SWAP1 PUSH1 0x0 MSTORE PUSH1 0x20 PUSH1 0x0 KECCAK256 SWAP1 PUSH1 0x6 MUL ADD PUSH1 0x0 SWAP2 POP SWAP2 POP POP DUP1 PUSH1 0x0 ADD PUSH1 0x0 SWAP1 SLOAD SWAP1 PUSH2 0x100 EXP SWAP1 DIV PUSH1 0xFF AND SWAP1 DUP1 PUSH1 0x1 ADD DUP1 SLOAD PUSH2 0x5CC SWAP1 PUSH2 0x31E5 JUMP JUMPDEST DUP1 PUSH1 0x1F ADD PUSH1 0x20 DUP1 SWAP2 DIV MUL PUSH1 0x20 ADD PUSH1 0x40 MLOAD SWAP1 DUP2 ADD PUSH1 0x40 MSTORE DUP1 SWAP3 SWAP2 SWAP1 DUP2 DUP2 MSTORE PUSH1 0x20 ADD DUP3 DUP1 SLOAD PUSH2 0x5F8 SWAP1 PUSH2 0x31E5 JUMP JUMPDEST DUP1 ISZERO PUSH2 0x645 JUMPI DUP1 PUSH1 0x1F LT PUSH2 0x61A JUMPI PUSH2 0x100 DUP1 DUP4 SLOAD DIV MUL DUP4 MSTORE SWAP2 PUSH1 0x20 ADD SWAP2 PUSH2 0x645 JUMP JUMPDEST DUP3 ADD SWAP2 SWAP1 PUSH1 0x0 MSTORE PUSH1 0x20 PUSH1 0x0 KECCAK256 SWAP1 JUMPDEST DUP2 SLOAD DUP2 MSTORE SWAP1 PUSH1 0x1 ADD SWAP1 PUSH1 0x20 ADD DUP1 DUP4 GT PUSH2 0x628 JUMPI DUP3 SWAP1 SUB PUSH1 0x1F AND DUP3 ADD SWAP2 JUMPDEST POP POP POP POP POP SWAP1 DUP1 PUSH1 0x2 ADD DUP1 SLOAD PUSH2 0x65A SWAP1 PUSH2 0x31E5 JUMP JUMPDEST DUP1 PUSH1 0x1F ADD PUSH1 0x20 DUP1 SWAP2 DIV MUL PUSH1 0x20 ADD PUSH1 0x40 MLOAD SWAP1 DUP2 ADD PUSH1 0x40 MSTORE DUP1 SWAP3 SWAP2 SWAP1 DUP2 DUP2 MSTORE PUSH1 0x20 ADD DUP3 DUP1 SLOAD PUSH2 0x686 SWAP1 PUSH2 0x31E5 JUMP JUMPDEST DUP1 ISZERO PUSH2 0x6D3 JUMPI DUP1 PUSH1 0x1F LT PUSH2 0x6A8 JUMPI PUSH2 0x100 DUP1 DUP4 SLOAD DIV MUL DUP4 MSTORE SWAP2 PUSH1 0x20 ADD SWAP2 PUSH2 0x6D3 JUMP JUMPDEST DUP3 ADD SWAP2 SWAP1 PUSH1 0x0 MSTORE PUSH1 0x20 PUSH1 0x0 KECCAK256 SWAP1 JUMPDEST DUP2 SLOAD DUP2 MSTORE SWAP1 PUSH1 0x1 ADD SWAP1 PUSH1 0x20 ADD DUP1 DUP4 GT PUSH2 0x6B6 JUMPI DUP3 SWAP1 SUB PUSH1 0x1F AND DUP3 ADD SWAP2 JUMPDEST POP POP POP POP POP SWAP1 DUP1 PUSH1 0x3 ADD DUP1 SLOAD PUSH2 0x6E8 SWAP1 PUSH2 0x31E5 JUMP JUMPDEST DUP1 PUSH1 0x1F ADD PUSH1 0x20 DUP1 SWAP2 DIV MUL PUSH1 0x20 ADD PUSH1 0x40 MLOAD SWAP1 DUP2 ADD PUSH1 0x40 MSTORE DUP1 SWAP3 SWAP2 SWAP1 DUP2 DUP2 MSTORE PUSH1 0x20 ADD DUP3 DUP1 SLOAD PUSH2 0x714 SWAP1 PUSH2 0x31E5 JUMP JUMPDEST DUP1 ISZERO PUSH2 0x761 JUMPI DUP1 PUSH1 0x1F LT PUSH2 0x736 JUMPI PUSH2 0x100 DUP1 DUP4 SLOAD DIV MUL DUP4 MSTORE SWAP2 PUSH1 0x20 ADD SWAP2 PUSH2 0x761 JUMP JUMPDEST DUP3 ADD SWAP2 SWAP1 PUSH1 0x0 MSTORE PUSH1 0x20 PUSH1 0x0 KECCAK256 SWAP1 JUMPDEST DUP2 SLOAD DUP2 MSTORE SWAP1 PUSH1 0x1 ADD SWAP1 PUSH1 0x20 ADD DUP1 DUP4 GT PUSH2 0x744 JUMPI DUP3 SWAP1 SUB PUSH1 0x1F AND DUP3 ADD SWAP2 JUMPDEST POP POP POP POP POP SWAP1 DUP1 PUSH1 0x5 ADD PUSH1 0x0 SWAP1 SLOAD SWAP1 PUSH2 0x100 EXP SWAP1 DIV PUSH1 0xFF AND SWAP1 POP DUP6 JUMP JUMPDEST PUSH1 0x60 PUSH1 0x0 PUSH1 0x5 DUP4 PUSH1 0x40 MLOAD PUSH2 0x792 SWAP2 SWAP1 PUSH2 0x34D0 JUMP JUMPDEST SWAP1 DUP2 MSTORE PUSH1 0x20 ADD PUSH1 0x40 MLOAD DUP1 SWAP2 SUB SWAP1 KECCAK256 SWAP1 POP PUSH1 0x0 DUP1 JUMPDEST DUP3 DUP1 SLOAD SWAP1 POP DUP2 LT ISZERO PUSH2 0x847 JUMPI PUSH1 0x4 DUP6 PUSH1 0x40 MLOAD PUSH2 0x7C2 SWAP2 SWAP1 PUSH2 0x34D0 JUMP JUMPDEST SWAP1 DUP2 MSTORE PUSH1 0x20 ADD PUSH1 0x40 MLOAD DUP1 SWAP2 SUB SWAP1 KECCAK256 PUSH1 0x0 DUP5 DUP4 DUP2 SLOAD DUP2 LT PUSH2 0x7E5 JUMPI PUSH2 0x7E4 PUSH2 0x34E7 JUMP JUMPDEST JUMPDEST SWAP1 PUSH1 0x0 MSTORE PUSH1 0x20 PUSH1 0x0 KECCAK256 SWAP1 PUSH1 0x6 MUL ADD PUSH1 0x0 ADD PUSH1 0x0 SWAP1 SLOAD SWAP1 PUSH2 0x100 EXP SWAP1 DIV PUSH1 0xFF AND PUSH1 0xFF AND PUSH1 0xFF AND DUP2 MSTORE PUSH1 0x20 ADD SWAP1 DUP2 MSTORE PUSH1 0x20 ADD PUSH1 0x0 KECCAK256 PUSH1 0x0 SWAP1 SLOAD SWAP1 PUSH2 0x100 EXP SWAP1 DIV PUSH1 0xFF AND ISZERO PUSH2 0x83A JUMPI DUP2 DUP1 PUSH2 0x836 SWAP1 PUSH2 0x3545 JUMP JUMPDEST SWAP3 POP POP JUMPDEST DUP1 DUP1 PUSH1 0x1 ADD SWAP2 POP POP PUSH2 0x7A6 JUMP JUMPDEST POP PUSH1 0x0 DUP2 PUSH8 0xFFFFFFFFFFFFFFFF DUP2 GT ISZERO PUSH2 0x864 JUMPI PUSH2 0x863 PUSH2 0x24B0 JUMP JUMPDEST JUMPDEST PUSH1 0x40 MLOAD SWAP1 DUP1 DUP3 MSTORE DUP1 PUSH1 0x20 MUL PUSH1 0x20 ADD DUP3 ADD PUSH1 0x40 MSTORE DUP1 ISZERO PUSH2 0x89D JUMPI DUP2 PUSH1 0x20 ADD JUMPDEST PUSH2 0x88A PUSH2 0x2396 JUMP JUMPDEST DUP2 MSTORE PUSH1 0x20 ADD SWAP1 PUSH1 0x1 SWAP1 SUB SWAP1 DUP2 PUSH2 0x882 JUMPI SWAP1 POP JUMPDEST POP SWAP1 POP PUSH1 0x0 DUP1 JUMPDEST DUP5 DUP1 SLOAD SWAP1 POP DUP2 LT ISZERO PUSH2 0xC56 JUMPI PUSH1 0x4 DUP8 PUSH1 0x40 MLOAD PUSH2 0x8C0 SWAP2 SWAP1 PUSH2 0x34D0 JUMP JUMPDEST SWAP1 DUP2 MSTORE PUSH1 0x20 ADD PUSH1 0x40 MLOAD DUP1 SWAP2 SUB SWAP1 KECCAK256 PUSH1 0x0 DUP7 DUP4 DUP2 SLOAD DUP2 LT PUSH2 0x8E3 JUMPI PUSH2 0x8E2 PUSH2 0x34E7 JUMP JUMPDEST JUMPDEST SWAP1 PUSH1 0x0 MSTORE PUSH1 0x20 PUSH1 0x0 KECCAK256 SWAP1 PUSH1 0x6 MUL ADD PUSH1 0x0 ADD PUSH1 0x0 SWAP1 SLOAD SWAP1 PUSH2 0x100 EXP SWAP1 DIV PUSH1 0xFF AND PUSH1 0xFF AND PUSH1 0xFF AND DUP2 MSTORE PUSH1 0x20 ADD SWAP1 DUP2 MSTORE PUSH1 0x20 ADD PUSH1 0x0 KECCAK256 PUSH1 0x0 SWAP1 SLOAD SWAP1 PUSH2 0x100 EXP SWAP1 DIV PUSH1 0xFF AND ISZERO PUSH2 0xC49 JUMPI DUP5 DUP2 DUP2 SLOAD DUP2 LT PUSH2 0x93C JUMPI PUSH2 0x93B PUSH2 0x34E7 JUMP JUMPDEST JUMPDEST SWAP1 PUSH1 0x0 MSTORE PUSH1 0x20 PUSH1 0x0 KECCAK256 SWAP1 PUSH1 0x6 MUL ADD PUSH1 0x40 MLOAD DUP1 PUSH1 0xC0 ADD PUSH1 0x40 MSTORE SWAP1 DUP2 PUSH1 0x0 DUP3 ADD PUSH1 0x0 SWAP1 SLOAD SWAP1 PUSH2 0x100 EXP SWAP1 DIV PUSH1 0xFF AND PUSH1 0xFF AND PUSH1 0xFF AND DUP2 MSTORE PUSH1 0x20 ADD PUSH1 0x1 DUP3 ADD DUP1 SLOAD PUSH2 0x982 SWAP1 PUSH2 0x31E5 JUMP JUMPDEST DUP1 PUSH1 0x1F ADD PUSH1 0x20 DUP1 SWAP2 DIV MUL PUSH1 0x20 ADD PUSH1 0x40 MLOAD SWAP1 DUP2 ADD PUSH1 0x40 MSTORE DUP1 SWAP3 SWAP2 SWAP1 DUP2 DUP2 MSTORE PUSH1 0x20 ADD DUP3 DUP1 SLOAD PUSH2 0x9AE SWAP1 PUSH2 0x31E5 JUMP JUMPDEST DUP1 ISZERO PUSH2 0x9FB JUMPI DUP1 PUSH1 0x1F LT PUSH2 0x9D0 JUMPI PUSH2 0x100 DUP1 DUP4 SLOAD DIV MUL DUP4 MSTORE SWAP2 PUSH1 0x20 ADD SWAP2 PUSH2 0x9FB JUMP JUMPDEST DUP3 ADD SWAP2 SWAP1 PUSH1 0x0 MSTORE PUSH1 0x20 PUSH1 0x0 KECCAK256 SWAP1 JUMPDEST DUP2 SLOAD DUP2 MSTORE SWAP1 PUSH1 0x1 ADD SWAP1 PUSH1 0x20 ADD DUP1 DUP4 GT PUSH2 0x9DE JUMPI DUP3 SWAP1 SUB PUSH1 0x1F AND DUP3 ADD SWAP2 JUMPDEST POP POP POP POP POP DUP2 MSTORE PUSH1 0x20 ADD PUSH1 0x2 DUP3 ADD DUP1 SLOAD PUSH2 0xA14 SWAP1 PUSH2 0x31E5 JUMP JUMPDEST DUP1 PUSH1 0x1F ADD PUSH1 0x20 DUP1 SWAP2 DIV MUL PUSH1 0x20 ADD PUSH1 0x40 MLOAD SWAP1 DUP2 ADD PUSH1 0x40 MSTORE DUP1 SWAP3 SWAP2 SWAP1 DUP2 DUP2 MSTORE PUSH1 0x20 ADD DUP3 DUP1 SLOAD PUSH2 0xA40 SWAP1 PUSH2 0x31E5 JUMP JUMPDEST DUP1 ISZERO PUSH2 0xA8D JUMPI DUP1 PUSH1 0x1F LT PUSH2 0xA62 JUMPI PUSH2 0x100 DUP1 DUP4 SLOAD DIV MUL DUP4 MSTORE SWAP2 PUSH1 0x20 ADD SWAP2 PUSH2 0xA8D JUMP JUMPDEST DUP3 ADD SWAP2 SWAP1 PUSH1 0x0 MSTORE PUSH1 0x20 PUSH1 0x0 KECCAK256 SWAP1 JUMPDEST DUP2 SLOAD DUP2 MSTORE SWAP1 PUSH1 0x1 ADD SWAP1 PUSH1 0x20 ADD DUP1 DUP4 GT PUSH2 0xA70 JUMPI DUP3 SWAP1 SUB PUSH1 0x1F AND DUP3 ADD SWAP2 JUMPDEST POP POP POP POP POP DUP2 MSTORE PUSH1 0x20 ADD PUSH1 0x3 DUP3 ADD DUP1 SLOAD PUSH2 0xAA6 SWAP1 PUSH2 0x31E5 JUMP JUMPDEST DUP1 PUSH1 0x1F ADD PUSH1 0x20 DUP1 SWAP2 DIV MUL PUSH1 0x20 ADD PUSH1 0x40 MLOAD SWAP1 DUP2 ADD PUSH1 0x40 MSTORE DUP1 SWAP3 SWAP2 SWAP1 DUP2 DUP2 MSTORE PUSH1 0x20 ADD DUP3 DUP1 SLOAD PUSH2 0xAD2 SWAP1 PUSH2 0x31E5 JUMP JUMPDEST DUP1 ISZERO PUSH2 0xB1F JUMPI DUP1 PUSH1 0x1F LT PUSH2 0xAF4 JUMPI PUSH2 0x100 DUP1 DUP4 SLOAD DIV MUL DUP4 MSTORE SWAP2 PUSH1 0x20 ADD SWAP2 PUSH2 0xB1F JUMP JUMPDEST DUP3 ADD SWAP2 SWAP1 PUSH1 0x0 MSTORE PUSH1 0x20 PUSH1 0x0 KECCAK256 SWAP1 JUMPDEST DUP2 SLOAD DUP2 MSTORE SWAP1 PUSH1 0x1 ADD SWAP1 PUSH1 0x20 ADD DUP1 DUP4 GT PUSH2 0xB02 JUMPI DUP3 SWAP1 SUB PUSH1 0x1F AND DUP3 ADD SWAP2 JUMPDEST POP POP POP POP POP DUP2 MSTORE PUSH1 0x20 ADD PUSH1 0x4 DUP3 ADD DUP1 SLOAD DUP1 PUSH1 0x20 MUL PUSH1 0x20 ADD PUSH1 0x40 MLOAD SWAP1 DUP2 ADD PUSH1 0x40 MSTORE DUP1 SWAP3 SWAP2 SWAP1 DUP2 DUP2 MSTORE PUSH1 0x20 ADD PUSH1 0x0 SWAP1 JUMPDEST DUP3 DUP3 LT ISZERO PUSH2 0xBF9 JUMPI DUP4 DUP3 SWAP1 PUSH1 0x0 MSTORE PUSH1 0x20 PUSH1 0x0 KECCAK256 ADD DUP1 SLOAD PUSH2 0xB6C SWAP1 PUSH2 0x31E5 JUMP JUMPDEST DUP1 PUSH1 0x1F ADD PUSH1 0x20 DUP1 SWAP2 DIV MUL PUSH1 0x20 ADD PUSH1 0x40 MLOAD SWAP1 DUP2 ADD PUSH1 0x40 MSTORE DUP1 SWAP3 SWAP2 SWAP1 DUP2 DUP2 MSTORE PUSH1 0x20 ADD DUP3 DUP1 SLOAD PUSH2 0xB98 SWAP1 PUSH2 0x31E5 JUMP JUMPDEST DUP1 ISZERO PUSH2 0xBE5 JUMPI DUP1 PUSH1 0x1F LT PUSH2 0xBBA JUMPI PUSH2 0x100 DUP1 DUP4 SLOAD DIV MUL DUP4 MSTORE SWAP2 PUSH1 0x20 ADD SWAP2 PUSH2 0xBE5 JUMP JUMPDEST DUP3 ADD SWAP2 SWAP1 PUSH1 0x0 MSTORE PUSH1 0x20 PUSH1 0x0 KECCAK256 SWAP1 JUMPDEST DUP2 SLOAD DUP2 MSTORE SWAP1 PUSH1 0x1 ADD SWAP1 PUSH1 0x20 ADD DUP1 DUP4 GT PUSH2 0xBC8 JUMPI DUP3 SWAP1 SUB PUSH1 0x1F AND DUP3 ADD SWAP2 JUMPDEST POP POP POP POP POP DUP2 MSTORE PUSH1 0x20 ADD SWAP1 PUSH1 0x1 ADD SWAP1 PUSH2 0xB4D JUMP JUMPDEST POP POP POP POP DUP2 MSTORE PUSH1 0x20 ADD PUSH1 0x5 DUP3 ADD PUSH1 0x0 SWAP1 SLOAD SWAP1 PUSH2 0x100 EXP SWAP1 DIV PUSH1 0xFF AND ISZERO ISZERO ISZERO ISZERO DUP2 MSTORE POP POP DUP4 DUP4 DUP2 MLOAD DUP2 LT PUSH2 0xC2F JUMPI PUSH2 0xC2E PUSH2 0x34E7 JUMP JUMPDEST JUMPDEST PUSH1 0x20 MUL PUSH1 0x20 ADD ADD DUP2 SWAP1 MSTORE POP DUP2 DUP1 PUSH2 0xC45 SWAP1 PUSH2 0x3545 JUMP JUMPDEST SWAP3 POP POP JUMPDEST DUP1 DUP1 PUSH1 0x1 ADD SWAP2 POP POP PUSH2 0x8A4 JUMP JUMPDEST POP DUP2 SWAP5 POP POP POP POP POP SWAP2 SWAP1 POP JUMP JUMPDEST PUSH1 0x0 DUP1 DUP2 DUP2 SWAP1 SLOAD SWAP1 PUSH2 0x100 EXP SWAP1 DIV PUSH1 0xFF AND DUP1 SWAP3 SWAP2 SWAP1 PUSH2 0xC81 SWAP1 PUSH2 0x358D JUMP JUMPDEST SWAP2 SWAP1 PUSH2 0x100 EXP DUP2 SLOAD DUP2 PUSH1 0xFF MUL NOT AND SWAP1 DUP4 PUSH1 0xFF AND MUL OR SWAP1 SSTORE POP POP PUSH1 0x0 PUSH1 0x2 DUP3 PUSH1 0x40 MLOAD PUSH2 0xCAC SWAP2 SWAP1 PUSH2 0x34D0 JUMP JUMPDEST SWAP1 DUP2 MSTORE PUSH1 0x20 ADD PUSH1 0x40 MLOAD DUP1 SWAP2 SUB SWAP1 KECCAK256 SWAP1 POP DUP2 DUP2 PUSH1 0x0 ADD SWAP1 DUP2 PUSH2 0xCCD SWAP2 SWAP1 PUSH2 0x33C2 JUMP JUMPDEST POP PUSH1 0x0 DUP2 PUSH1 0x1 ADD PUSH1 0x0 PUSH2 0x100 EXP DUP2 SLOAD DUP2 PUSH1 0xFF MUL NOT AND SWAP1 DUP4 ISZERO ISZERO MUL OR SWAP1 SSTORE POP PUSH1 0x0 DUP2 PUSH1 0x1 ADD PUSH1 0x1 PUSH2 0x100 EXP DUP2 SLOAD DUP2 PUSH1 0xFF MUL NOT AND SWAP1 DUP4 ISZERO ISZERO MUL OR SWAP1 SSTORE POP PUSH1 0x0 DUP2 PUSH1 0x1 ADD PUSH1 0x2 PUSH2 0x100 EXP DUP2 SLOAD DUP2 PUSH1 0xFF MUL NOT AND SWAP1 DUP4 PUSH1 0xFF AND MUL OR SWAP1 SSTORE POP PUSH1 0x0 JUMPDEST DUP4 MLOAD DUP2 LT ISZERO PUSH2 0x1214 JUMPI PUSH1 0x0 PUSH1 0x3 PUSH1 0x0 DUP7 DUP5 DUP2 MLOAD DUP2 LT PUSH2 0xD4B JUMPI PUSH2 0xD4A PUSH2 0x34E7 JUMP JUMPDEST JUMPDEST PUSH1 0x20 MUL PUSH1 0x20 ADD ADD MLOAD PUSH1 0xFF AND PUSH1 0xFF AND DUP2 MSTORE PUSH1 0x20 ADD SWAP1 DUP2 MSTORE PUSH1 0x20 ADD PUSH1 0x0 KECCAK256 PUSH1 0x0 ADD PUSH1 0x0 SWAP1 SLOAD SWAP1 PUSH2 0x100 EXP SWAP1 DIV PUSH1 0xFF AND PUSH1 0xFF AND SUB PUSH2 0xDBB JUMPI PUSH1 0x40 MLOAD PUSH32 0x8C379A000000000000000000000000000000000000000000000000000000000 DUP2 MSTORE PUSH1 0x4 ADD PUSH2 0xDB2 SWAP1 PUSH2 0x3602 JUMP JUMPDEST PUSH1 0x40 MLOAD DUP1 SWAP2 SUB SWAP1 REVERT JUMPDEST PUSH1 0x0 PUSH1 0x3 PUSH1 0x0 DUP7 DUP5 DUP2 MLOAD DUP2 LT PUSH2 0xDD4 JUMPI PUSH2 0xDD3 PUSH2 0x34E7 JUMP JUMPDEST JUMPDEST PUSH1 0x20 MUL PUSH1 0x20 ADD ADD MLOAD PUSH1 0xFF AND PUSH1 0xFF AND DUP2 MSTORE PUSH1 0x20 ADD SWAP1 DUP2 MSTORE PUSH1 0x20 ADD PUSH1 0x0 KECCAK256 PUSH1 0x40 MLOAD DUP1 PUSH1 0xC0 ADD PUSH1 0x40 MSTORE SWAP1 DUP2 PUSH1 0x0 DUP3 ADD PUSH1 0x0 SWAP1 SLOAD SWAP1 PUSH2 0x100 EXP SWAP1 DIV PUSH1 0xFF AND PUSH1 0xFF AND PUSH1 0xFF AND DUP2 MSTORE PUSH1 0x20 ADD PUSH1 0x1 DUP3 ADD DUP1 SLOAD PUSH2 0xE28 SWAP1 PUSH2 0x31E5 JUMP JUMPDEST DUP1 PUSH1 0x1F ADD PUSH1 0x20 DUP1 SWAP2 DIV MUL PUSH1 0x20 ADD PUSH1 0x40 MLOAD SWAP1 DUP2 ADD PUSH1 0x40 MSTORE DUP1 SWAP3 SWAP2 SWAP1 DUP2 DUP2 MSTORE PUSH1 0x20 ADD DUP3 DUP1 SLOAD PUSH2 0xE54 SWAP1 PUSH2 0x31E5 JUMP JUMPDEST DUP1 ISZERO PUSH2 0xEA1 JUMPI DUP1 PUSH1 0x1F LT PUSH2 0xE76 JUMPI PUSH2 0x100 DUP1 DUP4 SLOAD DIV MUL DUP4 MSTORE SWAP2 PUSH1 0x20 ADD SWAP2 PUSH2 0xEA1 JUMP JUMPDEST DUP3 ADD SWAP2 SWAP1 PUSH1 0x0 MSTORE PUSH1 0x20 PUSH1 0x0 KECCAK256 SWAP1 JUMPDEST DUP2 SLOAD DUP2 MSTORE SWAP1 PUSH1 0x1 ADD SWAP1 PUSH1 0x20 ADD DUP1 DUP4 GT PUSH2 0xE84 JUMPI DUP3 SWAP1 SUB PUSH1 0x1F AND DUP3 ADD SWAP2 JUMPDEST POP POP POP POP POP DUP2 MSTORE PUSH1 0x20 ADD PUSH1 0x2 DUP3 ADD DUP1 SLOAD PUSH2 0xEBA SWAP1 PUSH2 0x31E5 JUMP JUMPDEST DUP1 PUSH1 0x1F ADD PUSH1 0x20 DUP1 SWAP2 DIV MUL PUSH1 0x20 ADD PUSH1 0x40 MLOAD SWAP1 DUP2 ADD PUSH1 0x40 MSTORE DUP1 SWAP3 SWAP2 SWAP1 DUP2 DUP2 MSTORE PUSH1 0x20 ADD DUP3 DUP1 SLOAD PUSH2 0xEE6 SWAP1 PUSH2 0x31E5 JUMP JUMPDEST DUP1 ISZERO PUSH2 0xF33 JUMPI DUP1 PUSH1 0x1F LT PUSH2 0xF08 JUMPI PUSH2 0x100 DUP1 DUP4 SLOAD DIV MUL DUP4 MSTORE SWAP2 PUSH1 0x20 ADD SWAP2 PUSH2 0xF33 JUMP JUMPDEST DUP3 ADD SWAP2 SWAP1 PUSH1 0x0 MSTORE PUSH1 0x20 PUSH1 0x0 KECCAK256 SWAP1 JUMPDEST DUP2 SLOAD DUP2 MSTORE SWAP1 PUSH1 0x1 ADD SWAP1 PUSH1 0x20 ADD DUP1 DUP4 GT PUSH2 0xF16 JUMPI DUP3 SWAP1 SUB PUSH1 0x1F AND DUP3 ADD SWAP2 JUMPDEST POP POP POP POP POP DUP2 MSTORE PUSH1 0x20 ADD PUSH1 0x3 DUP3 ADD DUP1 SLOAD PUSH2 0xF4C SWAP1 PUSH2 0x31E5 JUMP JUMPDEST DUP1 PUSH1 0x1F ADD PUSH1 0x20 DUP1 SWAP2 DIV MUL PUSH1 0x20 ADD PUSH1 0x40 MLOAD SWAP1 DUP2 ADD PUSH1 0x40 MSTORE DUP1 SWAP3 SWAP2 SWAP1 DUP2 DUP2 MSTORE PUSH1 0x20 ADD DUP3 DUP1 SLOAD PUSH2 0xF78 SWAP1 PUSH2 0x31E5 JUMP JUMPDEST DUP1 ISZERO PUSH2 0xFC5 JUMPI DUP1 PUSH1 0x1F LT PUSH2 0xF9A JUMPI PUSH2 0x100 DUP1 DUP4 SLOAD DIV MUL DUP4 MSTORE SWAP2 PUSH1 0x20 ADD SWAP2 PUSH2 0xFC5 JUMP JUMPDEST DUP3 ADD SWAP2 SWAP1 PUSH1 0x0 MSTORE PUSH1 0x20 PUSH1 0x0 KECCAK256 SWAP1 JUMPDEST DUP2 SLOAD DUP2 MSTORE SWAP1 PUSH1 0x1 ADD SWAP1 PUSH1 0x20 ADD DUP1 DUP4 GT PUSH2 0xFA8 JUMPI DUP3 SWAP1 SUB PUSH1 0x1F AND DUP3 ADD SWAP2 JUMPDEST POP POP POP POP POP DUP2 MSTORE PUSH1 0x20 ADD PUSH1 0x4 DUP3 ADD DUP1 SLOAD DUP1 PUSH1 0x20 MUL PUSH1 0x20 ADD PUSH1 0x40 MLOAD SWAP1 DUP2 ADD PUSH1 0x40 MSTORE DUP1 SWAP3 SWAP2 SWAP1 DUP2 DUP2 MSTORE PUSH1 0x20 ADD PUSH1 0x0 SWAP1 JUMPDEST DUP3 DUP3 LT ISZERO PUSH2 0x109F JUMPI DUP4 DUP3 SWAP1 PUSH1 0x0 MSTORE PUSH1 0x20 PUSH1 0x0 KECCAK256 ADD DUP1 SLOAD PUSH2 0x1012 SWAP1 PUSH2 0x31E5 JUMP JUMPDEST DUP1 PUSH1 0x1F ADD PUSH1 0x20 DUP1 SWAP2 DIV MUL PUSH1 0x20 ADD PUSH1 0x40 MLOAD SWAP1 DUP2 ADD PUSH1 0x40 MSTORE DUP1 SWAP3 SWAP2 SWAP1 DUP2 DUP2 MSTORE PUSH1 0x20 ADD DUP3 DUP1 SLOAD PUSH2 0x103E SWAP1 PUSH2 0x31E5 JUMP JUMPDEST DUP1 ISZERO PUSH2 0x108B JUMPI DUP1 PUSH1 0x1F LT PUSH2 0x1060 JUMPI PUSH2 0x100 DUP1 DUP4 SLOAD DIV MUL DUP4 MSTORE SWAP2 PUSH1 0x20 ADD SWAP2 PUSH2 0x108B JUMP JUMPDEST DUP3 ADD SWAP2 SWAP1 PUSH1 0x0 MSTORE PUSH1 0x20 PUSH1 0x0 KECCAK256 SWAP1 JUMPDEST DUP2 SLOAD DUP2 MSTORE SWAP1 PUSH1 0x1 ADD SWAP1 PUSH1 0x20 ADD DUP1 DUP4 GT PUSH2 0x106E JUMPI DUP3 SWAP1 SUB PUSH1 0x1F AND DUP3 ADD SWAP2 JUMPDEST POP POP POP POP POP DUP2 MSTORE PUSH1 0x20 ADD SWAP1 PUSH1 0x1 ADD SWAP1 PUSH2 0xFF3 JUMP JUMPDEST POP POP POP POP DUP2 MSTORE PUSH1 0x20 ADD PUSH1 0x5 DUP3 ADD PUSH1 0x0 SWAP1 SLOAD SWAP1 PUSH2 0x100 EXP SWAP1 DIV PUSH1 0xFF AND ISZERO ISZERO ISZERO ISZERO DUP2 MSTORE POP POP SWAP1 POP PUSH1 0x5 DUP4 PUSH1 0x0 ADD PUSH1 0x40 MLOAD PUSH2 0x10D7 SWAP2 SWAP1 PUSH2 0x36A5 JUMP JUMPDEST SWAP1 DUP2 MSTORE PUSH1 0x20 ADD PUSH1 0x40 MLOAD DUP1 SWAP2 SUB SWAP1 KECCAK256 DUP2 SWAP1 DUP1 PUSH1 0x1 DUP2 SLOAD ADD DUP1 DUP3 SSTORE DUP1 SWAP2 POP POP PUSH1 0x1 SWAP1 SUB SWAP1 PUSH1 0x0 MSTORE PUSH1 0x20 PUSH1 0x0 KECCAK256 SWAP1 PUSH1 0x6 MUL ADD PUSH1 0x0 SWAP1 SWAP2 SWAP1 SWAP2 SWAP1 SWAP2 POP PUSH1 0x0 DUP3 ADD MLOAD DUP2 PUSH1 0x0 ADD PUSH1 0x0 PUSH2 0x100 EXP DUP2 SLOAD DUP2 PUSH1 0xFF MUL NOT AND SWAP1 DUP4 PUSH1 0xFF AND MUL OR SWAP1 SSTORE POP PUSH1 0x20 DUP3 ADD MLOAD DUP2 PUSH1 0x1 ADD SWAP1 DUP2 PUSH2 0x1145 SWAP2 SWAP1 PUSH2 0x33C2 JUMP JUMPDEST POP PUSH1 0x40 DUP3 ADD MLOAD DUP2 PUSH1 0x2 ADD SWAP1 DUP2 PUSH2 0x115B SWAP2 SWAP1 PUSH2 0x33C2 JUMP JUMPDEST POP PUSH1 0x60 DUP3 ADD MLOAD DUP2 PUSH1 0x3 ADD SWAP1 DUP2 PUSH2 0x1171 SWAP2 SWAP1 PUSH2 0x33C2 JUMP JUMPDEST POP PUSH1 0x80 DUP3 ADD MLOAD DUP2 PUSH1 0x4 ADD SWAP1 DUP1 MLOAD SWAP1 PUSH1 0x20 ADD SWAP1 PUSH2 0x118E SWAP3 SWAP2 SWAP1 PUSH2 0x233D JUMP JUMPDEST POP PUSH1 0xA0 DUP3 ADD MLOAD DUP2 PUSH1 0x5 ADD PUSH1 0x0 PUSH2 0x100 EXP DUP2 SLOAD DUP2 PUSH1 0xFF MUL NOT AND SWAP1 DUP4 ISZERO ISZERO MUL OR SWAP1 SSTORE POP POP POP PUSH1 0x0 PUSH1 0x4 DUP5 PUSH1 0x0 ADD PUSH1 0x40 MLOAD PUSH2 0x11C6 SWAP2 SWAP1 PUSH2 0x36A5 JUMP JUMPDEST SWAP1 DUP2 MSTORE PUSH1 0x20 ADD PUSH1 0x40 MLOAD DUP1 SWAP2 SUB SWAP1 KECCAK256 PUSH1 0x0 DUP4 PUSH1 0x0 ADD MLOAD PUSH1 0xFF AND PUSH1 0xFF AND DUP2 MSTORE PUSH1 0x20 ADD SWAP1 DUP2 MSTORE PUSH1 0x20 ADD PUSH1 0x0 KECCAK256 PUSH1 0x0 PUSH2 0x100 EXP DUP2 SLOAD DUP2 PUSH1 0xFF MUL NOT AND SWAP1 DUP4 ISZERO ISZERO MUL OR SWAP1 SSTORE POP POP DUP1 DUP1 PUSH1 0x1 ADD SWAP2 POP POP PUSH2 0xD29 JUMP JUMPDEST POP PUSH1 0x1 PUSH1 0x0 CALLER PUSH20 0xFFFFFFFFFFFFFFFFFFFFFFFFFFFFFFFFFFFFFFFF AND PUSH20 0xFFFFFFFFFFFFFFFFFFFFFFFFFFFFFFFFFFFFFFFF AND DUP2 MSTORE PUSH1 0x20 ADD SWAP1 DUP2 MSTORE PUSH1 0x20 ADD PUSH1 0x0 KECCAK256 DUP2 SWAP1 DUP1 PUSH1 0x1 DUP2 SLOAD ADD DUP1 DUP3 SSTORE DUP1 SWAP2 POP POP PUSH1 0x1 SWAP1 SUB SWAP1 PUSH1 0x0 MSTORE PUSH1 0x20 PUSH1 0x0 KECCAK256 SWAP1 PUSH1 0x2 MUL ADD PUSH1 0x0 SWAP1 SWAP2 SWAP1 SWAP2 SWAP1 SWAP2 POP PUSH1 0x0 DUP3 ADD DUP2 PUSH1 0x0 ADD SWAP1 DUP2 PUSH2 0x1292 SWAP2 SWAP1 PUSH2 0x36D2 JUMP JUMPDEST POP PUSH1 0x1 DUP3 ADD PUSH1 0x0 SWAP1 SLOAD SWAP1 PUSH2 0x100 EXP SWAP1 DIV PUSH1 0xFF AND DUP2 PUSH1 0x1 ADD PUSH1 0x0 PUSH2 0x100 EXP DUP2 SLOAD DUP2 PUSH1 0xFF MUL NOT AND SWAP1 DUP4 ISZERO ISZERO MUL OR SWAP1 SSTORE POP PUSH1 0x1 DUP3 ADD PUSH1 0x1 SWAP1 SLOAD SWAP1 PUSH2 0x100 EXP SWAP1 DIV PUSH1 0xFF AND DUP2 PUSH1 0x1 ADD PUSH1 0x1 PUSH2 0x100 EXP DUP2 SLOAD DUP2 PUSH1 0xFF MUL NOT AND SWAP1 DUP4 ISZERO ISZERO MUL OR SWAP1 SSTORE POP PUSH1 0x1 DUP3 ADD PUSH1 0x2 SWAP1 SLOAD SWAP1 PUSH2 0x100 EXP SWAP1 DIV PUSH1 0xFF AND DUP2 PUSH1 0x1 ADD PUSH1 0x2 PUSH2 0x100 EXP DUP2 SLOAD DUP2 PUSH1 0xFF MUL NOT AND SWAP1 DUP4 PUSH1 0xFF AND MUL OR SWAP1 SSTORE POP POP POP POP POP POP JUMP JUMPDEST PUSH1 0x0 DUP1 SLOAD SWAP1 PUSH2 0x100 EXP SWAP1 DIV PUSH1 0xFF AND DUP2 JUMP JUMPDEST PUSH2 0x133B PUSH2 0x23D1 JUMP JUMPDEST PUSH1 0x2 DUP3 PUSH1 0x40 MLOAD PUSH2 0x134B SWAP2 SWAP1 PUSH2 0x34D0 JUMP JUMPDEST SWAP1 DUP2 MSTORE PUSH1 0x20 ADD PUSH1 0x40 MLOAD DUP1 SWAP2 SUB SWAP1 KECCAK256 PUSH1 0x40 MLOAD DUP1 PUSH1 0x80 ADD PUSH1 0x40 MSTORE SWAP1 DUP2 PUSH1 0x0 DUP3 ADD DUP1 SLOAD PUSH2 0x1374 SWAP1 PUSH2 0x31E5 JUMP JUMPDEST DUP1 PUSH1 0x1F ADD PUSH1 0x20 DUP1 SWAP2 DIV MUL PUSH1 0x20 ADD PUSH1 0x40 MLOAD SWAP1 DUP2 ADD PUSH1 0x40 MSTORE DUP1 SWAP3 SWAP2 SWAP1 DUP2 DUP2 MSTORE PUSH1 0x20 ADD DUP3 DUP1 SLOAD PUSH2 0x13A0 SWAP1 PUSH2 0x31E5 JUMP JUMPDEST DUP1 ISZERO PUSH2 0x13ED JUMPI DUP1 PUSH1 0x1F LT PUSH2 0x13C2 JUMPI PUSH2 0x100 DUP1 DUP4 SLOAD DIV MUL DUP4 MSTORE SWAP2 PUSH1 0x20 ADD SWAP2 PUSH2 0x13ED JUMP JUMPDEST DUP3 ADD SWAP2 SWAP1 PUSH1 0x0 MSTORE PUSH1 0x20 PUSH1 0x0 KECCAK256 SWAP1 JUMPDEST DUP2 SLOAD DUP2 MSTORE SWAP1 PUSH1 0x1 ADD SWAP1 PUSH1 0x20 ADD DUP1 DUP4 GT PUSH2 0x13D0 JUMPI DUP3 SWAP1 SUB PUSH1 0x1F AND DUP3 ADD SWAP2 JUMPDEST POP POP POP POP POP DUP2 MSTORE PUSH1 0x20 ADD PUSH1 0x1 DUP3 ADD PUSH1 0x0 SWAP1 SLOAD SWAP1 PUSH2 0x100 EXP SWAP1 DIV PUSH1 0xFF AND ISZERO ISZERO ISZERO ISZERO DUP2 MSTORE PUSH1 0x20 ADD PUSH1 0x1 DUP3 ADD PUSH1 0x1 SWAP1 SLOAD SWAP1 PUSH2 0x100 EXP SWAP1 DIV PUSH1 0xFF AND ISZERO ISZERO ISZERO ISZERO DUP2 MSTORE PUSH1 0x20 ADD PUSH1 0x1 DUP3 ADD PUSH1 0x2 SWAP1 SLOAD SWAP1 PUSH2 0x100 EXP SWAP1 DIV PUSH1 0xFF AND PUSH1 0xFF AND PUSH1 0xFF AND DUP2 MSTORE POP POP SWAP1 POP SWAP2 SWAP1 POP JUMP JUMPDEST PUSH1 0x60 PUSH1 0x0 PUSH1 0x5 DUP4 PUSH1 0x40 MLOAD PUSH2 0x1464 SWAP2 SWAP1 PUSH2 0x34D0 JUMP JUMPDEST SWAP1 DUP2 MSTORE PUSH1 0x20 ADD PUSH1 0x40 MLOAD DUP1 SWAP2 SUB SWAP1 KECCAK256 SWAP1 POP PUSH1 0x0 DUP1 JUMPDEST DUP3 DUP1 SLOAD SWAP1 POP DUP2 LT ISZERO PUSH2 0x1518 JUMPI PUSH1 0x4 DUP6 PUSH1 0x40 MLOAD PUSH2 0x1494 SWAP2 SWAP1 PUSH2 0x34D0 JUMP JUMPDEST SWAP1 DUP2 MSTORE PUSH1 0x20 ADD PUSH1 0x40 MLOAD DUP1 SWAP2 SUB SWAP1 KECCAK256 PUSH1 0x0 DUP5 DUP4 DUP2 SLOAD DUP2 LT PUSH2 0x14B7 JUMPI PUSH2 0x14B6 PUSH2 0x34E7 JUMP JUMPDEST JUMPDEST SWAP1 PUSH1 0x0 MSTORE PUSH1 0x20 PUSH1 0x0 KECCAK256 SWAP1 PUSH1 0x6 MUL ADD PUSH1 0x0 ADD PUSH1 0x0 SWAP1 SLOAD SWAP1 PUSH2 0x100 EXP SWAP1 DIV PUSH1 0xFF AND PUSH1 0xFF AND PUSH1 0xFF AND DUP2 MSTORE PUSH1 0x20 ADD SWAP1 DUP2 MSTORE PUSH1 0x20 ADD PUSH1 0x0 KECCAK256 PUSH1 0x0 SWAP1 SLOAD SWAP1 PUSH2 0x100 EXP SWAP1 DIV PUSH1 0xFF AND PUSH2 0x150B JUMPI DUP2 DUP1 PUSH2 0x1507 SWAP1 PUSH2 0x3545 JUMP JUMPDEST SWAP3 POP POP JUMPDEST DUP1 DUP1 PUSH1 0x1 ADD SWAP2 POP POP PUSH2 0x1478 JUMP JUMPDEST POP PUSH1 0x0 DUP2 PUSH8 0xFFFFFFFFFFFFFFFF DUP2 GT ISZERO PUSH2 0x1535 JUMPI PUSH2 0x1534 PUSH2 0x24B0 JUMP JUMPDEST JUMPDEST PUSH1 0x40 MLOAD SWAP1 DUP1 DUP3 MSTORE DUP1 PUSH1 0x20 MUL PUSH1 0x20 ADD DUP3 ADD PUSH1 0x40 MSTORE DUP1 ISZERO PUSH2 0x156E JUMPI DUP2 PUSH1 0x20 ADD JUMPDEST PUSH2 0x155B PUSH2 0x2396 JUMP JUMPDEST DUP2 MSTORE PUSH1 0x20 ADD SWAP1 PUSH1 0x1 SWAP1 SUB SWAP1 DUP2 PUSH2 0x1553 JUMPI SWAP1 POP JUMPDEST POP SWAP1 POP PUSH1 0x0 DUP1 JUMPDEST DUP5 DUP1 SLOAD SWAP1 POP DUP2 LT ISZERO PUSH2 0x1926 JUMPI PUSH1 0x4 DUP8 PUSH1 0x40 MLOAD PUSH2 0x1591 SWAP2 SWAP1 PUSH2 0x34D0 JUMP JUMPDEST SWAP1 DUP2 MSTORE PUSH1 0x20 ADD PUSH1 0x40 MLOAD DUP1 SWAP2 SUB SWAP1 KECCAK256 PUSH1 0x0 DUP7 DUP4 DUP2 SLOAD DUP2 LT PUSH2 0x15B4 JUMPI PUSH2 0x15B3 PUSH2 0x34E7 JUMP JUMPDEST JUMPDEST SWAP1 PUSH1 0x0 MSTORE PUSH1 0x20 PUSH1 0x0 KECCAK256 SWAP1 PUSH1 0x6 MUL ADD PUSH1 0x0 ADD PUSH1 0x0 SWAP1 SLOAD SWAP1 PUSH2 0x100 EXP SWAP1 DIV PUSH1 0xFF AND PUSH1 0xFF AND PUSH1 0xFF AND DUP2 MSTORE PUSH1 0x20 ADD SWAP1 DUP2 MSTORE PUSH1 0x20 ADD PUSH1 0x0 KECCAK256 PUSH1 0x0 SWAP1 SLOAD SWAP1 PUSH2 0x100 EXP SWAP1 DIV PUSH1 0xFF AND PUSH2 0x1919 JUMPI DUP5 DUP2 DUP2 SLOAD DUP2 LT PUSH2 0x160C JUMPI PUSH2 0x160B PUSH2 0x34E7 JUMP JUMPDEST JUMPDEST SWAP1 PUSH1 0x0 MSTORE PUSH1 0x20 PUSH1 0x0 KECCAK256 SWAP1 PUSH1 0x6 MUL ADD PUSH1 0x40 MLOAD DUP1 PUSH1 0xC0 ADD PUSH1 0x40 MSTORE SWAP1 DUP2 PUSH1 0x0 DUP3 ADD PUSH1 0x0 SWAP1 SLOAD SWAP1 PUSH2 0x100 EXP SWAP1 DIV PUSH1 0xFF AND PUSH1 0xFF AND PUSH1 0xFF AND DUP2 MSTORE PUSH1 0x20 ADD PUSH1 0x1 DUP3 ADD DUP1 SLOAD PUSH2 0x1652 SWAP1 PUSH2 0x31E5 JUMP JUMPDEST DUP1 PUSH1 0x1F ADD PUSH1 0x20 DUP1 SWAP2 DIV MUL PUSH1 0x20 ADD PUSH1 0x40 MLOAD SWAP1 DUP2 ADD PUSH1 0x40 MSTORE DUP1 SWAP3 SWAP2 SWAP1 DUP2 DUP2 MSTORE PUSH1 0x20 ADD DUP3 DUP1 SLOAD PUSH2 0x167E SWAP1 PUSH2 0x31E5 JUMP JUMPDEST DUP1 ISZERO PUSH2 0x16CB JUMPI DUP1 PUSH1 0x1F LT PUSH2 0x16A0 JUMPI PUSH2 0x100 DUP1 DUP4 SLOAD DIV MUL DUP4 MSTORE SWAP2 PUSH1 0x20 ADD SWAP2 PUSH2 0x16CB JUMP JUMPDEST DUP3 ADD SWAP2 SWAP1 PUSH1 0x0 MSTORE PUSH1 0x20 PUSH1 0x0 KECCAK256 SWAP1 JUMPDEST DUP2 SLOAD DUP2 MSTORE SWAP1 PUSH1 0x1 ADD SWAP1 PUSH1 0x20 ADD DUP1 DUP4 GT PUSH2 0x16AE JUMPI DUP3 SWAP1 SUB PUSH1 0x1F AND DUP3 ADD SWAP2 JUMPDEST POP POP POP POP POP DUP2 MSTORE PUSH1 0x20 ADD PUSH1 0x2 DUP3 ADD DUP1 SLOAD PUSH2 0x16E4 SWAP1 PUSH2 0x31E5 JUMP JUMPDEST DUP1 PUSH1 0x1F ADD PUSH1 0x20 DUP1 SWAP2 DIV MUL PUSH1 0x20 ADD PUSH1 0x40 MLOAD SWAP1 DUP2 ADD PUSH1 0x40 MSTORE DUP1 SWAP3 SWAP2 SWAP1 DUP2 DUP2 MSTORE PUSH1 0x20 ADD DUP3 DUP1 SLOAD PUSH2 0x1710 SWAP1 PUSH2 0x31E5 JUMP JUMPDEST DUP1 ISZERO PUSH2 0x175D JUMPI DUP1 PUSH1 0x1F LT PUSH2 0x1732 JUMPI PUSH2 0x100 DUP1 DUP4 SLOAD DIV MUL DUP4 MSTORE SWAP2 PUSH1 0x20 ADD SWAP2 PUSH2 0x175D JUMP JUMPDEST DUP3 ADD SWAP2 SWAP1 PUSH1 0x0 MSTORE PUSH1 0x20 PUSH1 0x0 KECCAK256 SWAP1 JUMPDEST DUP2 SLOAD DUP2 MSTORE SWAP1 PUSH1 0x1 ADD SWAP1 PUSH1 0x20 ADD DUP1 DUP4 GT PUSH2 0x1740 JUMPI DUP3 SWAP1 SUB PUSH1 0x1F AND DUP3 ADD SWAP2 JUMPDEST POP POP POP POP POP DUP2 MSTORE PUSH1 0x20 ADD PUSH1 0x3 DUP3 ADD DUP1 SLOAD PUSH2 0x1776 SWAP1 PUSH2 0x31E5 JUMP JUMPDEST DUP1 PUSH1 0x1F ADD PUSH1 0x20 DUP1 SWAP2 DIV MUL PUSH1 0x20 ADD PUSH1 0x40 MLOAD SWAP1 DUP2 ADD PUSH1 0x40 MSTORE DUP1 SWAP3 SWAP2 SWAP1 DUP2 DUP2 MSTORE PUSH1 0x20 ADD DUP3 DUP1 SLOAD PUSH2 0x17A2 SWAP1 PUSH2 0x31E5 JUMP JUMPDEST DUP1 ISZERO PUSH2 0x17EF JUMPI DUP1 PUSH1 0x1F LT PUSH2 0x17C4 JUMPI PUSH2 0x100 DUP1 DUP4 SLOAD DIV MUL DUP4 MSTORE SWAP2 PUSH1 0x20 ADD SWAP2 PUSH2 0x17EF JUMP JUMPDEST DUP3 ADD SWAP2 SWAP1 PUSH1 0x0 MSTORE PUSH1 0x20 PUSH1 0x0 KECCAK256 SWAP1 JUMPDEST DUP2 SLOAD DUP2 MSTORE SWAP1 PUSH1 0x1 ADD SWAP1 PUSH1 0x20 ADD DUP1 DUP4 GT PUSH2 0x17D2 JUMPI DUP3 SWAP1 SUB PUSH1 0x1F AND DUP3 ADD SWAP2 JUMPDEST POP POP POP POP POP DUP2 MSTORE PUSH1 0x20 ADD PUSH1 0x4 DUP3 ADD DUP1 SLOAD DUP1 PUSH1 0x20 MUL PUSH1 0x20 ADD PUSH1 0x40 MLOAD SWAP1 DUP2 ADD PUSH1 0x40 MSTORE DUP1 SWAP3 SWAP2 SWAP1 DUP2 DUP2 MSTORE PUSH1 0x20 ADD PUSH1 0x0 SWAP1 JUMPDEST DUP3 DUP3 LT ISZERO PUSH2 0x18C9 JUMPI DUP4 DUP3 SWAP1 PUSH1 0x0 MSTORE PUSH1 0x20 PUSH1 0x0 KECCAK256 ADD DUP1 SLOAD PUSH2 0x183C SWAP1 PUSH2 0x31E5 JUMP JUMPDEST DUP1 PUSH1 0x1F ADD PUSH1 0x20 DUP1 SWAP2 DIV MUL PUSH1 0x20 ADD PUSH1 0x40 MLOAD SWAP1 DUP2 ADD PUSH1 0x40 MSTORE DUP1 SWAP3 SWAP2 SWAP1 DUP2 DUP2 MSTORE PUSH1 0x20 ADD DUP3 DUP1 SLOAD PUSH2 0x1868 SWAP1 PUSH2 0x31E5 JUMP JUMPDEST DUP1 ISZERO PUSH2 0x18B5 JUMPI DUP1 PUSH1 0x1F LT PUSH2 0x188A JUMPI PUSH2 0x100 DUP1 DUP4 SLOAD DIV MUL DUP4 MSTORE SWAP2 PUSH1 0x20 ADD SWAP2 PUSH2 0x18B5 JUMP JUMPDEST DUP3 ADD SWAP2 SWAP1 PUSH1 0x0 MSTORE PUSH1 0x20 PUSH1 0x0 KECCAK256 SWAP1 JUMPDEST DUP2 SLOAD DUP2 MSTORE SWAP1 PUSH1 0x1 ADD SWAP1 PUSH1 0x20 ADD DUP1 DUP4 GT PUSH2 0x1898 JUMPI DUP3 SWAP1 SUB PUSH1 0x1F AND DUP3 ADD SWAP2 JUMPDEST POP POP POP POP POP DUP2 MSTORE PUSH1 0x20 ADD SWAP1 PUSH1 0x1 ADD SWAP1 PUSH2 0x181D JUMP JUMPDEST POP POP POP POP DUP2 MSTORE PUSH1 0x20 ADD PUSH1 0x5 DUP3 ADD PUSH1 0x0 SWAP1 SLOAD SWAP1 PUSH2 0x100 EXP SWAP1 DIV PUSH1 0xFF AND ISZERO ISZERO ISZERO ISZERO DUP2 MSTORE POP POP DUP4 DUP4 DUP2 MLOAD DUP2 LT PUSH2 0x18FF JUMPI PUSH2 0x18FE PUSH2 0x34E7 JUMP JUMPDEST JUMPDEST PUSH1 0x20 MUL PUSH1 0x20 ADD ADD DUP2 SWAP1 MSTORE POP DUP2 DUP1 PUSH2 0x1915 SWAP1 PUSH2 0x3545 JUMP JUMPDEST SWAP3 POP POP JUMPDEST DUP1 DUP1 PUSH1 0x1 ADD SWAP2 POP POP PUSH2 0x1575 JUMP JUMPDEST POP DUP2 SWAP5 POP POP POP POP POP SWAP2 SWAP1 POP JUMP JUMPDEST PUSH1 0x0 PUSH1 0x3 PUSH1 0x0 DUP5 PUSH1 0xFF AND PUSH1 0xFF AND DUP2 MSTORE PUSH1 0x20 ADD SWAP1 DUP2 MSTORE PUSH1 0x20 ADD PUSH1 0x0 KECCAK256 PUSH1 0x0 ADD PUSH1 0x0 SWAP1 SLOAD SWAP1 PUSH2 0x100 EXP SWAP1 DIV PUSH1 0xFF AND PUSH1 0xFF AND SUB PUSH2 0x19A2 JUMPI PUSH1 0x40 MLOAD PUSH32 0x8C379A000000000000000000000000000000000000000000000000000000000 DUP2 MSTORE PUSH1 0x4 ADD PUSH2 0x1999 SWAP1 PUSH2 0x3602 JUMP JUMPDEST PUSH1 0x40 MLOAD DUP1 SWAP2 SUB SWAP1 REVERT JUMPDEST PUSH1 0x4 DUP2 PUSH1 0x40 MLOAD PUSH2 0x19B2 SWAP2 SWAP1 PUSH2 0x34D0 JUMP JUMPDEST SWAP1 DUP2 MSTORE PUSH1 0x20 ADD PUSH1 0x40 MLOAD DUP1 SWAP2 SUB SWAP1 KECCAK256 PUSH1 0x0 DUP4 PUSH1 0xFF AND PUSH1 0xFF AND DUP2 MSTORE PUSH1 0x20 ADD SWAP1 DUP2 MSTORE PUSH1 0x20 ADD PUSH1 0x0 KECCAK256 PUSH1 0x0 SWAP1 SLOAD SWAP1 PUSH2 0x100 EXP SWAP1 DIV PUSH1 0xFF AND ISZERO PUSH2 0x1A25 JUMPI PUSH1 0x40 MLOAD PUSH32 0x8C379A000000000000000000000000000000000000000000000000000000000 DUP2 MSTORE PUSH1 0x4 ADD PUSH2 0x1A1C SWAP1 PUSH2 0x382C JUMP JUMPDEST PUSH1 0x40 MLOAD DUP1 SWAP2 SUB SWAP1 REVERT JUMPDEST PUSH1 0x0 PUSH1 0x5 DUP3 PUSH1 0x40 MLOAD PUSH2 0x1A37 SWAP2 SWAP1 PUSH2 0x34D0 JUMP JUMPDEST SWAP1 DUP2 MSTORE PUSH1 0x20 ADD PUSH1 0x40 MLOAD DUP1 SWAP2 SUB SWAP1 KECCAK256 SWAP1 POP PUSH1 0x0 JUMPDEST DUP2 DUP1 SLOAD SWAP1 POP DUP2 LT ISZERO PUSH2 0x1B31 JUMPI DUP4 PUSH1 0xFF AND DUP3 DUP3 DUP2 SLOAD DUP2 LT PUSH2 0x1A6D JUMPI PUSH2 0x1A6C PUSH2 0x34E7 JUMP JUMPDEST JUMPDEST SWAP1 PUSH1 0x0 MSTORE PUSH1 0x20 PUSH1 0x0 KECCAK256 SWAP1 PUSH1 0x6 MUL ADD PUSH1 0x0 ADD PUSH1 0x0 SWAP1 SLOAD SWAP1 PUSH2 0x100 EXP SWAP1 DIV PUSH1 0xFF AND PUSH1 0xFF AND SUB PUSH2 0x1B24 JUMPI PUSH1 0x1 DUP3 DUP3 DUP2 SLOAD DUP2 LT PUSH2 0x1AA9 JUMPI PUSH2 0x1AA8 PUSH2 0x34E7 JUMP JUMPDEST JUMPDEST SWAP1 PUSH1 0x0 MSTORE PUSH1 0x20 PUSH1 0x0 KECCAK256 SWAP1 PUSH1 0x6 MUL ADD PUSH1 0x5 ADD PUSH1 0x0 PUSH2 0x100 EXP DUP2 SLOAD DUP2 PUSH1 0xFF MUL NOT AND SWAP1 DUP4 ISZERO ISZERO MUL OR SWAP1 SSTORE POP PUSH1 0x1 PUSH1 0x4 DUP5 PUSH1 0x40 MLOAD PUSH2 0x1AE3 SWAP2 SWAP1 PUSH2 0x34D0 JUMP JUMPDEST SWAP1 DUP2 MSTORE PUSH1 0x20 ADD PUSH1 0x40 MLOAD DUP1 SWAP2 SUB SWAP1 KECCAK256 PUSH1 0x0 DUP7 PUSH1 0xFF AND PUSH1 0xFF AND DUP2 MSTORE PUSH1 0x20 ADD SWAP1 DUP2 MSTORE PUSH1 0x20 ADD PUSH1 0x0 KECCAK256 PUSH1 0x0 PUSH2 0x100 EXP DUP2 SLOAD DUP2 PUSH1 0xFF MUL NOT AND SWAP1 DUP4 ISZERO ISZERO MUL OR SWAP1 SSTORE POP PUSH2 0x1B31 JUMP JUMPDEST DUP1 DUP1 PUSH1 0x1 ADD SWAP2 POP POP PUSH2 0x1A4A JUMP JUMPDEST POP POP POP POP JUMP JUMPDEST PUSH1 0x60 PUSH1 0x1 PUSH1 0x0 DUP4 PUSH20 0xFFFFFFFFFFFFFFFFFFFFFFFFFFFFFFFFFFFFFFFF AND PUSH20 0xFFFFFFFFFFFFFFFFFFFFFFFFFFFFFFFFFFFFFFFF AND DUP2 MSTORE PUSH1 0x20 ADD SWAP1 DUP2 MSTORE PUSH1 0x20 ADD PUSH1 0x0 KECCAK256 DUP1 SLOAD DUP1 PUSH1 0x20 MUL PUSH1 0x20 ADD PUSH1 0x40 MLOAD SWAP1 DUP2 ADD PUSH1 0x40 MSTORE DUP1 SWAP3 SWAP2 SWAP1 DUP2 DUP2 MSTORE PUSH1 0x20 ADD PUSH1 0x0 SWAP1 JUMPDEST DUP3 DUP3 LT ISZERO PUSH2 0x1CAF JUMPI DUP4 DUP3 SWAP1 PUSH1 0x0 MSTORE PUSH1 0x20 PUSH1 0x0 KECCAK256 SWAP1 PUSH1 0x2 MUL ADD PUSH1 0x40 MLOAD DUP1 PUSH1 0x80 ADD PUSH1 0x40 MSTORE SWAP1 DUP2 PUSH1 0x0 DUP3 ADD DUP1 SLOAD PUSH2 0x1BCB SWAP1 PUSH2 0x31E5 JUMP JUMPDEST DUP1 PUSH1 0x1F ADD PUSH1 0x20 DUP1 SWAP2 DIV MUL PUSH1 0x20 ADD PUSH1 0x40 MLOAD SWAP1 DUP2 ADD PUSH1 0x40 MSTORE DUP1 SWAP3 SWAP2 SWAP1 DUP2 DUP2 MSTORE PUSH1 0x20 ADD DUP3 DUP1 SLOAD PUSH2 0x1BF7 SWAP1 PUSH2 0x31E5 JUMP JUMPDEST DUP1 ISZERO PUSH2 0x1C44 JUMPI DUP1 PUSH1 0x1F LT PUSH2 0x1C19 JUMPI PUSH2 0x100 DUP1 DUP4 SLOAD DIV MUL DUP4 MSTORE SWAP2 PUSH1 0x20 ADD SWAP2 PUSH2 0x1C44 JUMP JUMPDEST DUP3 ADD SWAP2 SWAP1 PUSH1 0x0 MSTORE PUSH1 0x20 PUSH1 0x0 KECCAK256 SWAP1 JUMPDEST DUP2 SLOAD DUP2 MSTORE SWAP1 PUSH1 0x1 ADD SWAP1 PUSH1 0x20 ADD DUP1 DUP4 GT PUSH2 0x1C27 JUMPI DUP3 SWAP1 SUB PUSH1 0x1F AND DUP3 ADD SWAP2 JUMPDEST POP POP POP POP POP DUP2 MSTORE PUSH1 0x20 ADD PUSH1 0x1 DUP3 ADD PUSH1 0x0 SWAP1 SLOAD SWAP1 PUSH2 0x100 EXP SWAP1 DIV PUSH1 0xFF AND ISZERO ISZERO ISZERO ISZERO DUP2 MSTORE PUSH1 0x20 ADD PUSH1 0x1 DUP3 ADD PUSH1 0x1 SWAP1 SLOAD SWAP1 PUSH2 0x100 EXP SWAP1 DIV PUSH1 0xFF AND ISZERO ISZERO ISZERO ISZERO DUP2 MSTORE PUSH1 0x20 ADD PUSH1 0x1 DUP3 ADD PUSH1 0x2 SWAP1 SLOAD SWAP1 PUSH2 0x100 EXP SWAP1 DIV PUSH1 0xFF AND PUSH1 0xFF AND PUSH1 0xFF AND DUP2 MSTORE POP POP DUP2 MSTORE PUSH1 0x20 ADD SWAP1 PUSH1 0x1 ADD SWAP1 PUSH2 0x1B98 JUMP JUMPDEST POP POP POP POP SWAP1 POP SWAP2 SWAP1 POP JUMP JUMPDEST PUSH1 0x4 DUP3 DUP1 MLOAD PUSH1 0x20 DUP2 ADD DUP3 ADD DUP1 MLOAD DUP5 DUP3 MSTORE PUSH1 0x20 DUP4 ADD PUSH1 0x20 DUP6 ADD KECCAK256 DUP2 DUP4 MSTORE DUP1 SWAP6 POP POP POP POP POP POP PUSH1 0x20 MSTORE DUP1 PUSH1 0x0 MSTORE PUSH1 0x40 PUSH1 0x0 KECCAK256 PUSH1 0x0 SWAP2 POP SWAP2 POP SWAP1 SLOAD SWAP1 PUSH2 0x100 EXP SWAP1 DIV PUSH1 0xFF AND DUP2 JUMP JUMPDEST PUSH1 0x3 PUSH1 0x20 MSTORE DUP1 PUSH1 0x0 MSTORE PUSH1 0x40 PUSH1 0x0 KECCAK256 PUSH1 0x0 SWAP2 POP SWAP1 POP DUP1 PUSH1 0x0 ADD PUSH1 0x0 SWAP1 SLOAD SWAP1 PUSH2 0x100 EXP SWAP1 DIV PUSH1 0xFF AND SWAP1 DUP1 PUSH1 0x1 ADD DUP1 SLOAD PUSH2 0x1D35 SWAP1 PUSH2 0x31E5 JUMP JUMPDEST DUP1 PUSH1 0x1F ADD PUSH1 0x20 DUP1 SWAP2 DIV MUL PUSH1 0x20 ADD PUSH1 0x40 MLOAD SWAP1 DUP2 ADD PUSH1 0x40 MSTORE DUP1 SWAP3 SWAP2 SWAP1 DUP2 DUP2 MSTORE PUSH1 0x20 ADD DUP3 DUP1 SLOAD PUSH2 0x1D61 SWAP1 PUSH2 0x31E5 JUMP JUMPDEST DUP1 ISZERO PUSH2 0x1DAE JUMPI DUP1 PUSH1 0x1F LT PUSH2 0x1D83 JUMPI PUSH2 0x100 DUP1 DUP4 SLOAD DIV MUL DUP4 MSTORE SWAP2 PUSH1 0x20 ADD SWAP2 PUSH2 0x1DAE JUMP JUMPDEST DUP3 ADD SWAP2 SWAP1 PUSH1 0x0 MSTORE PUSH1 0x20 PUSH1 0x0 KECCAK256 SWAP1 JUMPDEST DUP2 SLOAD DUP2 MSTORE SWAP1 PUSH1 0x1 ADD SWAP1 PUSH1 0x20 ADD DUP1 DUP4 GT PUSH2 0x1D91 JUMPI DUP3 SWAP1 SUB PUSH1 0x1F AND DUP3 ADD SWAP2 JUMPDEST POP POP POP POP POP SWAP1 DUP1 PUSH1 0x2 ADD DUP1 SLOAD PUSH2 0x1DC3 SWAP1 PUSH2 0x31E5 JUMP JUMPDEST DUP1 PUSH1 0x1F ADD PUSH1 0x20 DUP1 SWAP2 DIV MUL PUSH1 0x20 ADD PUSH1 0x40 MLOAD SWAP1 DUP2 ADD PUSH1 0x40 MSTORE DUP1 SWAP3 SWAP2 SWAP1 DUP2 DUP2 MSTORE PUSH1 0x20 ADD DUP3 DUP1 SLOAD PUSH2 0x1DEF SWAP1 PUSH2 0x31E5 JUMP JUMPDEST DUP1 ISZERO PUSH2 0x1E3C JUMPI DUP1 PUSH1 0x1F LT PUSH2 0x1E11 JUMPI PUSH2 0x100 DUP1 DUP4 SLOAD DIV MUL DUP4 MSTORE SWAP2 PUSH1 0x20 ADD SWAP2 PUSH2 0x1E3C JUMP JUMPDEST DUP3 ADD SWAP2 SWAP1 PUSH1 0x0 MSTORE PUSH1 0x20 PUSH1 0x0 KECCAK256 SWAP1 JUMPDEST DUP2 SLOAD DUP2 MSTORE SWAP1 PUSH1 0x1 ADD SWAP1 PUSH1 0x20 ADD DUP1 DUP4 GT PUSH2 0x1E1F JUMPI DUP3 SWAP1 SUB PUSH1 0x1F AND DUP3 ADD SWAP2 JUMPDEST POP POP POP POP POP SWAP1 DUP1 PUSH1 0x3 ADD DUP1 SLOAD PUSH2 0x1E51 SWAP1 PUSH2 0x31E5 JUMP JUMPDEST DUP1 PUSH1 0x1F ADD PUSH1 0x20 DUP1 SWAP2 DIV MUL PUSH1 0x20 ADD PUSH1 0x40 MLOAD SWAP1 DUP2 ADD PUSH1 0x40 MSTORE DUP1 SWAP3 SWAP2 SWAP1 DUP2 DUP2 MSTORE PUSH1 0x20 ADD DUP3 DUP1 SLOAD PUSH2 0x1E7D SWAP1 PUSH2 0x31E5 JUMP JUMPDEST DUP1 ISZERO PUSH2 0x1ECA JUMPI DUP1 PUSH1 0x1F LT PUSH2 0x1E9F JUMPI PUSH2 0x100 DUP1 DUP4 SLOAD DIV MUL DUP4 MSTORE SWAP2 PUSH1 0x20 ADD SWAP2 PUSH2 0x1ECA JUMP JUMPDEST DUP3 ADD SWAP2 SWAP1 PUSH1 0x0 MSTORE PUSH1 0x20 PUSH1 0x0 KECCAK256 SWAP1 JUMPDEST DUP2 SLOAD DUP2 MSTORE SWAP1 PUSH1 0x1 ADD SWAP1 PUSH1 0x20 ADD DUP1 DUP4 GT PUSH2 0x1EAD JUMPI DUP3 SWAP1 SUB PUSH1 0x1F AND DUP3 ADD SWAP2 JUMPDEST POP POP POP POP POP SWAP1 DUP1 PUSH1 0x5 ADD PUSH1 0x0 SWAP1 SLOAD SWAP1 PUSH2 0x100 EXP SWAP1 DIV PUSH1 0xFF AND SWAP1 POP DUP6 JUMP JUMPDEST PUSH1 0x0 DUP1 PUSH1 0x0 SWAP1 SLOAD SWAP1 PUSH2 0x100 EXP SWAP1 DIV PUSH1 0xFF AND SWAP1 POP SWAP1 JUMP JUMPDEST PUSH1 0x1 PUSH1 0x20 MSTORE DUP2 PUSH1 0x0 MSTORE PUSH1 0x40 PUSH1 0x0 KECCAK256 DUP2 DUP2 SLOAD DUP2 LT PUSH2 0x1F19 JUMPI PUSH1 0x0 DUP1 REVERT JUMPDEST SWAP1 PUSH1 0x0 MSTORE PUSH1 0x20 PUSH1 0x0 KECCAK256 SWAP1 PUSH1 0x2 MUL ADD PUSH1 0x0 SWAP2 POP SWAP2 POP POP DUP1 PUSH1 0x0 ADD DUP1 SLOAD PUSH2 0x1F3D SWAP1 PUSH2 0x31E5 JUMP JUMPDEST DUP1 PUSH1 0x1F ADD PUSH1 0x20 DUP1 SWAP2 DIV MUL PUSH1 0x20 ADD PUSH1 0x40 MLOAD SWAP1 DUP2 ADD PUSH1 0x40 MSTORE DUP1 SWAP3 SWAP2 SWAP1 DUP2 DUP2 MSTORE PUSH1 0x20 ADD DUP3 DUP1 SLOAD PUSH2 0x1F69 SWAP1 PUSH2 0x31E5 JUMP JUMPDEST DUP1 ISZERO PUSH2 0x1FB6 JUMPI DUP1 PUSH1 0x1F LT PUSH2 0x1F8B JUMPI PUSH2 0x100 DUP1 DUP4 SLOAD DIV MUL DUP4 MSTORE SWAP2 PUSH1 0x20 ADD SWAP2 PUSH2 0x1FB6 JUMP JUMPDEST DUP3 ADD SWAP2 SWAP1 PUSH1 0x0 MSTORE PUSH1 0x20 PUSH1 0x0 KECCAK256 SWAP1 JUMPDEST DUP2 SLOAD DUP2 MSTORE SWAP1 PUSH1 0x1 ADD SWAP1 PUSH1 0x20 ADD DUP1 DUP4 GT PUSH2 0x1F99 JUMPI DUP3 SWAP1 SUB PUSH1 0x1F AND DUP3 ADD SWAP2 JUMPDEST POP POP POP POP POP SWAP1 DUP1 PUSH1 0x1 ADD PUSH1 0x0 SWAP1 SLOAD SWAP1 PUSH2 0x100 EXP SWAP1 DIV PUSH1 0xFF AND SWAP1 DUP1 PUSH1 0x1 ADD PUSH1 0x1 SWAP1 SLOAD SWAP1 PUSH2 0x100 EXP SWAP1 DIV PUSH1 0xFF AND SWAP1 DUP1 PUSH1 0x1 ADD PUSH1 0x2 SWAP1 SLOAD SWAP1 PUSH2 0x100 EXP SWAP1 DIV PUSH1 0xFF AND SWAP1 POP DUP5 JUMP JUMPDEST PUSH1 0x60 PUSH1 0x5 DUP3 PUSH1 0x40 MLOAD PUSH2 0x200B SWAP2 SWAP1 PUSH2 0x34D0 JUMP JUMPDEST SWAP1 DUP2 MSTORE PUSH1 0x20 ADD PUSH1 0x40 MLOAD DUP1 SWAP2 SUB SWAP1 KECCAK256 DUP1 SLOAD DUP1 PUSH1 0x20 MUL PUSH1 0x20 ADD PUSH1 0x40 MLOAD SWAP1 DUP2 ADD PUSH1 0x40 MSTORE DUP1 SWAP3 SWAP2 SWAP1 DUP2 DUP2 MSTORE PUSH1 0x20 ADD PUSH1 0x0 SWAP1 JUMPDEST DUP3 DUP3 LT ISZERO PUSH2 0x2332 JUMPI DUP4 DUP3 SWAP1 PUSH1 0x0 MSTORE PUSH1 0x20 PUSH1 0x0 KECCAK256 SWAP1 PUSH1 0x6 MUL ADD PUSH1 0x40 MLOAD DUP1 PUSH1 0xC0 ADD PUSH1 0x40 MSTORE SWAP1 DUP2 PUSH1 0x0 DUP3 ADD PUSH1 0x0 SWAP1 SLOAD SWAP1 PUSH2 0x100 EXP SWAP1 DIV PUSH1 0xFF AND PUSH1 0xFF AND PUSH1 0xFF AND DUP2 MSTORE PUSH1 0x20 ADD PUSH1 0x1 DUP3 ADD DUP1 SLOAD PUSH2 0x2089 SWAP1 PUSH2 0x31E5 JUMP JUMPDEST DUP1 PUSH1 0x1F ADD PUSH1 0x20 DUP1 SWAP2 DIV MUL PUSH1 0x20 ADD PUSH1 0x40 MLOAD SWAP1 DUP2 ADD PUSH1 0x40 MSTORE DUP1 SWAP3 SWAP2 SWAP1 DUP2 DUP2 MSTORE PUSH1 0x20 ADD DUP3 DUP1 SLOAD PUSH2 0x20B5 SWAP1 PUSH2 0x31E5 JUMP JUMPDEST DUP1 ISZERO PUSH2 0x2102 JUMPI DUP1 PUSH1 0x1F LT PUSH2 0x20D7 JUMPI PUSH2 0x100 DUP1 DUP4 SLOAD DIV MUL DUP4 MSTORE SWAP2 PUSH1 0x20 ADD SWAP2 PUSH2 0x2102 JUMP JUMPDEST DUP3 ADD SWAP2 SWAP1 PUSH1 0x0 MSTORE PUSH1 0x20 PUSH1 0x0 KECCAK256 SWAP1 JUMPDEST DUP2 SLOAD DUP2 MSTORE SWAP1 PUSH1 0x1 ADD SWAP1 PUSH1 0x20 ADD DUP1 DUP4 GT PUSH2 0x20E5 JUMPI DUP3 SWAP1 SUB PUSH1 0x1F AND DUP3 ADD SWAP2 JUMPDEST POP POP POP POP POP DUP2 MSTORE PUSH1 0x20 ADD PUSH1 0x2 DUP3 ADD DUP1 SLOAD PUSH2 0x211B SWAP1 PUSH2 0x31E5 JUMP JUMPDEST DUP1 PUSH1 0x1F ADD PUSH1 0x20 DUP1 SWAP2 DIV MUL PUSH1 0x20 ADD PUSH1 0x40 MLOAD SWAP1 DUP2 ADD PUSH1 0x40 MSTORE DUP1 SWAP3 SWAP2 SWAP1 DUP2 DUP2 MSTORE PUSH1 0x20 ADD DUP3 DUP1 SLOAD PUSH2 0x2147 SWAP1 PUSH2 0x31E5 JUMP JUMPDEST DUP1 ISZERO PUSH2 0x2194 JUMPI DUP1 PUSH1 0x1F LT PUSH2 0x2169 JUMPI PUSH2 0x100 DUP1 DUP4 SLOAD DIV MUL DUP4 MSTORE SWAP2 PUSH1 0x20 ADD SWAP2 PUSH2 0x2194 JUMP JUMPDEST DUP3 ADD SWAP2 SWAP1 PUSH1 0x0 MSTORE PUSH1 0x20 PUSH1 0x0 KECCAK256 SWAP1 JUMPDEST DUP2 SLOAD DUP2 MSTORE SWAP1 PUSH1 0x1 ADD SWAP1 PUSH1 0x20 ADD DUP1 DUP4 GT PUSH2 0x2177 JUMPI DUP3 SWAP1 SUB PUSH1 0x1F AND DUP3 ADD SWAP2 JUMPDEST POP POP POP POP POP DUP2 MSTORE PUSH1 0x20 ADD PUSH1 0x3 DUP3 ADD DUP1 SLOAD PUSH2 0x21AD SWAP1 PUSH2 0x31E5 JUMP JUMPDEST DUP1 PUSH1 0x1F ADD PUSH1 0x20 DUP1 SWAP2 DIV MUL PUSH1 0x20 ADD PUSH1 0x40 MLOAD SWAP1 DUP2 ADD PUSH1 0x40 MSTORE DUP1 SWAP3 SWAP2 SWAP1 DUP2 DUP2 MSTORE PUSH1 0x20 ADD DUP3 DUP1 SLOAD PUSH2 0x21D9 SWAP1 PUSH2 0x31E5 JUMP JUMPDEST DUP1 ISZERO PUSH2 0x2226 JUMPI DUP1 PUSH1 0x1F LT PUSH2 0x21FB JUMPI PUSH2 0x100 DUP1 DUP4 SLOAD DIV MUL DUP4 MSTORE SWAP2 PUSH1 0x20 ADD SWAP2 PUSH2 0x2226 JUMP JUMPDEST DUP3 ADD SWAP2 SWAP1 PUSH1 0x0 MSTORE PUSH1 0x20 PUSH1 0x0 KECCAK256 SWAP1 JUMPDEST DUP2 SLOAD DUP2 MSTORE SWAP1 PUSH1 0x1 ADD SWAP1 PUSH1 0x20 ADD DUP1 DUP4 GT PUSH2 0x2209 JUMPI DUP3 SWAP1 SUB PUSH1 0x1F AND DUP3 ADD SWAP2 JUMPDEST POP POP POP POP POP DUP2 MSTORE PUSH1 0x20 ADD PUSH1 0x4 DUP3 ADD DUP1 SLOAD DUP1 PUSH1 0x20 MUL PUSH1 0x20 ADD PUSH1 0x40 MLOAD SWAP1 DUP2 ADD PUSH1 0x40 MSTORE DUP1 SWAP3 SWAP2 SWAP1 DUP2 DUP2 MSTORE PUSH1 0x20 ADD PUSH1 0x0 SWAP1 JUMPDEST DUP3 DUP3 LT ISZERO PUSH2 0x2300 JUMPI DUP4 DUP3 SWAP1 PUSH1 0x0 MSTORE PUSH1 0x20 PUSH1 0x0 KECCAK256 ADD DUP1 SLOAD PUSH2 0x2273 SWAP1 PUSH2 0x31E5 JUMP JUMPDEST DUP1 PUSH1 0x1F ADD PUSH1 0x20 DUP1 SWAP2 DIV MUL PUSH1 0x20 ADD PUSH1 0x40 MLOAD SWAP1 DUP2 ADD PUSH1 0x40 MSTORE DUP1 SWAP3 SWAP2 SWAP1 DUP2 DUP2 MSTORE PUSH1 0x20 ADD DUP3 DUP1 SLOAD PUSH2 0x229F SWAP1 PUSH2 0x31E5 JUMP JUMPDEST DUP1 ISZERO PUSH2 0x22EC JUMPI DUP1 PUSH1 0x1F LT PUSH2 0x22C1 JUMPI PUSH2 0x100 DUP1 DUP4 SLOAD DIV MUL DUP4 MSTORE SWAP2 PUSH1 0x20 ADD SWAP2 PUSH2 0x22EC JUMP JUMPDEST DUP3 ADD SWAP2 SWAP1 PUSH1 0x0 MSTORE PUSH1 0x20 PUSH1 0x0 KECCAK256 SWAP1 JUMPDEST DUP2 SLOAD DUP2 MSTORE SWAP1 PUSH1 0x1 ADD SWAP1 PUSH1 0x20 ADD DUP1 DUP4 GT PUSH2 0x22CF JUMPI DUP3 SWAP1 SUB PUSH1 0x1F AND DUP3 ADD SWAP2 JUMPDEST POP POP POP POP POP DUP2 MSTORE PUSH1 0x20 ADD SWAP1 PUSH1 0x1 ADD SWAP1 PUSH2 0x2254 JUMP JUMPDEST POP POP POP POP DUP2 MSTORE PUSH1 0x20 ADD PUSH1 0x5 DUP3 ADD PUSH1 0x0 SWAP1 SLOAD SWAP1 PUSH2 0x100 EXP SWAP1 DIV PUSH1 0xFF AND ISZERO ISZERO ISZERO ISZERO DUP2 MSTORE POP POP DUP2 MSTORE PUSH1 0x20 ADD SWAP1 PUSH1 0x1 ADD SWAP1 PUSH2 0x2039 JUMP JUMPDEST POP POP POP POP SWAP1 POP SWAP2 SWAP1 POP JUMP JUMPDEST DUP3 DUP1 SLOAD DUP3 DUP3 SSTORE SWAP1 PUSH1 0x0 MSTORE PUSH1 0x20 PUSH1 0x0 KECCAK256 SWAP1 DUP2 ADD SWAP3 DUP3 ISZERO PUSH2 0x2385 JUMPI SWAP2 PUSH1 0x20 MUL DUP3 ADD JUMPDEST DUP3 DUP2 GT ISZERO PUSH2 0x2384 JUMPI DUP3 MLOAD DUP3 SWAP1 DUP2 PUSH2 0x2374 SWAP2 SWAP1 PUSH2 0x33C2 JUMP JUMPDEST POP SWAP2 PUSH1 0x20 ADD SWAP2 SWAP1 PUSH1 0x1 ADD SWAP1 PUSH2 0x235D JUMP JUMPDEST JUMPDEST POP SWAP1 POP PUSH2 0x2392 SWAP2 SWAP1 PUSH2 0x2400 JUMP JUMPDEST POP SWAP1 JUMP JUMPDEST PUSH1 0x40 MLOAD DUP1 PUSH1 0xC0 ADD PUSH1 0x40 MSTORE DUP1 PUSH1 0x0 PUSH1 0xFF AND DUP2 MSTORE PUSH1 0x20 ADD PUSH1 0x60 DUP2 MSTORE PUSH1 0x20 ADD PUSH1 0x60 DUP2 MSTORE PUSH1 0x20 ADD PUSH1 0x60 DUP2 MSTORE PUSH1 0x20 ADD PUSH1 0x60 DUP2 MSTORE PUSH1 0x20 ADD PUSH1 0x0 ISZERO ISZERO DUP2 MSTORE POP SWAP1 JUMP JUMPDEST PUSH1 0x40 MLOAD DUP1 PUSH1 0x80 ADD PUSH1 0x40 MSTORE DUP1 PUSH1 0x60 DUP2 MSTORE PUSH1 0x20 ADD PUSH1 0x0 ISZERO ISZERO DUP2 MSTORE PUSH1 0x20 ADD PUSH1 0x0 ISZERO ISZERO DUP2 MSTORE PUSH1 0x20 ADD PUSH1 0x0 PUSH1 0xFF AND DUP2 MSTORE POP SWAP1 JUMP JUMPDEST JUMPDEST DUP1 DUP3 GT ISZERO PUSH2 0x2420 JUMPI PUSH1 0x0 DUP2 DUP2 PUSH2 0x2417 SWAP2 SWAP1 PUSH2 0x2424 JUMP JUMPDEST POP PUSH1 0x1 ADD PUSH2 0x2401 JUMP JUMPDEST POP SWAP1 JUMP JUMPDEST POP DUP1 SLOAD PUSH2 0x2430 SWAP1 PUSH2 0x31E5 JUMP JUMPDEST PUSH1 0x0 DUP3 SSTORE DUP1 PUSH1 0x1F LT PUSH2 0x2442 JUMPI POP PUSH2 0x2461 JUMP JUMPDEST PUSH1 0x1F ADD PUSH1 0x20 SWAP1 DIV SWAP1 PUSH1 0x0 MSTORE PUSH1 0x20 PUSH1 0x0 KECCAK256 SWAP1 DUP2 ADD SWAP1 PUSH2 0x2460 SWAP2 SWAP1 PUSH2 0x2464 JUMP JUMPDEST JUMPDEST POP JUMP JUMPDEST JUMPDEST DUP1 DUP3 GT ISZERO PUSH2 0x247D JUMPI PUSH1 0x0 DUP2 PUSH1 0x0 SWAP1 SSTORE POP PUSH1 0x1 ADD PUSH2 0x2465 JUMP JUMPDEST POP SWAP1 JUMP JUMPDEST PUSH1 0x0 PUSH1 0x40 MLOAD SWAP1 POP SWAP1 JUMP JUMPDEST PUSH1 0x0 DUP1 REVERT JUMPDEST PUSH1 0x0 DUP1 REVERT JUMPDEST PUSH1 0x0 DUP1 REVERT JUMPDEST PUSH1 0x0 DUP1 REVERT JUMPDEST PUSH1 0x0 PUSH1 0x1F NOT PUSH1 0x1F DUP4 ADD AND SWAP1 POP SWAP2 SWAP1 POP JUMP JUMPDEST PUSH32 0x4E487B7100000000000000000000000000000000000000000000000000000000 PUSH1 0x0 MSTORE PUSH1 0x41 PUSH1 0x4 MSTORE PUSH1 0x24 PUSH1 0x0 REVERT JUMPDEST PUSH2 0x24E8 DUP3 PUSH2 0x249F JUMP JUMPDEST DUP2 ADD DUP2 DUP2 LT PUSH8 0xFFFFFFFFFFFFFFFF DUP3 GT OR ISZERO PUSH2 0x2507 JUMPI PUSH2 0x2506 PUSH2 0x24B0 JUMP JUMPDEST JUMPDEST DUP1 PUSH1 0x40 MSTORE POP POP POP JUMP JUMPDEST PUSH1 0x0 PUSH2 0x251A PUSH2 0x2481 JUMP JUMPDEST SWAP1 POP PUSH2 0x2526 DUP3 DUP3 PUSH2 0x24DF JUMP JUMPDEST SWAP2 SWAP1 POP JUMP JUMPDEST PUSH1 0x0 PUSH8 0xFFFFFFFFFFFFFFFF DUP3 GT ISZERO PUSH2 0x2546 JUMPI PUSH2 0x2545 PUSH2 0x24B0 JUMP JUMPDEST JUMPDEST PUSH2 0x254F DUP3 PUSH2 0x249F JUMP JUMPDEST SWAP1 POP PUSH1 0x20 DUP2 ADD SWAP1 POP SWAP2 SWAP1 POP JUMP JUMPDEST DUP3 DUP2 DUP4 CALLDATACOPY PUSH1 0x0 DUP4 DUP4 ADD MSTORE POP POP POP JUMP JUMPDEST PUSH1 0x0 PUSH2 0x257E PUSH2 0x2579 DUP5 PUSH2 0x252B JUMP JUMPDEST PUSH2 0x2510 JUMP JUMPDEST SWAP1 POP DUP3 DUP2 MSTORE PUSH1 0x20 DUP2 ADD DUP5 DUP5 DUP5 ADD GT ISZERO PUSH2 0x259A JUMPI PUSH2 0x2599 PUSH2 0x249A JUMP JUMPDEST JUMPDEST PUSH2 0x25A5 DUP5 DUP3 DUP6 PUSH2 0x255C JUMP JUMPDEST POP SWAP4 SWAP3 POP POP POP JUMP JUMPDEST PUSH1 0x0 DUP3 PUSH1 0x1F DUP4 ADD SLT PUSH2 0x25C2 JUMPI PUSH2 0x25C1 PUSH2 0x2495 JUMP JUMPDEST JUMPDEST DUP2 CALLDATALOAD PUSH2 0x25D2 DUP5 DUP3 PUSH1 0x20 DUP7 ADD PUSH2 0x256B JUMP JUMPDEST SWAP2 POP POP SWAP3 SWAP2 POP POP JUMP JUMPDEST PUSH1 0x0 PUSH1 0x20 DUP3 DUP5 SUB SLT ISZERO PUSH2 0x25F1 JUMPI PUSH2 0x25F0 PUSH2 0x248B JUMP JUMPDEST JUMPDEST PUSH1 0x0 DUP3 ADD CALLDATALOAD PUSH8 0xFFFFFFFFFFFFFFFF DUP2 GT ISZERO PUSH2 0x260F JUMPI PUSH2 0x260E PUSH2 0x2490 JUMP JUMPDEST JUMPDEST PUSH2 0x261B DUP5 DUP3 DUP6 ADD PUSH2 0x25AD JUMP JUMPDEST SWAP2 POP POP SWAP3 SWAP2 POP POP JUMP JUMPDEST PUSH1 0x0 DUP2 MLOAD SWAP1 POP SWAP2 SWAP1 POP JUMP JUMPDEST PUSH1 0x0 DUP3 DUP3 MSTORE PUSH1 0x20 DUP3 ADD SWAP1 POP SWAP3 SWAP2 POP POP JUMP JUMPDEST PUSH1 0x0 JUMPDEST DUP4 DUP2 LT ISZERO PUSH2 0x265E JUMPI DUP1 DUP3 ADD MLOAD DUP2 DUP5 ADD MSTORE PUSH1 0x20 DUP2 ADD SWAP1 POP PUSH2 0x2643 JUMP JUMPDEST PUSH1 0x0 DUP5 DUP5 ADD MSTORE POP POP POP POP JUMP JUMPDEST PUSH1 0x0 PUSH2 0x2675 DUP3 PUSH2 0x2624 JUMP JUMPDEST PUSH2 0x267F DUP2 DUP6 PUSH2 0x262F JUMP JUMPDEST SWAP4 POP PUSH2 0x268F DUP2 DUP6 PUSH1 0x20 DUP7 ADD PUSH2 0x2640 JUMP JUMPDEST PUSH2 0x2698 DUP2 PUSH2 0x249F JUMP JUMPDEST DUP5 ADD SWAP2 POP POP SWAP3 SWAP2 POP POP JUMP JUMPDEST PUSH1 0x0 DUP2 ISZERO ISZERO SWAP1 POP SWAP2 SWAP1 POP JUMP JUMPDEST PUSH2 0x26B8 DUP2 PUSH2 0x26A3 JUMP JUMPDEST DUP3 MSTORE POP POP JUMP JUMPDEST PUSH1 0x0 PUSH1 0xFF DUP3 AND SWAP1 POP SWAP2 SWAP1 POP JUMP JUMPDEST PUSH2 0x26D4 DUP2 PUSH2 0x26BE JUMP JUMPDEST DUP3 MSTORE POP POP JUMP JUMPDEST PUSH1 0x0 PUSH1 0x80 DUP3 ADD SWAP1 POP DUP2 DUP2 SUB PUSH1 0x0 DUP4 ADD MSTORE PUSH2 0x26F4 DUP2 DUP8 PUSH2 0x266A JUMP JUMPDEST SWAP1 POP PUSH2 0x2703 PUSH1 0x20 DUP4 ADD DUP7 PUSH2 0x26AF JUMP JUMPDEST PUSH2 0x2710 PUSH1 0x40 DUP4 ADD DUP6 PUSH2 0x26AF JUMP JUMPDEST PUSH2 0x271D PUSH1 0x60 DUP4 ADD DUP5 PUSH2 0x26CB JUMP JUMPDEST SWAP6 SWAP5 POP POP POP POP POP JUMP JUMPDEST PUSH2 0x272F DUP2 PUSH2 0x26BE JUMP JUMPDEST DUP2 EQ PUSH2 0x273A JUMPI PUSH1 0x0 DUP1 REVERT JUMPDEST POP JUMP JUMPDEST PUSH1 0x0 DUP2 CALLDATALOAD SWAP1 POP PUSH2 0x274C DUP2 PUSH2 0x2726 JUMP JUMPDEST SWAP3 SWAP2 POP POP JUMP JUMPDEST PUSH1 0x0 PUSH8 0xFFFFFFFFFFFFFFFF DUP3 GT ISZERO PUSH2 0x276D JUMPI PUSH2 0x276C PUSH2 0x24B0 JUMP JUMPDEST JUMPDEST PUSH1 0x20 DUP3 MUL SWAP1 POP PUSH1 0x20 DUP2 ADD SWAP1 POP SWAP2 SWAP1 POP JUMP JUMPDEST PUSH1 0x0 DUP1 REVERT JUMPDEST PUSH1 0x0 PUSH2 0x2796 PUSH2 0x2791 DUP5 PUSH2 0x2752 JUMP JUMPDEST PUSH2 0x2510 JUMP JUMPDEST SWAP1 POP DUP1 DUP4 DUP3 MSTORE PUSH1 0x20 DUP3 ADD SWAP1 POP PUSH1 0x20 DUP5 MUL DUP4 ADD DUP6 DUP2 GT ISZERO PUSH2 0x27B9 JUMPI PUSH2 0x27B8 PUSH2 0x277E JUMP JUMPDEST JUMPDEST DUP4 JUMPDEST DUP2 DUP2 LT ISZERO PUSH2 0x2800 JUMPI DUP1 CALLDATALOAD PUSH8 0xFFFFFFFFFFFFFFFF DUP2 GT ISZERO PUSH2 0x27DE JUMPI PUSH2 0x27DD PUSH2 0x2495 JUMP JUMPDEST JUMPDEST DUP1 DUP7 ADD PUSH2 0x27EB DUP10 DUP3 PUSH2 0x25AD JUMP JUMPDEST DUP6 MSTORE PUSH1 0x20 DUP6 ADD SWAP5 POP POP POP PUSH1 0x20 DUP2 ADD SWAP1 POP PUSH2 0x27BB JUMP JUMPDEST POP POP POP SWAP4 SWAP3 POP POP POP JUMP JUMPDEST PUSH1 0x0 DUP3 PUSH1 0x1F DUP4 ADD SLT PUSH2 0x281F JUMPI PUSH2 0x281E PUSH2 0x2495 JUMP JUMPDEST JUMPDEST DUP2 CALLDATALOAD PUSH2 0x282F DUP5 DUP3 PUSH1 0x20 DUP7 ADD PUSH2 0x2783 JUMP JUMPDEST SWAP2 POP POP SWAP3 SWAP2 POP POP JUMP JUMPDEST PUSH1 0x0 DUP1 PUSH1 0x0 DUP1 PUSH1 0x0 PUSH1 0xA0 DUP7 DUP9 SUB SLT ISZERO PUSH2 0x2854 JUMPI PUSH2 0x2853 PUSH2 0x248B JUMP JUMPDEST JUMPDEST PUSH1 0x0 PUSH2 0x2862 DUP9 DUP3 DUP10 ADD PUSH2 0x273D JUMP JUMPDEST SWAP6 POP POP PUSH1 0x20 DUP7 ADD CALLDATALOAD PUSH8 0xFFFFFFFFFFFFFFFF DUP2 GT ISZERO PUSH2 0x2883 JUMPI PUSH2 0x2882 PUSH2 0x2490 JUMP JUMPDEST JUMPDEST PUSH2 0x288F DUP9 DUP3 DUP10 ADD PUSH2 0x25AD JUMP JUMPDEST SWAP5 POP POP PUSH1 0x40 DUP7 ADD CALLDATALOAD PUSH8 0xFFFFFFFFFFFFFFFF DUP2 GT ISZERO PUSH2 0x28B0 JUMPI PUSH2 0x28AF PUSH2 0x2490 JUMP JUMPDEST JUMPDEST PUSH2 0x28BC DUP9 DUP3 DUP10 ADD PUSH2 0x25AD JUMP JUMPDEST SWAP4 POP POP PUSH1 0x60 DUP7 ADD CALLDATALOAD PUSH8 0xFFFFFFFFFFFFFFFF DUP2 GT ISZERO PUSH2 0x28DD JUMPI PUSH2 0x28DC PUSH2 0x2490 JUMP JUMPDEST JUMPDEST PUSH2 0x28E9 DUP9 DUP3 DUP10 ADD PUSH2 0x25AD JUMP JUMPDEST SWAP3 POP POP PUSH1 0x80 DUP7 ADD CALLDATALOAD PUSH8 0xFFFFFFFFFFFFFFFF DUP2 GT ISZERO PUSH2 0x290A JUMPI PUSH2 0x2909 PUSH2 0x2490 JUMP JUMPDEST JUMPDEST PUSH2 0x2916 DUP9 DUP3 DUP10 ADD PUSH2 0x280A JUMP JUMPDEST SWAP2 POP POP SWAP3 SWAP6 POP SWAP3 SWAP6 SWAP1 SWAP4 POP JUMP JUMPDEST PUSH1 0x0 DUP2 SWAP1 POP SWAP2 SWAP1 POP JUMP JUMPDEST PUSH2 0x2936 DUP2 PUSH2 0x2923 JUMP JUMPDEST DUP2 EQ PUSH2 0x2941 JUMPI PUSH1 0x0 DUP1 REVERT JUMPDEST POP JUMP JUMPDEST PUSH1 0x0 DUP2 CALLDATALOAD SWAP1 POP PUSH2 0x2953 DUP2 PUSH2 0x292D JUMP JUMPDEST SWAP3 SWAP2 POP POP JUMP JUMPDEST PUSH1 0x0 DUP1 PUSH1 0x40 DUP4 DUP6 SUB SLT ISZERO PUSH2 0x2970 JUMPI PUSH2 0x296F PUSH2 0x248B JUMP JUMPDEST JUMPDEST PUSH1 0x0 DUP4 ADD CALLDATALOAD PUSH8 0xFFFFFFFFFFFFFFFF DUP2 GT ISZERO PUSH2 0x298E JUMPI PUSH2 0x298D PUSH2 0x2490 JUMP JUMPDEST JUMPDEST PUSH2 0x299A DUP6 DUP3 DUP7 ADD PUSH2 0x25AD JUMP JUMPDEST SWAP3 POP POP PUSH1 0x20 PUSH2 0x29AB DUP6 DUP3 DUP7 ADD PUSH2 0x2944 JUMP JUMPDEST SWAP2 POP POP SWAP3 POP SWAP3 SWAP1 POP JUMP JUMPDEST PUSH1 0x0 PUSH1 0xA0 DUP3 ADD SWAP1 POP PUSH2 0x29CA PUSH1 0x0 DUP4 ADD DUP9 PUSH2 0x26CB JUMP JUMPDEST DUP2 DUP2 SUB PUSH1 0x20 DUP4 ADD MSTORE PUSH2 0x29DC DUP2 DUP8 PUSH2 0x266A JUMP JUMPDEST SWAP1 POP DUP2 DUP2 SUB PUSH1 0x40 DUP4 ADD MSTORE PUSH2 0x29F0 DUP2 DUP7 PUSH2 0x266A JUMP JUMPDEST SWAP1 POP DUP2 DUP2 SUB PUSH1 0x60 DUP4 ADD MSTORE PUSH2 0x2A04 DUP2 DUP6 PUSH2 0x266A JUMP JUMPDEST SWAP1 POP PUSH2 0x2A13 PUSH1 0x80 DUP4 ADD DUP5 PUSH2 0x26AF JUMP JUMPDEST SWAP7 SWAP6 POP POP POP POP POP POP JUMP JUMPDEST PUSH1 0x0 DUP2 MLOAD SWAP1 POP SWAP2 SWAP1 POP JUMP JUMPDEST PUSH1 0x0 DUP3 DUP3 MSTORE PUSH1 0x20 DUP3 ADD SWAP1 POP SWAP3 SWAP2 POP POP JUMP JUMPDEST PUSH1 0x0 DUP2 SWAP1 POP PUSH1 0x20 DUP3 ADD SWAP1 POP SWAP2 SWAP1 POP JUMP JUMPDEST PUSH2 0x2A52 DUP2 PUSH2 0x26BE JUMP JUMPDEST DUP3 MSTORE POP POP JUMP JUMPDEST PUSH1 0x0 DUP3 DUP3 MSTORE PUSH1 0x20 DUP3 ADD SWAP1 POP SWAP3 SWAP2 POP POP JUMP JUMPDEST PUSH1 0x0 PUSH2 0x2A74 DUP3 PUSH2 0x2624 JUMP JUMPDEST PUSH2 0x2A7E DUP2 DUP6 PUSH2 0x2A58 JUMP JUMPDEST SWAP4 POP PUSH2 0x2A8E DUP2 DUP6 PUSH1 0x20 DUP7 ADD PUSH2 0x2640 JUMP JUMPDEST PUSH2 0x2A97 DUP2 PUSH2 0x249F JUMP JUMPDEST DUP5 ADD SWAP2 POP POP SWAP3 SWAP2 POP POP JUMP JUMPDEST PUSH1 0x0 DUP2 MLOAD SWAP1 POP SWAP2 SWAP1 POP JUMP JUMPDEST PUSH1 0x0 DUP3 DUP3 MSTORE PUSH1 0x20 DUP3 ADD SWAP1 POP SWAP3 SWAP2 POP POP JUMP JUMPDEST PUSH1 0x0 DUP2 SWAP1 POP PUSH1 0x20 DUP3 ADD SWAP1 POP SWAP2 SWAP1 POP JUMP JUMPDEST PUSH1 0x0 PUSH2 0x2ADA DUP4 DUP4 PUSH2 0x2A69 JUMP JUMPDEST SWAP1 POP SWAP3 SWAP2 POP POP JUMP JUMPDEST PUSH1 0x0 PUSH1 0x20 DUP3 ADD SWAP1 POP SWAP2 SWAP1 POP JUMP JUMPDEST PUSH1 0x0 PUSH2 0x2AFA DUP3 PUSH2 0x2AA2 JUMP JUMPDEST PUSH2 0x2B04 DUP2 DUP6 PUSH2 0x2AAD JUMP JUMPDEST SWAP4 POP DUP4 PUSH1 0x20 DUP3 MUL DUP6 ADD PUSH2 0x2B16 DUP6 PUSH2 0x2ABE JUMP JUMPDEST DUP1 PUSH1 0x0 JUMPDEST DUP6 DUP2 LT ISZERO PUSH2 0x2B52 JUMPI DUP5 DUP5 SUB DUP10 MSTORE DUP2 MLOAD PUSH2 0x2B33 DUP6 DUP3 PUSH2 0x2ACE JUMP JUMPDEST SWAP5 POP PUSH2 0x2B3E DUP4 PUSH2 0x2AE2 JUMP JUMPDEST SWAP3 POP PUSH1 0x20 DUP11 ADD SWAP10 POP POP PUSH1 0x1 DUP2 ADD SWAP1 POP PUSH2 0x2B1A JUMP JUMPDEST POP DUP3 SWAP8 POP DUP8 SWAP6 POP POP POP POP POP POP SWAP3 SWAP2 POP POP JUMP JUMPDEST PUSH2 0x2B6D DUP2 PUSH2 0x26A3 JUMP JUMPDEST DUP3 MSTORE POP POP JUMP JUMPDEST PUSH1 0x0 PUSH1 0xC0 DUP4 ADD PUSH1 0x0 DUP4 ADD MLOAD PUSH2 0x2B8B PUSH1 0x0 DUP7 ADD DUP3 PUSH2 0x2A49 JUMP JUMPDEST POP PUSH1 0x20 DUP4 ADD MLOAD DUP5 DUP3 SUB PUSH1 0x20 DUP7 ADD MSTORE PUSH2 0x2BA3 DUP3 DUP3 PUSH2 0x2A69 JUMP JUMPDEST SWAP2 POP POP PUSH1 0x40 DUP4 ADD MLOAD DUP5 DUP3 SUB PUSH1 0x40 DUP7 ADD MSTORE PUSH2 0x2BBD DUP3 DUP3 PUSH2 0x2A69 JUMP JUMPDEST SWAP2 POP POP PUSH1 0x60 DUP4 ADD MLOAD DUP5 DUP3 SUB PUSH1 0x60 DUP7 ADD MSTORE PUSH2 0x2BD7 DUP3 DUP3 PUSH2 0x2A69 JUMP JUMPDEST SWAP2 POP POP PUSH1 0x80 DUP4 ADD MLOAD DUP5 DUP3 SUB PUSH1 0x80 DUP7 ADD MSTORE PUSH2 0x2BF1 DUP3 DUP3 PUSH2 0x2AEF JUMP JUMPDEST SWAP2 POP POP PUSH1 0xA0 DUP4 ADD MLOAD PUSH2 0x2C06 PUSH1 0xA0 DUP7 ADD DUP3 PUSH2 0x2B64 JUMP JUMPDEST POP DUP1 SWAP2 POP POP SWAP3 SWAP2 POP POP JUMP JUMPDEST PUSH1 0x0 PUSH2 0x2C1D DUP4 DUP4 PUSH2 0x2B73 JUMP JUMPDEST SWAP1 POP SWAP3 SWAP2 POP POP JUMP JUMPDEST PUSH1 0x0 PUSH1 0x20 DUP3 ADD SWAP1 POP SWAP2 SWAP1 POP JUMP JUMPDEST PUSH1 0x0 PUSH2 0x2C3D DUP3 PUSH2 0x2A1D JUMP JUMPDEST PUSH2 0x2C47 DUP2 DUP6 PUSH2 0x2A28 JUMP JUMPDEST SWAP4 POP DUP4 PUSH1 0x20 DUP3 MUL DUP6 ADD PUSH2 0x2C59 DUP6 PUSH2 0x2A39 JUMP JUMPDEST DUP1 PUSH1 0x0 JUMPDEST DUP6 DUP2 LT ISZERO PUSH2 0x2C95 JUMPI DUP5 DUP5 SUB DUP10 MSTORE DUP2 MLOAD PUSH2 0x2C76 DUP6 DUP3 PUSH2 0x2C11 JUMP JUMPDEST SWAP5 POP PUSH2 0x2C81 DUP4 PUSH2 0x2C25 JUMP JUMPDEST SWAP3 POP PUSH1 0x20 DUP11 ADD SWAP10 POP POP PUSH1 0x1 DUP2 ADD SWAP1 POP PUSH2 0x2C5D JUMP JUMPDEST POP DUP3 SWAP8 POP DUP8 SWAP6 POP POP POP POP POP POP SWAP3 SWAP2 POP POP JUMP JUMPDEST PUSH1 0x0 PUSH1 0x20 DUP3 ADD SWAP1 POP DUP2 DUP2 SUB PUSH1 0x0 DUP4 ADD MSTORE PUSH2 0x2CC1 DUP2 DUP5 PUSH2 0x2C32 JUMP JUMPDEST SWAP1 POP SWAP3 SWAP2 POP POP JUMP JUMPDEST PUSH1 0x0 PUSH8 0xFFFFFFFFFFFFFFFF DUP3 GT ISZERO PUSH2 0x2CE4 JUMPI PUSH2 0x2CE3 PUSH2 0x24B0 JUMP JUMPDEST JUMPDEST PUSH1 0x20 DUP3 MUL SWAP1 POP PUSH1 0x20 DUP2 ADD SWAP1 POP SWAP2 SWAP1 POP JUMP JUMPDEST PUSH1 0x0 PUSH2 0x2D08 PUSH2 0x2D03 DUP5 PUSH2 0x2CC9 JUMP JUMPDEST PUSH2 0x2510 JUMP JUMPDEST SWAP1 POP DUP1 DUP4 DUP3 MSTORE PUSH1 0x20 DUP3 ADD SWAP1 POP PUSH1 0x20 DUP5 MUL DUP4 ADD DUP6 DUP2 GT ISZERO PUSH2 0x2D2B JUMPI PUSH2 0x2D2A PUSH2 0x277E JUMP JUMPDEST JUMPDEST DUP4 JUMPDEST DUP2 DUP2 LT ISZERO PUSH2 0x2D54 JUMPI DUP1 PUSH2 0x2D40 DUP9 DUP3 PUSH2 0x273D JUMP JUMPDEST DUP5 MSTORE PUSH1 0x20 DUP5 ADD SWAP4 POP POP PUSH1 0x20 DUP2 ADD SWAP1 POP PUSH2 0x2D2D JUMP JUMPDEST POP POP POP SWAP4 SWAP3 POP POP POP JUMP JUMPDEST PUSH1 0x0 DUP3 PUSH1 0x1F DUP4 ADD SLT PUSH2 0x2D73 JUMPI PUSH2 0x2D72 PUSH2 0x2495 JUMP JUMPDEST JUMPDEST DUP2 CALLDATALOAD PUSH2 0x2D83 DUP5 DUP3 PUSH1 0x20 DUP7 ADD PUSH2 0x2CF5 JUMP JUMPDEST SWAP2 POP POP SWAP3 SWAP2 POP POP JUMP JUMPDEST PUSH1 0x0 DUP1 PUSH1 0x40 DUP4 DUP6 SUB SLT ISZERO PUSH2 0x2DA3 JUMPI PUSH2 0x2DA2 PUSH2 0x248B JUMP JUMPDEST JUMPDEST PUSH1 0x0 DUP4 ADD CALLDATALOAD PUSH8 0xFFFFFFFFFFFFFFFF DUP2 GT ISZERO PUSH2 0x2DC1 JUMPI PUSH2 0x2DC0 PUSH2 0x2490 JUMP JUMPDEST JUMPDEST PUSH2 0x2DCD DUP6 DUP3 DUP7 ADD PUSH2 0x2D5E JUMP JUMPDEST SWAP3 POP POP PUSH1 0x20 DUP4 ADD CALLDATALOAD PUSH8 0xFFFFFFFFFFFFFFFF DUP2 GT ISZERO PUSH2 0x2DEE JUMPI PUSH2 0x2DED PUSH2 0x2490 JUMP JUMPDEST JUMPDEST PUSH2 0x2DFA DUP6 DUP3 DUP7 ADD PUSH2 0x25AD JUMP JUMPDEST SWAP2 POP POP SWAP3 POP SWAP3 SWAP1 POP JUMP JUMPDEST PUSH1 0x0 PUSH1 0x20 DUP3 ADD SWAP1 POP PUSH2 0x2E19 PUSH1 0x0 DUP4 ADD DUP5 PUSH2 0x26CB JUMP JUMPDEST SWAP3 SWAP2 POP POP JUMP JUMPDEST PUSH1 0x0 PUSH1 0x80 DUP4 ADD PUSH1 0x0 DUP4 ADD MLOAD DUP5 DUP3 SUB PUSH1 0x0 DUP7 ADD MSTORE PUSH2 0x2E3C DUP3 DUP3 PUSH2 0x2A69 JUMP JUMPDEST SWAP2 POP POP PUSH1 0x20 DUP4 ADD MLOAD PUSH2 0x2E51 PUSH1 0x20 DUP7 ADD DUP3 PUSH2 0x2B64 JUMP JUMPDEST POP PUSH1 0x40 DUP4 ADD MLOAD PUSH2 0x2E64 PUSH1 0x40 DUP7 ADD DUP3 PUSH2 0x2B64 JUMP JUMPDEST POP PUSH1 0x60 DUP4 ADD MLOAD PUSH2 0x2E77 PUSH1 0x60 DUP7 ADD DUP3 PUSH2 0x2A49 JUMP JUMPDEST POP DUP1 SWAP2 POP POP SWAP3 SWAP2 POP POP JUMP JUMPDEST PUSH1 0x0 PUSH1 0x20 DUP3 ADD SWAP1 POP DUP2 DUP2 SUB PUSH1 0x0 DUP4 ADD MSTORE PUSH2 0x2E9C DUP2 DUP5 PUSH2 0x2E1F JUMP JUMPDEST SWAP1 POP SWAP3 SWAP2 POP POP JUMP JUMPDEST PUSH1 0x0 DUP1 PUSH1 0x40 DUP4 DUP6 SUB SLT ISZERO PUSH2 0x2EBB JUMPI PUSH2 0x2EBA PUSH2 0x248B JUMP JUMPDEST JUMPDEST PUSH1 0x0 PUSH2 0x2EC9 DUP6 DUP3 DUP7 ADD PUSH2 0x273D JUMP JUMPDEST SWAP3 POP POP PUSH1 0x20 DUP4 ADD CALLDATALOAD PUSH8 0xFFFFFFFFFFFFFFFF DUP2 GT ISZERO PUSH2 0x2EEA JUMPI PUSH2 0x2EE9 PUSH2 0x2490 JUMP JUMPDEST JUMPDEST PUSH2 0x2EF6 DUP6 DUP3 DUP7 ADD PUSH2 0x25AD JUMP JUMPDEST SWAP2 POP POP SWAP3 POP SWAP3 SWAP1 POP JUMP JUMPDEST PUSH1 0x0 PUSH20 0xFFFFFFFFFFFFFFFFFFFFFFFFFFFFFFFFFFFFFFFF DUP3 AND SWAP1 POP SWAP2 SWAP1 POP JUMP JUMPDEST PUSH1 0x0 PUSH2 0x2F2B DUP3 PUSH2 0x2F00 JUMP JUMPDEST SWAP1 POP SWAP2 SWAP1 POP JUMP JUMPDEST PUSH2 0x2F3B DUP2 PUSH2 0x2F20 JUMP JUMPDEST DUP2 EQ PUSH2 0x2F46 JUMPI PUSH1 0x0 DUP1 REVERT JUMPDEST POP JUMP JUMPDEST PUSH1 0x0 DUP2 CALLDATALOAD SWAP1 POP PUSH2 0x2F58 DUP2 PUSH2 0x2F32 JUMP JUMPDEST SWAP3 SWAP2 POP POP JUMP JUMPDEST PUSH1 0x0 PUSH1 0x20 DUP3 DUP5 SUB SLT ISZERO PUSH2 0x2F74 JUMPI PUSH2 0x2F73 PUSH2 0x248B JUMP JUMPDEST JUMPDEST PUSH1 0x0 PUSH2 0x2F82 DUP5 DUP3 DUP6 ADD PUSH2 0x2F49 JUMP JUMPDEST SWAP2 POP POP SWAP3 SWAP2 POP POP JUMP JUMPDEST PUSH1 0x0 DUP2 MLOAD SWAP1 POP SWAP2 SWAP1 POP JUMP JUMPDEST PUSH1 0x0 DUP3 DUP3 MSTORE PUSH1 0x20 DUP3 ADD SWAP1 POP SWAP3 SWAP2 POP POP JUMP JUMPDEST PUSH1 0x0 DUP2 SWAP1 POP PUSH1 0x20 DUP3 ADD SWAP1 POP SWAP2 SWAP1 POP JUMP JUMPDEST PUSH1 0x0 PUSH1 0x80 DUP4 ADD PUSH1 0x0 DUP4 ADD MLOAD DUP5 DUP3 SUB PUSH1 0x0 DUP7 ADD MSTORE PUSH2 0x2FD4 DUP3 DUP3 PUSH2 0x2A69 JUMP JUMPDEST SWAP2 POP POP PUSH1 0x20 DUP4 ADD MLOAD PUSH2 0x2FE9 PUSH1 0x20 DUP7 ADD DUP3 PUSH2 0x2B64 JUMP JUMPDEST POP PUSH1 0x40 DUP4 ADD MLOAD PUSH2 0x2FFC PUSH1 0x40 DUP7 ADD DUP3 PUSH2 0x2B64 JUMP JUMPDEST POP PUSH1 0x60 DUP4 ADD MLOAD PUSH2 0x300F PUSH1 0x60 DUP7 ADD DUP3 PUSH2 0x2A49 JUMP JUMPDEST POP DUP1 SWAP2 POP POP SWAP3 SWAP2 POP POP JUMP JUMPDEST PUSH1 0x0 PUSH2 0x3026 DUP4 DUP4 PUSH2 0x2FB7 JUMP JUMPDEST SWAP1 POP SWAP3 SWAP2 POP POP JUMP JUMPDEST PUSH1 0x0 PUSH1 0x20 DUP3 ADD SWAP1 POP SWAP2 SWAP1 POP JUMP JUMPDEST PUSH1 0x0 PUSH2 0x3046 DUP3 PUSH2 0x2F8B JUMP JUMPDEST PUSH2 0x3050 DUP2 DUP6 PUSH2 0x2F96 JUMP JUMPDEST SWAP4 POP DUP4 PUSH1 0x20 DUP3 MUL DUP6 ADD PUSH2 0x3062 DUP6 PUSH2 0x2FA7 JUMP JUMPDEST DUP1 PUSH1 0x0 JUMPDEST DUP6 DUP2 LT ISZERO PUSH2 0x309E JUMPI DUP5 DUP5 SUB DUP10 MSTORE DUP2 MLOAD PUSH2 0x307F DUP6 DUP3 PUSH2 0x301A JUMP JUMPDEST SWAP5 POP PUSH2 0x308A DUP4 PUSH2 0x302E JUMP JUMPDEST SWAP3 POP PUSH1 0x20 DUP11 ADD SWAP10 POP POP PUSH1 0x1 DUP2 ADD SWAP1 POP PUSH2 0x3066 JUMP JUMPDEST POP DUP3 SWAP8 POP DUP8 SWAP6 POP POP POP POP POP POP SWAP3 SWAP2 POP POP JUMP JUMPDEST PUSH1 0x0 PUSH1 0x20 DUP3 ADD SWAP1 POP DUP2 DUP2 SUB PUSH1 0x0 DUP4 ADD MSTORE PUSH2 0x30CA DUP2 DUP5 PUSH2 0x303B JUMP JUMPDEST SWAP1 POP SWAP3 SWAP2 POP POP JUMP JUMPDEST PUSH1 0x0 DUP1 PUSH1 0x40 DUP4 DUP6 SUB SLT ISZERO PUSH2 0x30E9 JUMPI PUSH2 0x30E8 PUSH2 0x248B JUMP JUMPDEST JUMPDEST PUSH1 0x0 DUP4 ADD CALLDATALOAD PUSH8 0xFFFFFFFFFFFFFFFF DUP2 GT ISZERO PUSH2 0x3107 JUMPI PUSH2 0x3106 PUSH2 0x2490 JUMP JUMPDEST JUMPDEST PUSH2 0x3113 DUP6 DUP3 DUP7 ADD PUSH2 0x25AD JUMP JUMPDEST SWAP3 POP POP PUSH1 0x20 PUSH2 0x3124 DUP6 DUP3 DUP7 ADD PUSH2 0x273D JUMP JUMPDEST SWAP2 POP POP SWAP3 POP SWAP3 SWAP1 POP JUMP JUMPDEST PUSH1 0x0 PUSH1 0x20 DUP3 ADD SWAP1 POP PUSH2 0x3143 PUSH1 0x0 DUP4 ADD DUP5 PUSH2 0x26AF JUMP JUMPDEST SWAP3 SWAP2 POP POP JUMP JUMPDEST PUSH1 0x0 PUSH1 0x20 DUP3 DUP5 SUB SLT ISZERO PUSH2 0x315F JUMPI PUSH2 0x315E PUSH2 0x248B JUMP JUMPDEST JUMPDEST PUSH1 0x0 PUSH2 0x316D DUP5 DUP3 DUP6 ADD PUSH2 0x273D JUMP JUMPDEST SWAP2 POP POP SWAP3 SWAP2 POP POP JUMP JUMPDEST PUSH1 0x0 DUP1 PUSH1 0x40 DUP4 DUP6 SUB SLT ISZERO PUSH2 0x318D JUMPI PUSH2 0x318C PUSH2 0x248B JUMP JUMPDEST JUMPDEST PUSH1 0x0 PUSH2 0x319B DUP6 DUP3 DUP7 ADD PUSH2 0x2F49 JUMP JUMPDEST SWAP3 POP POP PUSH1 0x20 PUSH2 0x31AC DUP6 DUP3 DUP7 ADD PUSH2 0x2944 JUMP JUMPDEST SWAP2 POP POP SWAP3 POP SWAP3 SWAP1 POP JUMP JUMPDEST PUSH32 0x4E487B7100000000000000000000000000000000000000000000000000000000 PUSH1 0x0 MSTORE PUSH1 0x22 PUSH1 0x4 MSTORE PUSH1 0x24 PUSH1 0x0 REVERT JUMPDEST PUSH1 0x0 PUSH1 0x2 DUP3 DIV SWAP1 POP PUSH1 0x1 DUP3 AND DUP1 PUSH2 0x31FD JUMPI PUSH1 0x7F DUP3 AND SWAP2 POP JUMPDEST PUSH1 0x20 DUP3 LT DUP2 SUB PUSH2 0x3210 JUMPI PUSH2 0x320F PUSH2 0x31B6 JUMP JUMPDEST JUMPDEST POP SWAP2 SWAP1 POP JUMP JUMPDEST PUSH1 0x0 DUP2 SWAP1 POP DUP2 PUSH1 0x0 MSTORE PUSH1 0x20 PUSH1 0x0 KECCAK256 SWAP1 POP SWAP2 SWAP1 POP JUMP JUMPDEST PUSH1 0x0 PUSH1 0x20 PUSH1 0x1F DUP4 ADD DIV SWAP1 POP SWAP2 SWAP1 POP JUMP JUMPDEST PUSH1 0x0 DUP3 DUP3 SHL SWAP1 POP SWAP3 SWAP2 POP POP JUMP JUMPDEST PUSH1 0x0 PUSH1 0x8 DUP4 MUL PUSH2 0x3278 PUSH32 0xFFFFFFFFFFFFFFFFFFFFFFFFFFFFFFFFFFFFFFFFFFFFFFFFFFFFFFFFFFFFFFFF DUP3 PUSH2 0x323B JUMP JUMPDEST PUSH2 0x3282 DUP7 DUP4 PUSH2 0x323B JUMP JUMPDEST SWAP6 POP DUP1 NOT DUP5 AND SWAP4 POP DUP1 DUP7 AND DUP5 OR SWAP3 POP POP POP SWAP4 SWAP3 POP POP POP JUMP JUMPDEST PUSH1 0x0 DUP2 SWAP1 POP SWAP2 SWAP1 POP JUMP JUMPDEST PUSH1 0x0 PUSH2 0x32BF PUSH2 0x32BA PUSH2 0x32B5 DUP5 PUSH2 0x2923 JUMP JUMPDEST PUSH2 0x329A JUMP JUMPDEST PUSH2 0x2923 JUMP JUMPDEST SWAP1 POP SWAP2 SWAP1 POP JUMP JUMPDEST PUSH1 0x0 DUP2 SWAP1 POP SWAP2 SWAP1 POP JUMP JUMPDEST PUSH2 0x32D9 DUP4 PUSH2 0x32A4 JUMP JUMPDEST PUSH2 0x32ED PUSH2 0x32E5 DUP3 PUSH2 0x32C6 JUMP JUMPDEST DUP5 DUP5 SLOAD PUSH2 0x3248 JUMP JUMPDEST DUP3 SSTORE POP POP POP POP JUMP JUMPDEST PUSH1 0x0 SWAP1 JUMP JUMPDEST PUSH2 0x3302 PUSH2 0x32F5 JUMP JUMPDEST PUSH2 0x330D DUP2 DUP5 DUP5 PUSH2 0x32D0 JUMP JUMPDEST POP POP POP JUMP JUMPDEST JUMPDEST DUP2 DUP2 LT ISZERO PUSH2 0x3331 JUMPI PUSH2 0x3326 PUSH1 0x0 DUP3 PUSH2 0x32FA JUMP JUMPDEST PUSH1 0x1 DUP2 ADD SWAP1 POP PUSH2 0x3313 JUMP JUMPDEST POP POP JUMP JUMPDEST PUSH1 0x1F DUP3 GT ISZERO PUSH2 0x3376 JUMPI PUSH2 0x3347 DUP2 PUSH2 0x3216 JUMP JUMPDEST PUSH2 0x3350 DUP5 PUSH2 0x322B JUMP JUMPDEST DUP2 ADD PUSH1 0x20 DUP6 LT ISZERO PUSH2 0x335F JUMPI DUP2 SWAP1 POP JUMPDEST PUSH2 0x3373 PUSH2 0x336B DUP6 PUSH2 0x322B JUMP JUMPDEST DUP4 ADD DUP3 PUSH2 0x3312 JUMP JUMPDEST POP POP JUMPDEST POP POP POP JUMP JUMPDEST PUSH1 0x0 DUP3 DUP3 SHR SWAP1 POP SWAP3 SWAP2 POP POP JUMP JUMPDEST PUSH1 0x0 PUSH2 0x3399 PUSH1 0x0 NOT DUP5 PUSH1 0x8 MUL PUSH2 0x337B JUMP JUMPDEST NOT DUP1 DUP4 AND SWAP2 POP POP SWAP3 SWAP2 POP POP JUMP JUMPDEST PUSH1 0x0 PUSH2 0x33B2 DUP4 DUP4 PUSH2 0x3388 JUMP JUMPDEST SWAP2 POP DUP3 PUSH1 0x2 MUL DUP3 OR SWAP1 POP SWAP3 SWAP2 POP POP JUMP JUMPDEST PUSH2 0x33CB DUP3 PUSH2 0x2624 JUMP JUMPDEST PUSH8 0xFFFFFFFFFFFFFFFF DUP2 GT ISZERO PUSH2 0x33E4 JUMPI PUSH2 0x33E3 PUSH2 0x24B0 JUMP JUMPDEST JUMPDEST PUSH2 0x33EE DUP3 SLOAD PUSH2 0x31E5 JUMP JUMPDEST PUSH2 0x33F9 DUP3 DUP3 DUP6 PUSH2 0x3335 JUMP JUMPDEST PUSH1 0x0 PUSH1 0x20 SWAP1 POP PUSH1 0x1F DUP4 GT PUSH1 0x1 DUP2 EQ PUSH2 0x342C JUMPI PUSH1 0x0 DUP5 ISZERO PUSH2 0x341A JUMPI DUP3 DUP8 ADD MLOAD SWAP1 POP JUMPDEST PUSH2 0x3424 DUP6 DUP3 PUSH2 0x33A6 JUMP JUMPDEST DUP7 SSTORE POP PUSH2 0x348C JUMP JUMPDEST PUSH1 0x1F NOT DUP5 AND PUSH2 0x343A DUP7 PUSH2 0x3216 JUMP JUMPDEST PUSH1 0x0 JUMPDEST DUP3 DUP2 LT ISZERO PUSH2 0x3462 JUMPI DUP5 DUP10 ADD MLOAD DUP3 SSTORE PUSH1 0x1 DUP3 ADD SWAP2 POP PUSH1 0x20 DUP6 ADD SWAP5 POP PUSH1 0x20 DUP2 ADD SWAP1 POP PUSH2 0x343D JUMP JUMPDEST DUP7 DUP4 LT ISZERO PUSH2 0x347F JUMPI DUP5 DUP10 ADD MLOAD PUSH2 0x347B PUSH1 0x1F DUP10 AND DUP3 PUSH2 0x3388 JUMP JUMPDEST DUP4 SSTORE POP JUMPDEST PUSH1 0x1 PUSH1 0x2 DUP9 MUL ADD DUP9 SSTORE POP POP POP JUMPDEST POP POP POP POP POP POP JUMP JUMPDEST PUSH1 0x0 DUP2 SWAP1 POP SWAP3 SWAP2 POP POP JUMP JUMPDEST PUSH1 0x0 PUSH2 0x34AA DUP3 PUSH2 0x2624 JUMP JUMPDEST PUSH2 0x34B4 DUP2 DUP6 PUSH2 0x3494 JUMP JUMPDEST SWAP4 POP PUSH2 0x34C4 DUP2 DUP6 PUSH1 0x20 DUP7 ADD PUSH2 0x2640 JUMP JUMPDEST DUP1 DUP5 ADD SWAP2 POP POP SWAP3 SWAP2 POP POP JUMP JUMPDEST PUSH1 0x0 PUSH2 0x34DC DUP3 DUP5 PUSH2 0x349F JUMP JUMPDEST SWAP2 POP DUP2 SWAP1 POP SWAP3 SWAP2 POP POP JUMP JUMPDEST PUSH32 0x4E487B7100000000000000000000000000000000000000000000000000000000 PUSH1 0x0 MSTORE PUSH1 0x32 PUSH1 0x4 MSTORE PUSH1 0x24 PUSH1 0x0 REVERT JUMPDEST PUSH32 0x4E487B7100000000000000000000000000000000000000000000000000000000 PUSH1 0x0 MSTORE PUSH1 0x11 PUSH1 0x4 MSTORE PUSH1 0x24 PUSH1 0x0 REVERT JUMPDEST PUSH1 0x0 PUSH2 0x3550 DUP3 PUSH2 0x2923 JUMP JUMPDEST SWAP2 POP PUSH32 0xFFFFFFFFFFFFFFFFFFFFFFFFFFFFFFFFFFFFFFFFFFFFFFFFFFFFFFFFFFFFFFFF DUP3 SUB PUSH2 0x3582 JUMPI PUSH2 0x3581 PUSH2 0x3516 JUMP JUMPDEST JUMPDEST PUSH1 0x1 DUP3 ADD SWAP1 POP SWAP2 SWAP1 POP JUMP JUMPDEST PUSH1 0x0 PUSH2 0x3598 DUP3 PUSH2 0x26BE JUMP JUMPDEST SWAP2 POP PUSH1 0xFF DUP3 SUB PUSH2 0x35AB JUMPI PUSH2 0x35AA PUSH2 0x3516 JUMP JUMPDEST JUMPDEST PUSH1 0x1 DUP3 ADD SWAP1 POP SWAP2 SWAP1 POP JUMP JUMPDEST PUSH32 0x4167656E7420646F6573206E6F74206578697374000000000000000000000000 PUSH1 0x0 DUP3 ADD MSTORE POP JUMP JUMPDEST PUSH1 0x0 PUSH2 0x35EC PUSH1 0x14 DUP4 PUSH2 0x262F JUMP JUMPDEST SWAP2 POP PUSH2 0x35F7 DUP3 PUSH2 0x35B6 JUMP JUMPDEST PUSH1 0x20 DUP3 ADD SWAP1 POP SWAP2 SWAP1 POP JUMP JUMPDEST PUSH1 0x0 PUSH1 0x20 DUP3 ADD SWAP1 POP DUP2 DUP2 SUB PUSH1 0x0 DUP4 ADD MSTORE PUSH2 0x361B DUP2 PUSH2 0x35DF JUMP JUMPDEST SWAP1 POP SWAP2 SWAP1 POP JUMP JUMPDEST PUSH1 0x0 DUP2 SLOAD PUSH2 0x362F DUP2 PUSH2 0x31E5 JUMP JUMPDEST PUSH2 0x3639 DUP2 DUP7 PUSH2 0x3494 JUMP JUMPDEST SWAP5 POP PUSH1 0x1 DUP3 AND PUSH1 0x0 DUP2 EQ PUSH2 0x3654 JUMPI PUSH1 0x1 DUP2 EQ PUSH2 0x3669 JUMPI PUSH2 0x369C JUMP JUMPDEST PUSH1 0xFF NOT DUP4 AND DUP7 MSTORE DUP2 ISZERO ISZERO DUP3 MUL DUP7 ADD SWAP4 POP PUSH2 0x369C JUMP JUMPDEST PUSH2 0x3672 DUP6 PUSH2 0x3216 JUMP JUMPDEST PUSH1 0x0 JUMPDEST DUP4 DUP2 LT ISZERO PUSH2 0x3694 JUMPI DUP2 SLOAD DUP2 DUP10 ADD MSTORE PUSH1 0x1 DUP3 ADD SWAP2 POP PUSH1 0x20 DUP2 ADD SWAP1 POP PUSH2 0x3675 JUMP JUMPDEST DUP4 DUP9 ADD SWAP6 POP POP POP JUMPDEST POP POP POP SWAP3 SWAP2 POP POP JUMP JUMPDEST PUSH1 0x0 PUSH2 0x36B1 DUP3 DUP5 PUSH2 0x3622 JUMP JUMPDEST SWAP2 POP DUP2 SWAP1 POP SWAP3 SWAP2 POP POP JUMP JUMPDEST PUSH1 0x0 DUP2 SLOAD SWAP1 POP PUSH2 0x36CB DUP2 PUSH2 0x31E5 JUMP JUMPDEST SWAP1 POP SWAP2 SWAP1 POP JUMP JUMPDEST DUP2 DUP2 SUB PUSH2 0x36E0 JUMPI POP POP PUSH2 0x37B8 JUMP JUMPDEST PUSH2 0x36E9 DUP3 PUSH2 0x36BC JUMP JUMPDEST PUSH8 0xFFFFFFFFFFFFFFFF DUP2 GT ISZERO PUSH2 0x3702 JUMPI PUSH2 0x3701 PUSH2 0x24B0 JUMP JUMPDEST JUMPDEST PUSH2 0x370C DUP3 SLOAD PUSH2 0x31E5 JUMP JUMPDEST PUSH2 0x3717 DUP3 DUP3 DUP6 PUSH2 0x3335 JUMP JUMPDEST PUSH1 0x0 PUSH1 0x1F DUP4 GT PUSH1 0x1 DUP2 EQ PUSH2 0x3746 JUMPI PUSH1 0x0 DUP5 ISZERO PUSH2 0x3734 JUMPI DUP3 DUP8 ADD SLOAD SWAP1 POP JUMPDEST PUSH2 0x373E DUP6 DUP3 PUSH2 0x33A6 JUMP JUMPDEST DUP7 SSTORE POP PUSH2 0x37B1 JUMP JUMPDEST PUSH1 0x1F NOT DUP5 AND PUSH2 0x3754 DUP8 PUSH2 0x3216 JUMP JUMPDEST SWAP7 POP PUSH2 0x375F DUP7 PUSH2 0x3216 JUMP JUMPDEST PUSH1 0x0 JUMPDEST DUP3 DUP2 LT ISZERO PUSH2 0x3787 JUMPI DUP5 DUP10 ADD SLOAD DUP3 SSTORE PUSH1 0x1 DUP3 ADD SWAP2 POP PUSH1 0x1 DUP6 ADD SWAP5 POP PUSH1 0x20 DUP2 ADD SWAP1 POP PUSH2 0x3762 JUMP JUMPDEST DUP7 DUP4 LT ISZERO PUSH2 0x37A4 JUMPI DUP5 DUP10 ADD SLOAD PUSH2 0x37A0 PUSH1 0x1F DUP10 AND DUP3 PUSH2 0x3388 JUMP JUMPDEST DUP4 SSTORE POP JUMPDEST PUSH1 0x1 PUSH1 0x2 DUP9 MUL ADD DUP9 SSTORE POP POP POP JUMPDEST POP POP POP POP POP POP JUMPDEST JUMP JUMPDEST PUSH32 0x4167656E7420697320616C726561647920656C696D696E6174656420696E2074 PUSH1 0x0 DUP3 ADD MSTORE PUSH32 0x6869732067616D65000000000000000000000000000000000000000000000000 PUSH1 0x20 DUP3 ADD MSTORE POP JUMP JUMPDEST PUSH1 0x0 PUSH2 0x3816 PUSH1 0x28 DUP4 PUSH2 0x262F JUMP JUMPDEST SWAP2 POP PUSH2 0x3821 DUP3 PUSH2 0x37BA JUMP JUMPDEST PUSH1 0x40 DUP3 ADD SWAP1 POP SWAP2 SWAP1 POP JUMP JUMPDEST PUSH1 0x0 PUSH1 0x20 DUP3 ADD SWAP1 POP DUP2 DUP2 SUB PUSH1 0x0 DUP4 ADD MSTORE PUSH2 0x3845 DUP2 PUSH2 0x3809 JUMP JUMPDEST SWAP1 POP SWAP2 SWAP1 POP JUMP INVALID LOG2 PUSH5 0x6970667358 0x22 SLT KECCAK256 PUSH3 0xC52C31 0x4C SWAP6 PUSH14 0xB89948456F54FE857B41E59EF941 0xE1 PUSH16 0xD2583A5F082627AF9164736F6C634300 ADDMOD XOR STOP CALLER COINBASE KECCAK256 PUSH13 0x6F756420616E6420756E707265 PUSH5 0x6963746162 PUSH13 0x652077696C6463617264207768 PUSH16 0x20706C617973206D696E642067616D65 PUSH20 0x2E41206272696C6C69616E7420627574206D6F72 PUSH2 0x6C6C PUSH26 0x20636F6E666C696374656420737472617465676973742C207769 PUSH13 0x6C696E6720746F20646F20616E PUSH26 0x7468696E6720746F2077696E2E41206B696E642D686561727465 PUSH5 0x206D696772 PUSH2 0x6E74 KECCAK256 PUSH24 0x6F726B6572207769746820657863657074696F6E616C2073 PUSH21 0x72656E67746820616E64206C6F79616C74792E5468 PUSH6 0x206465737065 PUSH19 0x61746520627574206B696E642D686561727465 PUSH5 0x2070726F74 PUSH2 0x676F PUSH15 0x697374207769746820612067616D62 PUSH13 0x65722773206C75636B2E412064 PUSH6 0x7465726D696E PUSH6 0x64204E6F7274 PUSH9 0x204B6F7265616E2064 PUSH6 0x666563746F72 0x2C KECCAK256 PUSH20 0x6B696C6C656420696E20737572766976616C2E41 KECCAK256 PUSH18 0x756965742062757420627261766520636F6E PUSH21 0x657374616E74207769746820612074726167696320 PUSH3 0x61636B PUSH20 0x746F72792E412076696F6C656E742067616E6773 PUSH21 0x6572207769746820612073686F72742074656D7065 PUSH19 0x20616E64206120746173746520666F72206368 PUSH2 0x6F73 0x2E SLOAD PUSH9 0x65206D797374657269 PUSH16 0x757320656C6465726C7920636F6E7465 PUSH20 0x74616E74207769746820612068696464656E2061 PUSH8 0x656E64612E000000 "
        },
        "methodIdentifiers": {
          "addAgent(uint8,string,string,string,string[])": "0b66bcaf",
          "agents(uint8)": "973022be",
          "agentsByGame(string,uint256)": "1bc64092",
          "createGameRoom(uint8[],string)": "3cb96450",
          "eliminatePlayer(uint8,string)": "58275bff",
          "eliminatedInGame(string,uint8)": "6ae0770f",
          "gameCount()": "4d1975b4",
          "gameRooms(string)": "04ed4fc9",
          "gamesByUser(address,uint256)": "f1018f54",
          "getActiveAgents(string)": "51159abb",
          "getAllAgentsByGameId(string)": "fa0cb95b",
          "getEliminatedAgents(string)": "3953da4c",
          "getGameCount()": "e87c0ee6",
          "getGameRoomById(string)": "4eaf436b",
          "getGameRoomsByUser(address)": "5b875aca"
        }
      }
    }
  }
}